S00F00006F75742F6D61696E2E733139B9
S31808000000000002207D040008DD020008ED020008F502005F
S3180800001308FD0200080503000800000000000000000000AD
S318080000260000000000000D0300081D030008000000002D4C
S318080000390300083D030008D5040008D5040008D5040008B0
S3180800004CD5040008D5040008D5040008D5040008D5040036
S3180800005F08D5040008D5040008D5040008D5040008D5041B
S318080000720008D5040008D5040008D5040008D5040008D50C
S31808000085040008D5040008D5040008D5040008D5040008CA
S31808000098D5040008D5040008D5040008D5040008D50400EA
S318080000AB08D5040008D5040008D5040008D5040008D504CF
S318080000BE0008D5040008D5040008D5040008D5040008D5C0
S318080000D1040008D5040008D5040008D5040008D50400087E
S318080000E4D5040008D5040008D5040008D5040008D504009E
S318080000F708D5040008D5040008D5040008D5040008D50483
S3180800010A0008D5040008D5040008D5040008D5040008D573
S3180800011D040008D5040008D5040008D5040008D504000831
S31808000130D5040008D5040008D5040008D5040008D5040051
S3180800014308D5040008D5040008D5040008D5040008D50436
S318080001560008D5040008D5040008D5040008D5040008D527
S31808000169040008D5040008D5040008D5040008D5040008E5
S3180800017CD5040008D5040008D504000880B500AF124A126D
S3180800018F4B1B6843F0010313600F4B00229A600E4A0D4BB1
S318080001A21B6823F0847323F4803313600A4B0A4A5A600807
S318080001B54A084B1B6823F480231360054B0022DA6000F040
S318080001C80DF8054B4FF000629A6000BF80BD00BF00380231
S318080001DB401030002400ED00E080B483B000AF00237B607E
S318080001EE00233B60364A354B1B6843F480331360334B1BB9
S318080002016803F400333B607B6801337B603B68002B03D11B
S318080002147B68B3F5A06FF0D12B4B1B6803F40033002B021E
S31808000227D001233B6001E000233B603B68012B42D1244A38
S3180800023A244B1B6C43F080531364224A224B1B6843F4801D
S3180800024D4313601E4A1E4B9B6893601C4A1C4B9B6843F40C
S3180800026000439360194A194B9B6843F4A0539360164B18E7
S318080002734A5A60154A144B1B6843F08073136000BF114B71
S318080002861B6803F00073002BF9D0114B40F205621A600CFF
S318080002994A0C4B9B6823F003039360094A094B9B6843F0B7
S318080002AC0203936000BF064B9B6803F00C03082BF9D10027
S318080002BFBF0C37BD465DF8047B704700BF003802400070E5
S318080002D2004008544007003C024080B400AF00BFBD465DA8
S318080002E5F8047B704700BF80B400AFFEE700BF80B400AFA1
S318080002F8FEE700BF80B400AFFEE700BF80B400AFFEE700F2
S3180800030BBF80B400AF00BFBD465DF8047B704700BF80B4EF
S3180800031E00AF00BFBD465DF8047B704700BF80B400AF0020
S31808000331BFBD465DF8047B704700BF80B400AF044B1B68EA
S318080003440133034A136000BFBD465DF8047B70471800003F
S318080003572080B500AF104A104B1B6B43F0080313630E4A3A
S3180800036A0E4B1B6823F0004313600B4A0B4B1B6843F080EC
S3180800037D431360084A084B5B6823F400435360054A054B95
S318080003905B6983F40043536100F006F8F6E700BF00380256
S318080003A340000C024080B483B000AF00237B6002E07B68D2
S318080003B601337B607B68034A9342F8D90C37BD465DF804A2
S318080003C97B7047FFD3300090B482B000AFEFF308831C46EB
S318080003DC23467B6000233B6005E07B6804337B603B680180
S318080003EF333B607B681B68034A9342F4D10837BD4690BC44
S318080004027047FECAEFBE80B500AF054B1B680133044A1361
S3180800041560034B1B68092B01DCFFF7F3FF80BD140000202B
S3180800042890B482B000AFEFF308831C4623467B607B680494
S3180800043B3B7B60084B3B6005E07B683A681A607B68043B96
S3180800044E7B607B68044A9342F5D80837BD4690BC7047FE9C
S31808000461CAEFBE00000120D60400080000002014000020AC
S31808000474140000201C000020002103E00E4B5B5843500450
S31808000487310D480E4B42189A42F6D30D4A02E0002342F8E0
S3180800049A043B0B4B9A42F9D30B48016841F470010160FF42
S318080004ADF7BCFFFFF76AFEFFF750FF704700DFD604000861
S318080004C00000002014000020140000201C00002088ED00E2
S308080004D3E0FEE753
S318080004D6007A030A0000000000000000010203040607085F
S306080004E909FB
S7050800035996
