:020000040800F2
:1000000000000220610500082504000831040008F2
:1000100039040008410400084904000800000000F9
:100020000000000000000000000000005104000873
:100030005D04000800000000690400087504000861
:10004000B5050008B5050008B5050008B5050008A8
:10005000B5050008B5050008B5050008B505000898
:10006000B5050008B5050008B5050008B505000888
:10007000B5050008B5050008B5050008B505000878
:10008000B5050008B5050008B5050008B505000868
:10009000B5050008B5050008B5050008B505000858
:1000A000B5050008B5050008B5050008B505000848
:1000B000B5050008B5050008B5050008B505000838
:1000C000B5050008B5050008B5050008B505000828
:1000D000B5050008B5050008B5050008B505000818
:1000E000B5050008B5050008B5050008B505000808
:1000F000B5050008B5050008B5050008B5050008F8
:10010000B5050008B5050008B5050008B5050008E7
:10011000B5050008B5050008B5050008B5050008D7
:10012000B5050008B5050008B5050008B5050008C7
:10013000B5050008B5050008B5050008B5050008B7
:10014000B5050008B5050008B5050008B5050008A7
:10015000B5050008B5050008B5050008B505000897
:10016000B5050008B5050008B5050008B505000887
:10017000B5050008B5050008B5050008B505000877
:10018000B5050008B5050008044B05481B1A062BE9
:1001900002D9044B03B11847704700BF5304002035
:1001A000500400200000000005490648091A891083
:1001B00001EBD171491002D0034B03B118477047CE
:1001C00050040020500400200000000010B5064C30
:1001D000237843B9FFF7D8FF044B13B10448AFF3BA
:1001E00000800123237010BD540400200000000093
:1001F0009004002008B5084B1BB108480849AFF32C
:1002000000800848036813B9BDE80840CCE7064BF6
:10021000002BF9D09847F7E7000000009004002079
:10022000580400204C04002000000000134B002B59
:1002300008BF114B9D46A3F5803A00218B460F461F
:100240001148124A121A00F00BFA0D4B002B00D085
:1002500098470C4B002B00D0984700200021040049
:100260000D000B4800F0A8F900F0D2F92000290099
:1002700000F00EF900F0A6F90000080000000000F0
:10028000000000000000000054040020740400205E
:10029000E505000880B500AF124A124B1B6843F019
:1002A000010313600F4B00229A600E4A0D4B1B682E
:1002B00023F0847323F4803313600A4B0A4A5A6094
:1002C000084A084B1B6823F480231360054B002267
:1002D000DA6000F00DF8054B4FF000629A6000F014
:1002E00081F880BD003802401030002400ED00E0AD
:1002F00080B483B000AF00237B6000233B60354AAD
:10030000344B1B6843F480331360324B1B6803F497
:1003100000333B607B6801337B603B68002B03D17B
:100320007B68B3F5A06FF0D12A4B1B6803F4003350
:10033000002B02D001233B6001E000233B603B68BF
:10034000012B42D1234A234B1B6C43F0805313648F
:10035000214A214B1B6843F4804313601D4A1D4B07
:100360009B6893601B4A1B4B9B6843F4004393605C
:10037000184A184B9B6843F4A0539360154B174AD7
:100380005A60144A134B1B6843F08073136000BF1C
:10039000104B1B6803F00073002BF9D0104B40F298
:1003A00005621A600B4A0B4B9B6823F003039360B2
:1003B000084A084B9B6843F00203936000BF054B5B
:1003C0009B6803F00C03082BF9D10C37BD465DF890
:1003D000047B70470038024000700040085440071A
:1003E000003C024080B483B000AF0B4B7B600B4BF2
:1003F0003B6007E03B681A1D3A607A68111D79601E
:1004000012681A603B68064A9342F3D30C37BD4624
:100410005DF8047B704700BFDC1C000874040020FA
:100420009004002080B400AFBD465DF8047B7047A7
:1004300080B400AFFEE700BF80B400AFFEE700BFAE
:1004400080B400AFFEE700BF80B400AFFEE700BF9E
:1004500080B400AFBD465DF8047B704780B400AF48
:10046000BD465DF8047B704780B400AFBD465DF8C3
:10047000047B704780B400AF044B1B680133034A10
:100480001360BD465DF8047B704700BF7004002018
:1004900080B582B000AF1C4A1B4B1B6B43F00803B6
:1004A00013631A4A194B1B6843F080431360174AC1
:1004B000164B1B6843F080531360144A134B1B68A0
:1004C00043F080631360114A104B1B6843F0807344
:1004D000136000237B6000233B603B68002B06D049
:1004E00000233B60094B4FF6FF721A8305E001239E
:1004F0003B60064B4FF6FF725A837B6801337B608B
:1005000000F006F8E9E700BF00380240000C0240A6
:1005100080B584B000AF0B4BBB600023FB600023B1
:10052000FB6008E097ED020A00F0AEF987ED010AE2
:10053000FB680133FB60FB68034A9342F2DD10372E
:10054000BD4680BD6666C6409F86010088180008CB
:100550000000002044040020540400207404002003
:10056000002103E00D4B5B58435004310C480D4B08
:1005700042189A42F6D30C4A02E0002342F8043BA8
:100580000A4B9A42F9D30A48016841F470010160AC
:10059000FFF780FEFFF77CFF704700DF8818000838
:1005A00000000020440400205404002074040020B3
:1005B00088ED00E0FEE70000014600200246034609
:1005C00000F09CB808B50021044600F0F3F8044B95
:1005D0001868C36B03B19847204600F05BFF00BF6B
:1005E0009C14000838B5084B084DED1AAC1018BF24
:1005F000ED1805D0013C55F8043D9847002CF9D181
:10060000BDE8384001F03AB90000000000000000E9
:1006100070B50F4E0F4D761BB61018BF002405D0D5
:10062000013455F8043B9847A642F9D10A4E0B4DC8
:10063000761B01F01DF9B61018BF002406D0013456
:1006400055F8043B9847A642F9D170BD70BD00BF74
:10065000000000000000000000000000000000009A
:1006600070B4840746D0541E002A41D0CDB2034650
:1006700002E0621EE4B3144603F8015B9A07F8D166
:10068000032C2ED9CDB245EA05250F2C45EA0545A8
:1006900019D903F110022646103E0F2E42F8105CC5
:1006A00042F80C5C42F8085C42F8045C02F110026B
:1006B000F2D8A4F1100222F00F0204F00F0410325D
:1006C000032C13440DD91E462246043A032A46F849
:1006D000045BFAD8221F22F003020432134404F010
:1006E00003042CB1C9B21C4403F8011BA342FBD183
:1006F00070BC704714460346C2E700BF2DE9F047BF
:10070000254C2568D5F848410646884692469946C4
:10071000CCB360681F2818DC431C7EB104EB800555
:100720000121C5F888A0D4F8887101FA00F21743B6
:10073000022EC4F88871C5F808911ED0023063609B
:1007400044F820800020BDE8F087144B03B34FF439
:10075000C870AFF300800446D0B1D5F84831002707
:1007600080E88800C5F8484138460123C4F88871FC
:10077000C4F88C71002EE1D0D0E7D4F88C110A4374
:10078000C4F88C21DAE705F5A674C5F84841C0E73E
:100790004FF0FF30BDE8F0879C1400080000000017
:1007A000024B13B10248FFF707BF7047000000007B
:1007B000E50500082DE9F04F314B83B01B6800932D
:1007C00003F5A47381460E460193009BD3F848714C
:1007D00027B3DDF804A07C68651E0ED4013407EB56
:1007E00084044FF00008E6B1D4F80031B34218D0C9
:1007F000013D6B1CA4F10404F5D1224B73B17B685D
:10080000002B36D13B68002B34D03846CAF8003074
:10081000AFF30080DAF80070002FDCD103B0BDE840
:10082000F08F7B682268013BAB420CBF7D60C4F84F
:100830000080002ADCD0D7F88831D7F804B0012135
:10084000A940194208D190477B685B45BDD1DAF8D1
:100850000030BB42CCD0B8E7D7F88C31194204D174
:100860004846D4F880109047EEE7D4F880009047CF
:10087000EAE73B68BA461F46002FACD1CEE700BF7F
:100880009C1400080000000000B510EE103A1B4A4E
:1008900023F00043934283B01ADDB3F1FF4F04DB32
:1008A00030EE400A03B05DF804FB684600F02AF819
:1008B00000F0030001289DED000ADDED010A15D0CE
:1008C00002280DD0A8B100F065F9B1EE400AE9E7C1
:1008D000DFED0B0A002000F0D1FC03B05DF804FB53
:1008E000012000F0CBFCB1EE400ADBE700F052F94A
:1008F000D8E7012000F0C2FCD4E700BFD80F493F81
:100900000000000070B510EE103A944A23F0004445
:10091000944286B010EE106A054666DD904A944215
:100920001ADC002BDFED8F7A8F4A24F00F0440F39E
:10093000DD80944270EE677A66D09FED8C7A77EE18
:10094000C76A012077EEE67AC5ED006A77EEC77ACE
:10095000C5ED017A06B070BD854A944266DDB4F1FA
:10096000FF4F49DAE215863AA4EBC25307EE103A7C
:10097000FDEEC76ADFED7F7AF8EEE66A37EE667A5B
:10098000CDED036A27EE277AFDEEC76AF8EEE66A38
:1009900037EE667ACDED046A67EE277AF5EE407A97
:1009A000F1EE10FACDED057A40F0B380F5EE406A35
:1009B000F1EE10FA14BF022301236F4902208DE8E3
:1009C000030003A8294600F067F9002E12DA95ED1E
:1009D000007AD5ED017AB1EE477AF1EE677A4042BE
:1009E00085ED007AC5ED017A04E0002285ED000A6C
:1009F0004260002006B070BD70EE407A0020C5ED68
:100A0000017AC5ED007AF5E7DFED5C6A9FED5C7A6F
:100A100077EEE67A012077EEC76A77EEE67AC5EDE3
:100A2000006A77EEC77AC5ED017AE3E700F06EFC65
:100A3000DFED546ADFED4B5A9FED4C7AF6EE007A0B
:100A4000E0EE267AFDEEE77A17EE900AF8EEE76A16
:100A50001F28B1EE666AA6EE250A66EE877A1DDCCF
:100A6000494A411E24F0FF0352F82120934215D039
:100A700030EE677A85ED007A30EE470A002E30EED0
:100A8000670A85ED010AB5DAB1EE477AB1EE400AA0
:100A900085ED007A85ED010A4042ABE730EE677ADA
:100AA000E41517EE103AC3F3C753E31A082BE1DD40
:100AB000DFED327A9FED327AF0EE405AE6EE275AB9
:100AC00030EE650AA6EE270AF0EE407AD6EE877A77
:100AD00035EEE77A17EE103AC3F3C753E41A192C30
:100AE0002CDC85ED007AB0EE650AC5E7944270EE25
:100AF000277A10D09FED1D7A77EE876A4FF0FF308E
:100B000077EEE67AC5ED006A77EE877AC5ED017A71
:100B100070E7032351E7DFED196A9FED197A77EE4D
:100B2000A67A4FF0FF3077EE876A77EEE67AC5ED6A
:100B3000006A77EE877AC5ED017A5BE79FED137A5D
:100B40009FED135AB0EE650AA6EE070A75EEC07A5D
:100B5000E6EE077AD6EE857A8AE700BFD80F493FDE
:100B6000E3CB1640800FC93FD00FC93F4344353710
:100B7000800F4943000080432015000800443537AA
:100B800008A3852E84F9223FA014000800A3852E17
:100B900032318D2410EE103A23F00043B3F1485F58
:100BA0002CDAFDEEC07A17EE903A002B60D020EEE2
:100BB000007ADFED314A9FED315ADFED315A9FED7A
:100BC000316ADFED317ADFED316AA7EE245AE5EEC6
:100BD000075AA5EE876AE6EE077AE7EE876A66EEC1
:100BE000876A60EEC00AB6EE006AE7EE260AF7EE04
:100BF000007AD7EE060A37EEE00A704720EE007A58
:100C0000DFED1D4A9FED1D5ADFED1D5A9FED1D6A58
:100C1000DFED1D7ADFED1D6A1D4AA7EE245A9342CF
:100C2000E5EE075AA5EE876AE6EE077AE7EE876AF1
:100C300066EE876AD5DD174A934214DC03F17F43E1
:100C400007EE903AB7EE006A36EE676A60EEC00AC9
:100C5000F6EE005AE7EE260AD7EE257A77EEE07A2E
:100C600036EE670A7047B6EE076AF5EE027AEDE7F0
:100C7000B7EE000A704700BF4ED747ADF6740F318C
:100C80007CF293B4010DD037610BB6BAABAA2A3D02
:100C90009999993E0000483F2DE9F04F2DED048BC6
:100CA000D7B05F1ED74C649D0293D31E48BF131D5F
:100CB00054F825600191DB1023EAE3736FEA030B1C
:100CC000B9190393824602EBCB0BA3EB070314D4B1
:100CD0001944659801311AAA002BAABF50F8234085
:100CE000DFEDCC7A07EE904A03F10103A8BFF8EEDE
:100CF000E77A8B42E2EC017AEED1002E1ADB029BFE
:100D00001AA9741C01EB840442A89D00002FC0F2B4
:100D1000BA81DFEDC07A52464B1933ED017AF2EC1D
:100D2000016A9942E6EE877AF7D10431A142E0ECFC
:100D3000017AEBD1029ADFEDB48A9FEDB48A06F115
:100D40008043013B9B00C2EB827906AA03F10408B1
:100D50001344904404934FEA89093446A50056ABE6
:100D60002B44002C13ED140A18DD42A94B1905AAD7
:100D700060EE287AB0EE407AFDEEE77A73ED016A14
:100D8000F8EEE77A8B42A7EEC87A37EEA60ABDEEF8
:100D9000C77A17EE100A42F8040FE9D1584600F05E
:100DA00005FBB0EE409AB4EE000A29EE000A00F00E
:100DB000B5FAF2EE007AA0EE679ABBF1000FFDEEF5
:100DC000C99AF8EEE97A39EE679A40F34181601EDC
:100DD00006AACBF1080352F8201041FA03F202FAF6
:100DE00003F30DF1180EC91A4EF8201019EE900AEF
:100DF0001044CBF1070309EE900A1941002939DDAF
:100E000019EE903A002C03F1010309EE903A40F3F9
:100E1000CB81002210460DF1140E08E0C3F5807C52
:100E200013B1CEF800C00120013294420CDD5EF80F
:100E3000043F0028F2D00132C3F1FF039442CEF800
:100E400000304FF00100F2DCBBF1000F10DDBBF110
:100E5000010F00F00481BBF1020F09D1621E06AB45
:100E60000DF1180E53F8223003F03F034EF82230F4
:100E7000022959D0B5EE409AF1EE10FA66D1631E00
:100E80009E420BDC06AA1544002255F8040D454588
:100E900042EA0002F9D1002A40F07081731E06AACE
:100EA00052F82330002B40F07C81049B4FF0010E60
:100EB00053F8042D0EF1010E002AF9D0A644631C4C
:100EC00073452FDC039A9D18029A05F18045A018FE
:100ED0000EEB020C659A013D02EB85051AAA02EBA6
:100EE000800002EB8C0C42AA02EB830455F8043F0D
:100EF00007EE903AF8EEE77A002FE0EC017ADFEDAA
:100F0000457A0BDB524600EB0901034633ED017ACB
:100F1000F2EC016A8B42E6EE877AF7D16045E4ECA9
:100F2000017AE3D1744619E7B7EE000A30EE499A28
:100F300000289FD05846059100F038FA39EE409AC3
:100F40000599B5EE409AF1EE10FA98D0B0EE490A44
:100F5000CBF10000029100F029FA9FED2C7A029962
:100F6000B4EEC70AF1EE10FAC0F27E81DFED267A08
:100F700060EE277A06A8FDEEE77A631CF8EEE77AC2
:100F80000BF1080BA7EEC70AFDEEE77ABDEEC00A2B
:100F900010EE102A40F8242017EE902A40F8232063
:100FA0005846B7EE000A0393029100F0FFF9039B45
:100FB0000299002BC0F2C78003F1010E4FEA8E02A6
:100FC00042AC06A89FED107A1044A71870ED017A84
:100FD000F8EEE77A67EE807A20EE070A67ED017A8D
:100FE000A742F3D1043A17440025002EC0F2A8808E
:100FF000002DC0F2A580064CDFED067A38460022AF
:101000000CE000BF381800080000803B000080435F
:101010004418000800000000AA4208DCF4EC016A51
:10102000B0EC017A01329642E6EE877AF4DA56AAFB
:1010300002EB850201357545A7F1040742ED287AD8
:10104000D3D1649A032A5FD8DFE802F0673737B05C
:1010500010D1631E06AA52F823100912CEE6621EB2
:1010600006AB0DF1180E53F8223003F07F034EF853
:101070002230FDE6F6EE007AB4EEE79AF1EE10FAD1
:101080000ADA0021F6E65FED1D7A0431A142E0ECB8
:10109000017A7FF43BAE4DE619EE903A002C03F155
:1010A000010309EE903AC8BF02213FF7B2AEF7EE56
:1010B000007A37EEC99A0221DCE62EAA5FED2B7A80
:1010C00002EB8E0E3EED017A964577EE877AF9D1E6
:1010D000002943D0DDED2E6A019AB1EE677A002B2C
:1010E00076EEE77A82ED007A09DD2FA80122B0ECD6
:1010F000017A0132934277EE877AF8DA09B1F1EE9C
:10110000677A019BC3ED017A19EE903A03F007006C
:1011100057B0BDEC048BBDE8F08F2EAA5FED437A8B
:1011200002EB8E0E3EED017A013B5A1C77EE877A78
:10113000F8D109B1F1EE677A019BC3ED007AE3E7DC
:101140005FED4C7A73E7649A032ADDD8DFE802F09A
:10115000130202805FED517A0029BBD19DED2E7AFA
:10116000019A002BC2ED007A77EE677ABDDC019B15
:10117000C3ED017AC8E75FED597ADAE706AAABF169
:10118000080B52F82320002A7FF40AAF06AA02EBCC
:10119000830252F8040D013BABF1080B0028F8D094
:1011A000FEE64FF0010E89E600204DE6002B4FDDF4
:1011B0009A0056A810442EAD141D10ED287A2C4428
:1011C000A81870ED017A77EE276AA84277EEE67AE2
:1011D00077EE277AB0EE667A64ED017AC0ED006AA8
:1011E000EFD1012B34DD131D56AC1444034414ED30
:1011F000287A02442FAC184672ED017A77EE876A9E
:10120000A24277EEE67A77EE877AB0EE667A60ED04
:10121000017AC2ED006AEFD15FED827A30AA33ED38
:10122000017A934277EE877AF9D1A9B1DDED2E6A82
:101230009DED2F7A019AF1EE677AF1EE666AB1EED2
:10124000477AC2ED027AC2ED006A82ED017A5BE76D
:101250005FED907A0029E9D101982E9A2F9BC0ED7D
:10126000027A026043604FE7BDEEC00A06A810EEA6
:10127000102A234640F8242092E600BF10EE103AD0
:1012800023F00043B3F1485F04DAFDEEC07A17EEB5
:10129000903A23B360EE007A9FED155ADFED155AB0
:1012A0009FED156ADFED156A9FED157AE7EE855A19
:1012B00027EE805AA5EEA76AE6EE276AA6EEA77A81
:1012C00070B127EE457AF6EE006AA0EEA67ADFED61
:1012D0000D6AD7EE270AE5EE260A30EE600A70475F
:1012E000DFED096AE7EE876AA6EE850A704700BF60
:1012F000D3C92E2F342FD7B21BEF3836010D50B97A
:101300008988083CABAA2A3EABAA2ABE10EE103A46
:1013100023F0004300EE103A704700BF10EE102A91
:1013200022F00041CB0D7F3B162B17DC002B10EE7B
:10133000100A19DB1A491941114222D0DFED197A3E
:1013400070EE277AF5EEC07AF1EE10FA19DD002A78
:1013500018DB20EA010300EE103A7047B1F1FF4FAD
:101360000FD330EE000A7047DFED0E7A70EE277A69
:10137000F5EEC07AF1EE10FA03DD002A08DB9FEDEE
:101380000A0A70474FF4000242FA03F31844E0E7F8
:101390000029FFEE007A18BFB0EE670A704700BF61
:1013A000FFFF7F00CAF249710000000008B510EE8F
:1013B000103A33F000422DED028B11D0B2F1FF4F05
:1013C00011D2B2F5000F13D3D20D0244FE2A2EDC47
:1013D000002A1ADD23F0FF4343EAC25300EE103A1D
:1013E000BDEC028B08BDBDEC028B30EE000A08BDDF
:1013F0001D4BDFED1E7A984220EE270A22DB10EE0D
:10140000103AC3F3C752193ADFE712F1160F1EDA8A
:101410004CF2503398420ADC9FED158AF0EE400AF8
:10142000B0EE480A00F02AF820EE080AD8E79FED4F
:10143000118AF0EE400AB0EE480A00F01FF820EEE4
:10144000080ACDE7DFED0A0A20EE200AC8E71932C4
:1014500023F0FF4343EAC253DFED077A00EE103A70
:1014600020EE270ABCE700BFB03CFFFF0000004CA5
:101470006042A20DCAF249710000003310EE103A2A
:1014800023F0004210EE903A03F00043134300EEC5
:10149000103A7047FEE700BF43000000180000202C
:1014A000000FC93F000F494000CB9640000FC940D4
:1014B0000053FB4000CB164100ED2F41000F494186
:1014C0000031624100537B41003A8A4100CB964192
:1014D000005CA34100EDAF41007EBC41000FC9415B
:1014E00000A0D5410031E24100C2EE410053FB4172
:1014F00000F20342003A0A420083104200CB164237
:1015000000141D42005C234200A5294200ED2F4239
:1015100000363642007E3C4200C74242000F49423C
:10152000A2000000F9000000830000006E0000002F
:101530004E000000440000001500000029000000DB
:10154000FC0000002700000057000000D100000050
:10155000F500000034000000DD000000C0000000C5
:10156000DB00000062000000950000009900000010
:101570003C0000004300000090000000410000001B
:10158000FE0000005100000063000000AB000000FE
:10159000DE000000BB000000C5000000610000008C
:1015A000B7000000240000006E0000003A000000B8
:1015B000420000004D000000D2000000E0000000EA
:1015C00006000000490000002E000000EA000000B4
:1015D00009000000D1000000920000001C00000083
:1015E000FE0000001D000000EB0000001C000000D9
:1015F000B100000029000000A70000003E0000002C
:10160000E80000008200000035000000F500000046
:101610002E000000BB000000440000008400000019
:10162000E90000009C00000070000000260000009F
:10163000B40000005F0000007E00000041000000D8
:101640003900000091000000D600000039000000C1
:10165000830000005300000039000000F400000087
:101660009C000000840000005F0000008B00000070
:10167000BD000000F9000000280000003B00000051
:101680001F000000F800000097000000FF000000AD
:10169000DE00000005000000980000000F000000C0
:1016A000EF0000002F000000110000008B00000080
:1016B0005A0000000A0000006D0000001F0000003A
:1016C0006D000000360000007E000000CF0000002A
:1016D00027000000CB00000009000000B700000058
:1016E0004F000000460000003F00000066000000C0
:1016F0009E0000005F000000EA0000002D000000D6
:101700007500000027000000BA000000C7000000BC
:10171000EB000000E5000000F10000007B0000008D
:101720003D0000000700000039000000F700000045
:101730008A0000005200000092000000EA00000051
:101740006B000000FB0000005F000000B100000023
:101750001F0000008D0000005D0000000800000078
:1017600056000000030000003000000046000000AA
:10177000FC0000007B0000006B000000AB000000DC
:10178000F0000000CF000000BC00000020000000BE
:101790009A000000F4000000360000001D00000068
:1017A000A9000000E30000009100000061000000BB
:1017B0005E000000E60000001B00000008000000C2
:1017C0006500000099000000850000005F00000037
:1017D00014000000A00000006800000040000000AD
:1017E0008D000000FF000000D80000008000000015
:1017F0004D000000730000002700000031000000D1
:101800000600000006000000150000005600000061
:10181000CA00000073000000A8000000C90000001A
:1018200060000000E20000007B000000C00000003B
:101830008C0000006B0000000400000007000000A6
:10184000090000000000C93F0000F0390000DA374D
:101850000000A2330000842E0000502B0000C2279D
:101860000000D0220000C41F0000C61B0000441767
:0C187000F8B500BFF8BC08BC9E467047ED
:0C187C00F8B500BFF8BC08BC9E467047E1
:1018880000000000007A030A0000000000000000C9
:1018980001020304060708090000000004030020F1
:1018A8006C030020D40300200000000000000000AA
:1018B8000000000000000000000000000000000020
:1018C800000000000000000000000000981400085C
:1018D8000000000000000000000000000000000000
:1018E80000000000000000000000000000000000F0
:1018F80000000000000000000000000000000000E0
:1019080000000000000000000000000000000000CF
:1019180000000000000000000000000000000000BF
:1019280000000000000000000000000000000000AF
:10193800000000000000000000000000000000009F
:1019480001000000000000000E33CDAB34126DE63C
:10195800ECDE05000B0000000000000000000000A5
:10196800000000000000000000000000000000006F
:10197800000000000000000000000000000000005F
:10198800000000000000000000000000000000004F
:10199800000000000000000000000000000000003F
:041CC80018000020E0
:041CCC00F501000816
:041CD000CD0100083A
:041CD400000000000C
:041CD800A107000858
:101CDC0080B483B000AF78607B681B685A1C7B684B
:0C1CEC001A600C37BD465DF8047B7047A1
:041CF80000000000E8
:081CFC0098FDFF6701000000E4
:04000005080004915A
:00000001FF
