S00F00006F75742F6D61696E2E733139B9
S318080000000000022099040008F503000801040008090400FE
S318080000130811040008190400080000000000000000000082
S31808000026000000000000210400082D04000800000000391A
S3180800003904000845040008F5040008F5040008F504000846
S3180800004CF5040008F5040008F5040008F5040008F5040096
S3180800005F08F5040008F5040008F5040008F5040008F5047B
S318080000720008F5040008F5040008F5040008F5040008F56C
S31808000085040008F5040008F5040008F5040008F50400084A
S31808000098F5040008F5040008F5040008F5040008F504004A
S318080000AB08F5040008F5040008F5040008F5040008F5042F
S318080000BE0008F5040008F5040008F5040008F5040008F520
S318080000D1040008F5040008F5040008F5040008F5040008FE
S318080000E4F5040008F5040008F5040008F5040008F50400FE
S318080000F708F5040008F5040008F5040008F5040008F504E3
S3180800010A0008F5040008F5040008F5040008F5040008F5D3
S3180800011D040008F5040008F5040008F5040008F5040008B1
S31808000130F5040008F5040008F5040008F5040008F50400B1
S3180800014308F5040008F5040008F5040008F5040008F50496
S318080001560008F5040008F5040008F5040008F5040008F587
S31808000169040008F5040008F5040008F5040008F504000865
S3180800017CF5040008F5040008F504000880B500AF4FF460D8
S3180800018F53C4F202034FF46052C4F20202126842F00102E3
S318080001A21A604FF46053C4F202034FF000029A604FF46033
S318080001B553C4F202034FF46052C4F20202126822F08472EA
S318080001C822F480321A604FF46053C4F2020343F21002C21A
S318080001DBF200425A604FF46053C4F202034FF46052C4F2B9
S318080001EE0202126822F480221A604FF46053C4F202034F40
S31808000201F00002DA6000F00BF84FF46D43CEF200034FF0C8
S3180800021400629A6000F0C6F880BD00BF80B483B000AF4F5E
S31808000227F000037B604FF000033B604FF46053C4F202035A
S3180800023A4FF46052C4F20202126842F480321A604FF46075
S3180800024D53C4F202031B6803F400333B607B6803F101035F
S318080002607B603B68002B03D17B68B3F5A06FECD14FF46006
S3180800027353C4F202031B6803F40033002B03D04FF001036E
S318080002863B6002E04FF000033B603B68012B40F082804FAD
S31808000299F46053C4F202034FF46052C4F20202126C42F083
S318080002AC80521A644FF4E043C4F200034FF4E042C4F200A7
S318080002BF02126842F480421A604FF46053C4F202034FF43C
S318080002D26052C4F2020292689A604FF46053C4F202034FAB
S318080002E5F46052C4F20202926842F400429A604FF4605336
S318080002F8C4F202034FF46052C4F20202926842F4A0529ABF
S3180800030B604FF46053C4F2020345F20842C0F240725A6021
S3180800031E4FF46053C4F202034FF46052C4F20202126842A2
S31808000331F080721A6000BF4FF46053C4F202031B6803F069
S318080003440073002BF6D04FF47053C4F2020340F205621AC0
S31808000357604FF46053C4F202034FF46052C4F202029268CB
S3180800036A22F003029A604FF46053C4F202034FF46052C4F7
S3180800037DF20202926842F002029A6000BF4FF46053C4F2D4
S3180800039002039B6803F00C03082BF6D107F10C07BD4680BA
S318080003A3BC704700BF80B483B000AF40F21C53C0F6000397
S318080003B67B6040F21803C2F200033B600BE07B681A683B21
S318080003C9681A603B6803F104033B607B6803F104037B603F
S318080003DC3A6840F23403C2F200039A42ECD307F10C07BDDB
S318080003EF4680BC704780B400AFBD4680BC704700BF80B4E8
S3180800040200AFFEE700BF80B400AFFEE700BF80B400AFFE1E
S31808000415E700BF80B400AFFEE700BF80B400AFBD4680BC77
S31808000428704700BF80B400AFBD4680BC704700BF80B40071
S3180800043BAFBD4680BC704700BF80B400AF40F21403C2F25C
S3180800044E00031B6803F1010240F21403C2F200031A60BDD9
S318080004614680BC704700BF80B582B000AF00237B607B688B
S3180800047401337B603B1D184600F03CF8F7E700BF080500D4
S31808000487080000002014000020140000201800002000216B
S3180800049A00F004B80F4B5B58435004310E480E4B42189A1D
S318080004AD42FFF4F6AF0D4A00F003B8002342F8043B0B4B60
S318080004C09A42FFF4F9AF0A48016841F470010160FFF75A92
S318080004D3FEFFF7C8FF704700DF080500080000002014006E
S318080004E60020140000201800002088ED00E0FFF7FEBF0160
S314080004F9B40248844601BC604700BF19000020C2
S31808000508007A030A0000000000000000010203040607082C
S3060800051B09C8
S3180800051C80B483B000AF78607B681B685A1C7B681A600C8B
S30E0800052F37BD465DF8047B7047F0
S7050800046985
