S00F00006F75742F6D61696E2E733139B9
S3180800000000000220F1170008E1030008ED030008F50300D1
S3180800001308FD0300080504000800000000000000000000AB
S318080000260000000000000D04000819040008000000002556
S31808000039040008310400084518000845180008451800082E
S3180800004C45180008451800084518000845180008451800A2
S3180800005F0845180008451800084518000845180008451887
S31808000072000845180008451800084518000845180008458C
S3180800008518000845180008451800084518000845180008A6
S318080000984518000845180008451800084518000845180056
S318080000AB084518000845180008451800084518000845183B
S318080000BE0008451800084518000845180008451800084540
S318080000D1180008451800084518000845180008451800085A
S318080000E4451800084518000845180008451800084518000A
S318080000F708451800084518000845180008451800084518EF
S3180800010A00084518000845180008451800084518000845F3
S3180800011D180008451800084518000845180008451800080D
S3180800013045180008451800084518000845180008451800BD
S3180800014308451800084518000845180008451800084518A2
S3180800015600084518000845180008451800084518000845A7
S3180800016918000845180008451800084518000845180008C1
S3180800017C451800084518000845180008044B05481B1A065C
S3180800018F2B02D9044B03B11847704700BFDF080020DC0886
S318080001A200200000000005490648091A891001EBD171494D
S318080001B51002D0034B03B118477047DC080020DC08002027
S318080001C80000000010B5064C237843B9FFF7D8FF044B1339
S318080001DBB10448AFF300800123237010BDE0080020000058
S318080001EE00000066000808B5084B1BB108480849AFF30063
S31808000201800848036813B9BDE80840CCE7064B002BF9D0F0
S318080002149847F7E70000000000660008E4080020D80800B2
S318080002272000000000134B002B08BF114B9D46A3F5803AB5
S3180800023A00218B460F461148124A121A01F053FB0D4B00E4
S3180800024D2B00D098470C4B002B00D0984700200021040040
S318080002600D000B4801F0F0FA01F01AFB2000290000F0EC17
S31808000273F801F0EEFA000008000000000000000000000091
S318080002860000E00800204C0900207518000880B500AF1150
S318080002994A114B1B6843F0010313600E4B00229A600D4AA5
S318080002AC0C4B1B6823F0847323F480331360094B094A5A0F
S318080002BF60074A074B1B6823F480231360044B0022DA60C0
S318080002D200F00BF8044B4FF000629A6080BD003802401067
S318080002E530002400ED00E080B483B000AF00237B600023A0
S318080002F83B60354A344B1B6843F480331360324B1B680369
S3180800030BF400333B607B6801337B603B68002B03D17B6898
S3180800031EB3F5A06FF0D12A4B1B6803F40033002B02D00126
S31808000331233B6001E000233B603B68012B42D1234A234B91
S318080003441B6C43F080531364214A214B1B6843F48043132D
S31808000357601D4A1D4B9B6893601B4A1B4B9B6843F4004318
S3180800036A9360184A184B9B6843F4A0539360154B174A5A7F
S3180800037D60144A134B1B6843F08073136000BF104B1B688A
S3180800039003F00073002BF9D0104B40F205621A600B4A0B24
S318080003A34B9B6823F003039360084A084B9B6843F00203FF
S318080003B6936000BF054B9B6803F00C03082BF9D10C37BD22
S318080003C9465DF8047B704700380240007000400854400775
S318080003DC003C024080B400AFBD465DF8047B704780B400DD
S318080003EFAFFEE700BF80B400AFFEE700BF80B400AFFEE74B
S3180800040200BF80B400AFFEE700BF80B400AFBD465DF80454
S318080004157B704780B400AFBD465DF8047B704780B400AF40
S31808000428BD465DF8047B704780B400AF044B1B6801330339
S3180800043B4A1360BD465DF8047B704700BF4409002080B5F4
S3180800044E84B000AF234A224B1B6B43F008031363214A200B
S318080004614B1B6843F0804313601E4A1D4B1B6843F08053EA
S3180800047413601B4A1A4B1B6843F080631360184A174B1B3F
S318080004876843F080731360164BFB60F86801F0C2FA034641
S3180800049A01333A461046F9681A4600F044F83B4618460F5C
S318080004AD49FA6801F08EFA0E4B1B78002B07D00C4B0022A3
S318080004C01A70084B4FF6FF721A8306E0084B01221A700401
S318080004D34B4FF6FF725A8300F00BF8D6E700380240000CF4
S318080004E602400C64000814640008FC08002080B483B00030
S318080004F9AF00237B6002E07B6801337B607B68034A93425C
S3180800050CF8D90C37BD465DF8047B7047FFD330007C660048
S3180800051F0800000020D0080020E00800204C090020844654
S3180800053241EA000313F003036DD1403A41D351F8043B40DD
S31808000545F8043B51F8043B40F8043B51F8043B40F8043B60
S3180800055851F8043B40F8043B51F8043B40F8043B51F80437
S3180800056B3B40F8043B51F8043B40F8043B51F8043B40F8FE
S3180800057E043B51F8043B40F8043B51F8043B40F8043B51CE
S31808000591F8043B40F8043B51F8043B40F8043B51F8043B14
S318080005A440F8043B51F8043B40F8043B51F8043B40F804FC
S318080005B73B51F8043B40F8043B403ABDD2303211D351F851
S318080005CA043B40F8043B51F8043B40F8043B51F8043B4093
S318080005DDF8043B51F8043B40F8043B103AEDD20C3205D3A8
S318080005F051F8043B40F8043B043AF9D2043208D0D2071CDF
S31808000603BF11F8013B00F8013B01D30B8803806046704757
S3180800061600BF082A13D38B078DD010F003038AD0C3F104E5
S3180800062903D21ADB071CBF11F8013B00F8013B80D331F80F
S3180800063C023B20F8023B7BE7043AD9D3013A11F8013B003F
S3180800064FF8013BF9D20B7803704B7843708B788370604683
S3180800066270470000000000000000000000000000000000C0
S318080006750000000000000000000000A2EB0300704700BF5E
S3180800068802780B78012A28BF9A42F5D16DE9044540EA01D6
S3180800069B04CDE902676FF0000C4FEA447212B380EA01048D
S318080006AE14F0070F6AD100F0070420F0070004F0030521A7
S318080006C1F007014FEAC505F0E8042314F0040FF1E80467C3
S318080006D40CFA05F462EA040266EA04060AD063EA040362CA
S318080006E74667EA0407664603E0F0E80423F1E8046782FA02
S318080006FA4CF582EA0604A4FA8CF46CBB83FA4CF583EA07B1
S3180800070D05A5FA8CF595B950E9022351E9026782FA4CF59A
S3180800072082EA0604A4FA8CF483FA4CF583EA0705A5FA8CC2
S31808000733F52543DBD09CB92DBAB5FA85F424F0070427FAF9
S3180800074604F1DDE9026723FA04F303F0FF0001F0FF01FD7A
S31808000759E80445A0EB0100704724BAB4FA84F424F00704E8
S3180800076C26FA04F1DDE9026722FA04F202F0FF0001F0FF35
S3180800077F01FDE80445A0EB0100704714F0030F3CD110F0C4
S31808000792030428D150F8082B51F8083B82FA4CF582EA0313
S318080007A505A5FA8CF55DB950F8042C51F8043C82FA4CF53A
S318080007B882EA0305A5FA8CF5002DE8D02DBAB5FA85F42474
S318080007CBF0070423FA04F122FA04F202F0FF0001F0FF010C
S318080007DEFDE80445A0EB010070474FEAC40420F003005025
S318080007F1F8082B21F0030151F8083B0CFA04F462EA0402CB
S3180800080463EA0403C9E710F003041AD0A1EB040120F0033A
S3180800081700E40750F8042B06D00FD28B785FFAA2F4E41AB7
S3180800082A06D12BB1CB785FFAB2F4E41A00D11BB920465D52
S3180800083DF8104B704701F1040150F8042BCC0721F003013A
S3180800085051F8043B48D824D222F07F4482FA4CF594EA13C6
S3180800086325A5FA8CF50AD165B951F8043B84EA0204B4EB9B
S31808000876036F0ED150F8042BEBE74FEA132355E035F07F7F
S31808000889454DD10878FDE80445C0F1000070474FEA126228
S3180800089C03F0FF0347E002EA1C4482FA4CF594EA1345A59B
S318080008AFFA8CF50AD165B951F8043B84EA0204B4EB034FC7
S318080008C20CD150F8042BEBE74FEA134330E015EA1C4528C8
S318080008D5D10B884FEA124229E04FEA124203EA1C4324E02B
S318080008E802F0FF0482FA4CF594EA1365A5FA8CF50AD165E7
S318080008FBB951F8043B84EA0204B4EB032F09D150F8042B05
S3180800090EEBE74FEA13630DE015F0FF0F05D10B684FEA12B3
S318080009212223F07F4304E04FF00000FDE80445704712BAEA
S318080009341BBA82FA4CF482EA0304A4FA8CF5B5FA85F40255
S31808000947FA04F203FA04F34FEA1260FDE80445A0EB1360D4
S3180800095A7047AFF3008081F0004102E000BF83F00043306A
S3180800096DB54FEA41044FEA430594EA050F08BF90EA020FD1
S318080009801FBF54EA000C55EA020C7FEA645C7FEA655C008E
S31808000993F0E2804FEA5454D4EB5555B8BF6D420CDD2C4428
S318080009A680EA020281EA030382EA000083EA010180EA020A
S318080009B90281EA0303362D88BF30BD11F0004F4FEA013158
S318080009CC4FF4801C4CEA113102D0404261EB410113F000CE
S318080009DF4F4FEA03334CEA133302D0524263EB430394EA45
S318080009F2050F00F0A780A4F10104D5F1200E0DDB02FA0E39
S31808000A05FC22FA05F2801841F1000103FA0EF2801843FA24
S31808000A1805F359410EE0A5F120050EF1200E012A03FA0E1F
S31808000A2BFC28BF4CF0020C43FA05F3C01851EBE37101F0EF
S31808000A3E004507D54FF0000EDCF1000C7EEB00006EEB018D
S31808000A5101B1F5801F1BD3B1F5001F0CD349085FEA3000E2
S31808000A644FEA3C0C04F101044FEA445212F5800F80F09A87
S31808000A7780BCF1004F08BF5FEA500C50F1000041EB0451B4
S31808000A8A41EA050130BD5FEA4C0C404141EB010111F48058
S31808000A9D1FA4F10104E9D191F0000F04BF01460020B1FA60
S31808000AB081F308BF2033A3F10B03B3F120020CDA0C320803
S31808000AC3DD02F1140CC2F10C0201FA0CF021FA02F10CE070
S31808000AD602F11402D8BFC2F1200C01FA02F120FA0CFCDC94
S31808000AE9BF41EA0C019040E41AA2BF01EB0451294330BD2C
S31808000AFC6FEA04041F3C1CDA0C340EDC04F11404C4F1201B
S31808000B0F0220FA04F001FA02F340EA030021FA04F345EA57
S31808000B22030130BDC4F10C04C4F1200220FA02F001FA041A
S31808000B35F340EA0300294630BD21FA04F0294630BD94F034
S31808000B48000F83F4801306BF81F480110134013D4EE77F81
S31808000B5BEA645C18BF7FEA655C29D094EA050F08BF90EA02
S31808000B6E020F05D054EA000C04BF1946104630BD91EA0353
S31808000B810F1EBF0021002030BD5FEA545C05D140004941A0
S31808000B9428BF41F0004130BD14F580043CBF01F5801130BB
S31808000BA7BD01F0004545F0FE4141F470014FF0000030BDF4
S31808000BBA7FEA645C1ABF194610467FEA655C1CBF0B46020B
S31808000BCD4650EA013406BF52EA033591EA030F41F4002136
S31808000BE030BD00BF90F0000F04BF0021704730B54FF48076
S31808000BF36404F132044FF000054FF0000150E700BF90F058
S31808000C06000F04BF0021704730B54FF4806404F1320410DC
S31808000C19F0004548BF40424FF000013EE700BF42004FEA5D
S31808000C2CE2014FEA31014FEA02701FBF12F07F4393F07F0A
S31808000C3F4F81F06051704792F0000F14BF93F07F4F704700
S31808000C5230B54FF4607401F0004521F0004120E700BF50E7
S31808000C65EA010208BF704730B54FF000050AE050EA0102B3
S31808000C7808BF704730B511F0004502D5404261EB41014F7C
S31808000C8BF4806404F132045FEA915C3FF4DCAE4FF003020E
S31808000C9E5FEADC0C18BF03325FEADC0C18BF033202EBDCF2
S31808000CB102C2F1200300FA03FC20FA02F001FA03FE40EA1F
S31808000CC40E0021FA02F11444C1E600BF70B54FF0FF0C4C7A
S31808000CD7F4E06C1CEA11541DBF1CEA135594EA0C0F95EAEF
S31808000CEA0C0F00F0DEF82C4481EA030621EA4C5123EA4C23
S31808000CFD5350EA013518BF52EA033541F4801143F4801338
S31808000D1038D0A0FB02CE4FF00005E1FB02E506F00042E030
S31808000D23FB03E54FF00006E1FB03569CF0000F18BF4EF0A2
S31808000D36010EA4F1FF04B6F5007F64F5407404D25FEA4E51
S31808000D490E6D4146EB060642EAC62141EA55514FEAC5208E
S31808000D5C40EA5E504FEACE2EB4F1FD0C88BFBCF5E06F1E56
S31808000D6FD8BEF1004F08BF5FEA500E50F1000041EB04515D
S31808000D8270BD06F0004646EA010140EA020081EA0301B466
S31808000D95EB5C04C2BFD4EB0C0541EA045170BD41F480112E
S31808000DA84FF0000E013C00F3AB8014F1360FDEBF0020017A
S31808000DBBF0004170BDC4F10004203C35DA0C341BDC04F169
S31808000DCE1404C4F1200500FA05F320FA04F001FA05F240E0
S31808000DE1EA020001F0004221F0004110EBD37021FA04F62D
S31808000DF442EB06015EEA430E08BF20EAD37070BDC4F10C0F
S31808000E0704C4F1200500FA04F320FA05F001FA04F240EAD1
S31808000E1A020001F0004110EBD37041F100015EEA430E0871
S31808000E2DBF20EAD37070BDC4F1200500FA05F24EEA020E58
S31808000E4020FA04F301FA05F243EA020321FA04F001F0005C
S31808000E534121FA04F220EA020000EBD3705EEA430E08BF92
S31808000E6620EAD37070BD94F0000F0FD101F00046400041C6
S31808000E79EB010111F4801F08BF013CF7D041EA060195F045
S31808000E8C000F18BF704703F00046520043EB030313F48062
S31808000E9F1F08BF013DF7D043EA0603704794EA0C0F0CEACB
S31808000EB2135518BF95EA0C0F0CD050EA410618BF52EA4393
S31808000EC506D1D181EA030101F000414FF0000070BD50EA1D
S31808000ED8410606BF1046194652EA430619D094EA0C0F022F
S31808000EEBD150EA013613D195EA0C0F05D152EA03361CBF00
S31808000EFE104619460AD181EA030101F0004141F0FE4141F1
S31808000F11F470014FF0000070BD41F0FE4141F4780170BDA3
S31808000F2470B54FF0FF0C4CF4E06C1CEA11541DBF1CEA1351
S31808000F375594EA0C0F95EA0C0F00F0A7F8A4EB050481EA7F
S31808000F4A030E52EA03354FEA013100F088804FEA03334FE0
S31808000F5DF0805545EA131343EA12634FEA022245EA111505
S31808000F7045EA10654FEA00260EF000419D4208BF9642445C
S31808000F83F1FD0404F5407402D25B084FEA3202B61A65EBEA
S31808000F9603055B084FEA32024FF480104FF4002CB6EB027D
S31808000FA90E75EB030E22BFB61A754640EA0C005B084FEA6A
S31808000FBC3202B6EB020E75EB030E22BFB61A754640EA5CCC
S31808000FCF005B084FEA3202B6EB020E75EB030E22BFB61A5E
S31808000FE2754640EA9C005B084FEA3202B6EB020E75EB0389
S31808000FF50E22BFB61A754640EADC0055EA060E18D04FEAE7
S31808001008051545EA16754FEA06164FEAC30343EA52734F5E
S3180800101BEAC2025FEA1C1CC0D111F4801F0BD141EA000148
S3180800102E4FF000004FF0004CB6E711F4801F04BF0143008F
S3180800104120B4F1FD0C88BFBCF5E06F3FF6AFAEB5EB030C38
S3180800105404BFB6EB020C5FEA500C50F1000041EB04517032
S31808001067BD0EF0004E4EEA113114EB5C04C2BFD4EB0C0535
S3180800107A41EA045170BD41F480114FF0000E013C90E6459D
S3180800108DEA060E8DE60CEA135594EA0C0F08BF95EA0C0F79
S318080010A03FF43BAF94EA0C0F0AD150EA01347FF434AF9544
S318080010B3EA0C0F7FF425AF104619462CE795EA0C0F06D197
S318080010C652EA03353FF4FDAE1046194622E750EA41061860
S318080010D9BF52EA43067FF4C5AE50EA41047FF40DAF52EAE2
S318080010EC43057FF4EBAE12E74FF0FF3C06E000BF4FF00137
S318080010FF0C02E000BF4FF0010C4DF804CD4FEA410C7FEAD2
S318080011126C5C4FEA430C18BF7FEA6C5C1BD001B050EA414D
S318080011250C0CBF52EA430C91EA030F02BF90EA020F00204E
S31808001138704710F1000F91EA030F58BF994208BF90422C8B
S3180800114BBFD8176FEAE37040F0010070474FEA410C7FEA52
S3180800115E6C5C02D150EA013C07D14FEA430C7FEA6C5CD6F7
S31808001171D152EA033CD3D05DF8040B704700BF8446104674
S3180800118462468C461946634600E000BF01B5FFF7B7FF00C7
S318080011972848BF10F1000F01BD4DF808EDFFF7F4FF0CBF4C
S318080011AA012000205DF808FB00BF4DF808EDFFF7EAFF347F
S318080011BDBF012000205DF808FB00BF4DF808EDFFF7E0FFEB
S318080011D094BF012000205DF808FB00BF4DF808EDFFF7CE55
S318080011E3FF94BF012000205DF808FB00BF4DF808EDFFF711
S318080011F6C4FF34BF012000205DF808FB00BF4FEA4102123C
S31808001209F5001215D211D56FF47873B3EB625212D94FEA2C
S3180800121CC12343F0004343EA505311F0004F23FA02F01810
S3180800122FBF404270474FF00000704750EA013005D111F06E
S31808001242004008BF6FF0004070474FF00000704700BF5326
S31808001255B94AB9002908BF00281CBF4FF0FF314FF0FF30EC
S3180800126800F03CB882B0EC462DE9005000F01EF8DDF804D8
S3180800127BE002B00CBC704700BF2DE9F041069C15460646F2
S3180800128E0F46984600F029F805FB01F300FB0838A5FB002C
S318080012A123B21A434467EB0303C4E90023BDE8F08100BFB9
S318080012B42DE9F041069C904606460F461D4600F05FF9000E
S318080012C7FB05F5A0FB082308FB0155B21A2B4467EB03035F
S318080012DAC4E90023BDE8F08100BF704700BF00292DE9F0A9
S318080012ED43C0F2A6800026002BC0F29C80884694469E461A
S31808001300154604460F46002B3DD18A4259D9B2FA82F33B3F
S31808001313B1C3F120029F4020FA02F29D4017439C40290CFD
S31808001326220CB7FBF1FEA8B201FB1E7742EA074700FB0E69
S31808001339F3BB420AD97F190EF1FF3280F00581BB4240F2D3
S3180800134C0281AEF1020E2F44FF1AA4B2B7FBF1F301FB13C7
S3180800135F7744EA074700FB03F0B84208D97F1903F1FF32F4
S3180800137280F0F080B84240F2ED80023B43EA0E4300220301
S31808001385E08B420FD900221346341C18BF012460424FF00A
S31808001398000565EB45015840514000196941BDE8F083B3E2
S318080013ABFA83F2002A40F086808B4202D3844500F2DB809A
S318080013BE0123E5E712B90123B3FBF2F5B5FA85F000283B13
S318080013D1D1781B4FEA154E1FFA85FC0122B0FBFEF8210C70
S318080013E40EFB180741EA07470CFB08F3BB4207D97F1908C8
S318080013F7F1FF3102D2BB4200F2BD808846FF1AA4B2B7FBC5
S3180800140AFEF30EFB137744EA07470CFB03FCBC4507D97F5B
S3180800141D1903F1FF3102D2BC4500F2A7800B4643EA0843BA
S31808001430ADE752426FEA060663EB43035DE7404261EB4127
S31808001443014FF0FF3654E7C0F1200224FA02F107FA00F300
S3180800145685404FEA154ED7401943B7FBFEF20B0C0EFB12CD
S31808001469771FFA85FC43EA07430CFB02F79F4204FA00F407
S3180800147C07D95B1902F1FF3074D29F4272D9023A2B44DFDD
S3180800148F1B89B2B7FBFEF80EFB187341EA03430CFB08F733
S318080014A29F4208D95B1908F1FF315CD29F425AD9A8F102ED
S318080014B5082B44D81B48EA02428EE7C2F120032CFA03F1D1
S318080014C80EFA02FE20FA03F741EA0E0E08FA02F028FA0387
S318080014DBF14FEA1E453843B1FBF5F8030C05FB18111FFAFE
S318080014EE8EF743EA014107FB08F38B420CFA02FC09D91128
S31808001501EB0E0108F1FF3930D28B422ED9A8F10208714470
S31808001514C91A80B2B1FBF5F305FB131140EA014107FB0378
S31808001527F78F4208D911EB0E0103F1FF3016D28F4214D926
S3180800153A023B714443EA0843C91BA3FB0C89494509D305A0
S3180800154DD000221DE79646FEE6134611E794404445F6D251
S31808001560013BF4E70346EAE78846A5E7C846D1E702468C45
S31808001573E713460AE7023B57E7A8F102082F443FE72DE959
S31808001586F041002B44D18A42154604464FD9B2FA82F70E07
S31808001599464FB1C7F12003B94020FA03F602FA07F50E43BB
S318080015AC00FA07F44FEA154E230CB6FBFEF0AFB20EFB1045
S318080015BF6143EA014307FB00F1994209D95B1900F1FF32F3
S318080015D280F0EC80994240F2E98002382B445A1AA4B2B281
S318080015E5FBFEF30EFB132244EA024207FB03F7974208D993
S318080015F8521903F1FF3180F0D880974240F2D580023B439B
S3180800160BEA004000263146BDE8F0818B4247D8B3FA83F6CF
S3180800161E002E48D18B4202D3824200F2CD8001203146BD6A
S31808001631E8F08112B90125B5FBF2F5B5FA85F8B8F1000FD3
S3180800164477D14A1B4FEA154EAFB20126B2FBFEF0230C0EDC
S31808001657FB102143EA014107FB00F38B4207D9491900F1E2
S3180800166AFF3202D28B4200F2BA801046C91AA4B2B1FBFE28
S3180800167DF30EFB131144EA014407FB03F7A74208D9641976
S3180800169003F1FF3280F08F80A74240F28C80023B43EA0004
S318080016A3403146BDE8F081002630463146BDE8F081C6F179
S318080016B6200422FA04F5B3402B4320FA04FC01FA06F72146
S318080016C9FA04F54FEA134E4CEA0707B5FBFEF8390C0EFB3B
S318080016DC18551FFA83FC41EA05450CFB08F1A94202FA0686
S318080016EFF204D9ED1808F1FF3467D3A0466D1ABFB2B5FB12
S31808001702FEF40EFB145547EA05410CFB04FC8C4504D9C96D
S318080017151804F1FF355CD32C4644EA0844CCEB0101A4FBFF
S318080017280223994248D344D0204600266CE7C8F1200401B4
S3180800173BFA08F305FA08F520FA04F7E1404FEA154E1F4368
S3180800174EB1FBFEF63A0C0EFB16111FFA85FC42EA01430C4E
S31808001761FB06F29A4200FA08F407D95B1906F1FF3137D21E
S318080017749A4235D9023E2B449B1ABFB2B3FBFEF00EFB10E0
S318080017873347EA03430CFB00F1994207D95B1900F1FF324E
S3180800179A21D299421FD902382B445A1A40EA0646674650D8
S318080017ADE7104616E70B4629E7134672E7B0409042B7D283
S318080017C0601E002624E7304622E7A94295D9A8F102081DC1
S318080017D34492E78C45A0D9023C19449EE71046DFE70E465E
S318080017E6C9E70238294443E700BF002103E00D4B5B584350
S318080017F95004310C480D4B42189A42F6D30C4A02E0002344
S3180800180C42F8043B0A4B9A42F9D30A48016841F4700101E3
S3180800181F60FEF738FDFEF712FE704700DF7C660008000099
S318080018320020D0080020E00800204C09002088ED00E0FEAD
S31808001845E70000014600200246034601F07ABB08B500219F
S31808001858044601F0D1FB044B1868C36B03B198472046046E
S3180800186BF0CDFD00BF1C64000838B5084B084DED1AAC1003
S3180800187E18BFED1805D0013C55F8043D9847002CF9D1BD3B
S31808001891E8384004F0AEBE000000000000000070B50F4EF4
S318080018A40F4D761BB61018BF002405D0013455F8043B9847
S318080018B747A642F9D10A4E0B4D761B04F091FEB61018BFB6
S318080018CA002406D0013455F8043B9847A642F9D170BD7014
S318080018DDBD00BF000000000000000000000000000000006E
S318080018F070B4840746D0541E002A41D0CDB2034602E06259
S318080019031EE4B3144603F8015B9A07F8D1032C2ED9CDB23E
S3180800191645EA05250F2C45EA054519D903F110022646102F
S318080019293E0F2E42F8105C42F80C5C42F8085C42F8045CA2
S3180800193C02F11002F2D8A4F1100222F00F0204F00F0410DA
S3180800194F32032C13440DD91E462246043A032A46F8045B05
S31808001962FAD8221F22F003020432134404F003042CB1C90C
S31808001975B21C4403F8011BA342FBD170BC704714460346F1
S31808001988C2E700BF0CB4F0B59DB022AC0E4654F8042B0285
S3180800199B9123464FF4027E6FF000454FF6FF7702A90696C8
S318080019AE0194ADF814E004950795ADF8167000F05CF80244
S318080019C19B00221A701DB0BDE8F04002B070470EB4F0B54C
S318080019D49CB021AB0F4953F8042B019305466FF00044087E
S318080019E76802954FF402774FF6FF7602A90695ADF81470FB
S318080019FA04940794ADF8166000F039F8029B00221A701CF8
S31808001A0DB0BDE8F04003B0704700BF4004002020F0030192
S31808001A2010F00300C0F1000051F8043B00F1040C4FEACC63
S31808001A330C6FF000021CBF22FA0CF213434FF0010C4CEA58
S31808001A460C2C4CEA0C4CA3EB0C0222EA030212EACC12042E
S31808001A59BF51F8043B0430F4D0C2F1000102EA0102B2FADE
S31808001A6C82F2C2F11F0200EBD20070472DE9F04FBFB08950
S31808001A7F4606920A93049002F041FB036813931846FFF7A4
S31808001A92C4FFB9F80C3014901A0604D5D9F81030002B01A9
S31808001AA5F0A1809FED997B8DED107B00232EAF0F93239312
S31808001AB8229312931593079321973C464E46069D2B78005D
S31808001ACB2B00F0A980252B02D1A5E0252B03D015F8013F9E
S31808001ADE002BF9D1069BEB1A73B1229A2399069820600191
S31808001AF1321944072A63602391229272DC0834079A1A4460
S31808001B0407922B78002B00F0CB870023691C6D788DF8679E
S31808001B17301A46089303934FF0FF3A4B1CA5F120015829D5
S31808001B2A00F2E483DFE811F07702E203E2037B03E203E2F1
S31808001B3D03E203E203E203E203F7021402E203FB011802E6
S31808001B50E2038203C102C102C102C102C102C102C102C1F4
S31808001B6302C102E203E203E203E203E203E203E203E20374
S31808001B76E203E203D0029103E2039103E203E203E203E214
S31808001B89037403E203E2030C03E203E203E203E203E2036F
S31808001B9C2A03E203E2034403E203E203E203E203E203E28F
S31808001BAF03E203E203E203E2035F0333029103910391032B
S31808001BC205033302E203E203ED02E20385020202CB037E50
S31808001BD502E2039902E2037A00E203E203510204980393BF
S31808001BE8314621AA03F02AFA50B93C46039B83E704983123
S31808001BFB4621AA03F021FA002800F08C81B146B9F80C30A1
S31808001C0E13F0400F079B18BF4FF0FF3318463FB0BDE8F097
S31808001C218F069D6FE70693039B980640F1B4820A9B03F145
S31808001C34070929F0070303F10802D3E900890A9201234F0A
S31808001C47F0000C8DF867C0CDF834A0BAF1000F03DB039A06
S31808001C5A22F08002039258EA090240F05783BAF1000F002F
S31808001C6DF05C84012B00F05A83022B00F09A8439464FEA9A
S31808001C80D80242EA49724FEAD90008F007038146904630A1
S31808001C933358EA090201F8013DEFD1039A0C91D20700F1B5
S31808001CA66E857B1A0993099A92455346B8BF13460593007E
S31808001CB9230E93BCF1000F02D0059B01330593039B13F0AB
S31808001CCC02030B9302D0059B02330593039B13F0840940A7
S31808001CDFF01783089B059AC2EB0308B8F1000F40F30F83E3
S31808001CF2B8F1100F2399229ADFF81CA030DD53464FF01009
S31808001D050BC246A8461D460DE000BF0000000000000000AD
S31808001D1830640008AAF1100ABAF1100F04F1080417DD0199
S31808001D2B321031072A2391229284E82008F0DD0498314617
S31808001D3E21AA03F080F900287FF45FAFAAF1100ABAF11034
S31808001D510F2399229A3C46E7DC2B464546D0469A46013280
S31808001D6408EB010B072ACDF88CB02292C4F800A0C4F8045D
S31808001D778000F37E849DF867C00834BCF1000F0FD0229B86
S31808001D8A01330BF1010B0DF167010122072BCDF88CB0221E
S31808001D9D9384E8060000F3EA8308340B9B73B1229B0133C9
S31808001DB00BF1020B1AA90222072BCDF88CB0229384E806C8
S31808001DC30000F3CD830834B9F1800F00F015830D9B099A74
S31808001DD6C2EB030ABAF1000F3CDDBAF1100F229ADFF8649E
S31808001DE9942BDD49465B46A9464FF01008DDF810B00D46DF
S31808001DFC06E0AAF1100ABAF1100F04F1080417DD01321029
S31808001E0F33072A2393229284E82001F0DD5846314621AAAA
S31808001E2203F00FF900287FF4EEAEAAF1100ABAF1100F23CB
S31808001E359B229A3C46E7DC9B462B464D4699460132D344E2
S31808001E48072ACDF88CB0229284E8000600F37983083403F3
S31808001E5B9BD90500F17082229B09990C9A226001338B4480
S31808001E6E072BCDF88CB06160229300F34A830834039B5AB6
S31808001E810741D5089B059A9D1A002D3CDD102D229BDFF813
S31808001E94BCA323DD4FF010085A46DDF8109004E0103D1021
S31808001EA72D04F1080417DD01331032072B23922293C4F82A
S31808001EBA00A0C4F80480F0DD4846314621AA03F0BCF800E3
S31808001ECD287FF49BAE103D102D239A229B3C46E7DC9346EE
S31808001EE00133AB44072BCDF88CB02293C4F800A0656009AC
S31808001EF3DD0498314621AA03F0A3F800287FF482AEDDF8E5
S31808001F068CB0079B059A08998A42ACBF9B185B180793BBEA
S31808001F19F1000F7FF46CAE002322933C46CEE51946039813
S31808001F2C1D7840F004000390F5E50693039B13F020030001
S31808001F3FF00E810A9B03F1070929F0070303F10802D3E97C
S31808001F5200890A92002375E61D7819462B22DFE51D782A07
S31808001F652D03F1010100F0B887A5F1300009280B464FF082
S31808001F78000A3FF6D3AD13F8015B0AEB8A0A00EB4A0AA5B5
S31808001F8BF130000928F5D94AEAEA7AC5E50693039B8DF817
S31808001F9E67209B0640F1A1800A9B03F1070929F00709D9FD
S31808001FB1E9002309F108010A9190469946002A73F100031F
S31808001FC4C0F20E849DF867C0CDF834A001233EE606939BE7
S31808001FD74B1293039B8DF867209B0640F1F3800A9B03F171
S31808001FEA070929F00703D3E9008903F108020A92039BD94D
S31808001FFD0740F1F58058EA090300F0F180039A8DF869508C
S31808002010302342F002028DF868300392022312E61D7819A9
S3180800202346002A7FF47CAD202279E5039941F0200103916E
S318080020361D78194672E50693039B8DF867209A0640F1B07A
S318080020498407990A9A4FEAE17913680846884604324946BF
S3180800205C0A92C3E9000130E50A9A069313680C934FF0006F
S3180800206F0B8DF867B002F10409002B00F04686BAF1000F08
S318080020820C98C0F2F6855946524602F0E0FA002800F077DA
S31808002095860C9BCDF834B0C31A0993CDF8289023EAE373FB
S318080020A80593CDF838B09DF867C003E6A5F1300000211333
S318080020BBF8015B01EB810100EB4101A5F130000928F5D950
S318080020CE089128E50693039B8DF8672043F0100303930329
S318080020E19B9B063FF55FAF039BD80600F16B83039B590608
S318080020F440F167830A99B1F9008004314FEAE87942464B41
S31808002107460A9158E71D7803996C2D00F0D38441F0100144
S3180800211A0391194600E50A9D296808910846002829460115
S3180800212DF10401C0F2CB840A911D781946F2E4039941F068
S31808002140400103911D781946EBE40693039B43F010030366
S3180800215393039B13F020037FF4F2AE039A12F0100240F020
S318080021661C83039B13F0400300F017830A9913460A4604FB
S3180800217932B1F800800A924FF000095FE50693039B43F058
S3180800218C10030393039B98063FF54CAD039BD90600F109A9
S3180800219F83039B5A0640F105830A9AB2F8008004324FF0A2
S318080021B2000901230A9245E50693224B1293039B8DF867E4
S318080021C5209B063FF50DAF039BD80640F1DC830A9A13463F
S318080021D81B689846039B0432D9070A924FF000093FF50BAE
S318080021EBAF02232AE50A9906930A688DF8902000230122C7
S318080021FE04319C4605920A918DF8673024ABCDF834C0CD06
S31808002211F838C009920C9356E5039941F0080103911D7848
S3180800222419467CE4039941F0010103911D78194675E40327
S318080022379941F0800103911D7819466EE4646400085064DD
S3180800224A000820640008306400080693039B8DF8672013ED
S3180800225DF0080F0A9BD34603F1070900F0868329F007037B
S3180800227093ED007B8DED107B03F108020A929DED100B020C
S31808002283F09FFE012840F05A83DDE9100100220023FEF766
S318080022968EFF002840F06B859DF867C0039BBD4ADFF8001A
S318080022A9E323F080030393134603210020472DD8BF7346A4
S318080022BC05910D900C9309910E90F9E40A98039906933013
S318080022CF2203688DF868200246782541F002010432984627
S318080022E2AF4B129303910A924FF000098DF869500223A7BA
S318080022F5E406938DF86720002D00F0D183002301229C46A6
S3180800230805928DF890507AE7DDF88CB035E5012B7FF4ADE0
S3180800231BACB9F1000F08BFB8F10A0F80F00D820DF1F80BB3
S3180800232E08F130080BF8418DCBEB07030993CDF830B0B4D7
S31808002341E4652D40F3A080DDE9100100220023FEF726FF7C
S31808002354002800F04481229B914A226001330BF1010B0134
S3180800236722072BCDF88CB02293626000F33F8308341B9BE2
S3180800237A0F9A934203DB039BDA077FF57BAD229B1499134E
S3180800238D9A226001338B44072BCDF88CB06160229300F374
S318080023A09B8308340F9B5D1E002D7FF768AD102D229BDF0C
S318080023B3F8F89140F3B9814FF010085A46DDF810A004E0BB
S318080023C60834103D102D40F3AD8101331032072B23922250
S318080023D993C4F80090C4F80480F0DD5046314621AA02F02D
S318080023EC2BFE00287FF40AAC239A229B3C46E5E7089B05E6
S318080023FF9AC2EB030ABAF1000F7FF7E3ACBAF1100F229A24
S31808002412DFF898912BDD49465B46A9464FF01008DDF81046
S31808002425B00D4606E0AAF1100ABAF1100F04F1080417DD39
S3180800243801321033072A2393229284E82001F0DD58463149
S3180800244B4621AA02F0F9FD00287FF4D8ABAAF1100ABAF1F9
S3180800245E100F239B229A3C46E7DC9B462B464D46994601BA
S3180800247132D344072ACDF88CB0229284E8000600F35182E3
S318080024840834A4E40F9B229D012B40F31F820C9B236001DF
S31808002497350BF101030122072D23932295626000F32582CF
S318080024AA083414996160013503EB010B072D139BCDF88C04
S318080024BDB02295236000F3238208340023DDE91001002224
S318080024D0FEF766FE0F9B002840F0DD800C9A013B0135011A
S318080024E3329B44072D2295CDF88CB02260636000F30D8115
S318080024F60834159A6260013593441DAB072DCDF88CB022EC
S318080025099523607FF7B6AC0498314621AA02F095FD002837
S3180800251C7FF474ABDDF88CB03C46AAE4002B32D1039BD847
S3180800252F072FD50DF1F80B30230BF8413DCBEB070309934F
S31808002542CDF830B0FFF7B1BB0498314621AA02F078FD002C
S31808002555287FF457ABDDF88CB03C467BE40498314621AAF8
S3180800256802F06CFD00287FF44BABDDF88CB03C4627E404C4
S3180800257B98314621AA02F060FD00287FF43FABDDF88CB080
S3180800258E3C460AE4CDF824A00C97FFF788BB446400086443
S318080025A16400088064000840640008206400081298BB46DE
S318080025B44FEA181308F00F0143EA09734FEA19129846911E
S318080025C746435C0BF8013D58EA0903EFD15B46CDF830B079
S318080025DAFB1A0993FFF765BB1B9D002D40F311820F9A0EB7
S318080025ED998A421346A8BF0B461D460C99002D01EB020A2A
S318080026000BDD229B21600133AB44072BCDF88CB065602256
S318080026139300F3558308340E9B002DA8BF5B1B002B1D46CB
S3180800262640F3F580102D229BDFF8089640F3D2815A464F07
S31808002639F01008DDF810B004E00834103D102D40F3C681BF
S3180800264C01331032072B23922293C4F80090C4F80480F0DF
S3180800265FDD5846314621AA02F0EDFC00287FF4CCAA239AF4
S31808002672229B3C46E5E70498314621AA02F0E1FC00287FE8
S31808002685F4C0AA9DF867C0DDF88CB03C46FFF776BB03F16C
S31808002698FF38B8F1000F7FF72BAFB8F1100FDFF8909525F9
S318080026ABDD5B464FF0100ADDF810B006E0A8F11008B8F162
S318080026BE100F04F1080417DD01351033072D239322958449
S318080026D1E80006F0DD5846314621AA02F0B2FC00287FF412
S318080026E491AAA8F11008B8F1100F239B229D3C46E7DC9BC4
S318080026F7460135C344072DCDF88CB02295C4F80090C4F84B
S3180800270A04807FF7F3AE0498314621AA02F095FC00287F0B
S3180800271DF474AADDF88CB0229D3C46E6E693460133AB446F
S31808002730072BCDF88CB02293C4F8009065607FF79DABE5EC
S31808002743E6BB46CDF814C0404649460A220023FEF77FFD20
S318080027563032404649460BF8012D00230A22FEF776FD8083
S3180800276946894658EA0903EBD15B46FB1ADDF814C0CDF80C
S3180800277C30B00993FFF794BA302B0C9B3FF427AF013B1A1B
S3180800278F460C93BA1A3023099201F8013CFFF786BA0A9973
S318080027A20A6804310A9190464FF00009FFF74ABA0A990A0F
S318080027B568043101230A9190464FF00009FFF740BA0A9AF5
S318080027C8136898464FEAE3791346043342460A93002A4BD8
S318080027DB4673F10003BFF6F2AB4FF02D0CD8F1000869EB41
S318080027EE49098DF867C0CDF834A00123FFF72ABA04983168
S318080028014621AA02F01EFC00287FF4FDA9DDF88CB03C46C5
S318080028140C9A0E991B9B0A4490460F9A934246DB039AD070
S318080028270743D40F9AC8EB0A05D31A9D42A8BF1D46002D44
S3180800283A0CDD229AC4F800800132AB44072ACDF88CB065E3
S3180800284D60229200F36F820834002DACBF5D1B1D46002D96
S318080028607FF70DAB102D229BDFF8CC937FF75EAF4FF01027
S31808002873085A46DDF810A004E00834103D102D7FF752AFF6
S3180800288601331032072B23922293C4F80090C4F80480F0A3
S31808002899DD5046314621AA02F0D0FB00287FF4AFA9239AFC
S318080028AC229B3C46E5E7229A14981399216001328344076A
S318080028BF2ACDF88CB06060229200F307820834ACE7039B70
S318080028D2D9073FF5DDAD0C9B236001350BF1010B012307B4
S318080028E52DCDF88CB0229563607FF702AE0DE704983146FD
S318080028F821AA02F0A3FB00287FF482A9239B229D3C46CFD0
S3180800290BE50498314621AA02F097FB00287FF476A9DDF8D5
S3180800291E8CB0229D3C46D0E50498314621AA02F08AFB0011
S31808002931287FF469A9DDF88CB03C46FFF749BA9DED100BA7
S3180800294402F03EFB002840F0D1808646B64AB74B0D900330
S31808002957989DF867C0CDF838E0032120F08000472DD8BF6F
S3180800296A1A46059103900C920991FFF7A2B929F007099978
S3180800297DED007B09F108038DED107B0A9378E4039B0A9A8C
S3180800299013F0400F13463FF41FAC0433B2F800800A934F30
S318080029A3F00009FFF728BB039BDB060BD4039B5D0608D505
S318080029B60A9A136804320A92BDF81C201A80FFF77FB80A4D
S318080029C99A136804320A92079A1A60FFF777B893460133B9
S318080029DCAB44072BCDF88CB02293C4F8009065603FF707B5
S318080029EFAF08340FE70498314621AA02F023FB00287FF45D
S31808002A0202A9DDF88CB03C46B5E4229B894A226001330B8B
S31808002A15F1010B0122072BCDF88CB02293626000F3F18072
S31808002A2808342DB90F9B1BB9039BDB077FF523AA229B145B
S31808002A3B98139A226001330BEB0001072B2391606022932D
S31808002A4E00F3EF8104F108026D42002D40F3FA80102DDF60
S31808002A61F8D49140F346811024DDF8108004E00832103DF9
S31808002A74102D40F33D8101331031072B23912293C2F80049
S31808002A87905460F1DD4046314621AA02F0D7FA00287FF4F6
S31808002A9AB6A82399229B3A46E6E7239BB146002B3FF4AE36
S31808002AADA80498314621AA02F0C6FAFFF7A7B841F0200129
S31808002AC003915D78591CFFF72CB808980A914042089019CF
S31808002AD346FFF729BA0498314621AA02F0B1FA00287FF4AD
S31808002AE690A8DDF88CB03C4659E425F02003BAF1FF3F05A1
S31808002AF99300F09380472B05D1BAF1000F14BFD3464FF0F9
S31808002B0C010B119B039A002B42F480720B92C0F2A4819DEF
S31808002B1FED107B8DED167B4FF0000A662D00F0AC80462DA7
S31808002B3200F0A980059B0498452B0CBF0BF10109D9461CB1
S31808002B45AA1FAB8DE80C009DED160B02214A461BAB00F066
S31808002B5853FB672D0C9002D0472D40F09F80039BDB074089
S31808002B6BF192810C9B03EB0908DDE9160100220023FEF788
S31808002B7E10FB002840F0FD801F9B984506D930215A1C1FFA
S31808002B919219701F9B9845F9D80C9A9B1A0F93059B472B91
S31808002BA41B9B00F0DE80652D40F3F880662D0E9300F0604B
S31808002BB7810F9B0E9A934200F34481039BD90700F1668147
S31808002BCA22EAE2730992BAF1000F40F0BC8005930B9B0387
S31808002BDD93CDF834A09DF867C0FFF769B80498402101F0EA
S31808002BF09DFAC9F80000C9F81000002800F097814023C93F
S31808002C03F81430FEF74FBF0498314621AA02F018FA002867
S31808002C167EF4F7AF1B9DDDF88CB03C4602E74FF0060B7190
S31808002C29E700BF4C64000848640008806400082064000800
S31808002C3C0498314621AA02F0FFF900287EF4DEAF239922AA
S31808002C4F9B3A460F9C5460013301EB040B072B0C99CDF81F
S31808002C628CB0229311603FF752AC02F10804FFF705B9CD3B
S31808002C75F834B0FEF7D0FECDF8289009900346FFF70EBA82
S31808002C881CAA1FAB8DE80C0004989DED160B03215A461BF4
S31808002C9BAB00F0B0FAD9460C900C9B03EB0908059B462B61
S31808002CAE7FF461AF0C9B1B78302B00F003811B9B9844588F
S31808002CC1E70498314621AA02F0BCF900287EF49BAFDDF8CD
S31808002CD48CB03C469FE40498314621AA02F0B0F900287E7F
S31808002CE7F48FAF1B9BDDF88CB03C469AE501332944072BFF
S31808002CFA23912293C2F8009055609ADC0832A3E753460678
S31808002D0D2B28BF0623099323EAE373DDF830C00593874B3C
S31808002D20CDF82890CDF834C0CDF838C00C93FEF7C5BF0483
S31808002D3398314621AA02F084F900287EF463AF1B9B0F9A2B
S31808002D46DDF88CB0D31A3C4682E505930B9B03934FF02D45
S31808002D590C00238DF867C00D93FEF7AEBFDA1C19DB9B45B2
S31808002D6C17DB0E93672521E74FF02D0C8DF867C0FFF79174
S31808002D7FBA43460AE72AEAEA730D90CDF828900E909DF841
S31808002D9267C00593CDF824A0FEF78FBF023D013B002B1BD4
S31808002DA593BABF5B422D222B22092B8DF874508DF8752031
S31808002DB87BDD0DF1830E70465F4A82FB0321DA17C2EBA1D4
S31808002DCB0202EB8201A3EB410303F13001092A134600F8FA
S31808002DDE011DEEDC02463033D9B202F8011D964540F29BF6
S31808002DF1800DF17602034601E013F8011B02F8011B7345AC
S31808002E04F9D121AB1B1A0DF1760213441DAA9B1A0F9A15DB
S31808002E1793012A1344099374DD099B0022013309930E9262
S31808002E2A23EAE373CFE60498314621AA02F005F900287EFB
S31808002E3DF4E4AE1B9D2399229B3A4605E60E9B002BD8BFE7
S31808002E50C3F102080F9BC8BF4FF001084344099323EAE317
S31808002E6373B4E6DDE9100101F10043169017934FF02D0A6F
S31808002E7658E6002B3DDDBBF1000F0FD1039BDB070CD40EAF
S31808002E899A099222EAE2739EE61F9B81E60E9B0133099374
S31808002E9C23EAE37396E60E9B0BF101084344099323EAE375
S31808002EAF738EE6303330228DF877308DF876201EABA6E7C9
S31808002EC2DDE9160100220023FEF769F900287FF4F4AEC970
S31808002ED5F101031B9398444AE60A9DD5F800A02846043077
S31808002EE8BAF1000F5D780A90BEF617AEFEF713BEBBF100B5
S31808002EFB0F0ED1039BD8070BD40123099362E6039B13F0C3
S31808002F0E010386D10E93099B23EAE37359E60BF102030956
S31808002F219323EAE37353E60DF1760370E7049A0C23136052
S31808002F344FF0FF30FEF770BE7864000867666666AFF300CC
S31808002F47802DE9F047254C2568D5F8484106468846924656
S31808002F5A9946CCB360681F2818DC431C7EB104EB800501F2
S31808002F6D21C5F888A0D4F8887101FA00F21743022EC4F845
S31808002F808871C5F808911ED00230636044F820800020BD45
S31808002F93E8F087144B03B34FF4C870AFF300800446D0B141
S31808002FA6D5F84831002780E88800C5F8484138460123C401
S31808002FB9F88871C4F88C71002EE1D0D0E7D4F88C110A4301
S31808002FCCC4F88C21DAE705F5A674C5F84841C0E74FF0FF7B
S31808002FDF30BDE8F0871C64000800000000024B13B10248A2
S31808002FF2FEF729BC704700000000751800082DE9F04F3112
S318080030054B83B01B68009303F5A47381460E460193009BBD
S31808003018D3F8487127B3DDF804A07C68651E0ED40134073B
S3180800302BEB84044FF00008E6B1D4F80031B34218D0013D1B
S3180800303E6B1CA4F10404F5D1224B73B17B68002B36D13BA6
S3180800305168002B34D03846CAF80030AFF30080DAF80070F3
S31808003064002FDCD103B0BDE8F08F7B682268013BAB420CF6
S31808003077BF7D60C4F80080002ADCD0D7F88831D7F804B07F
S3180800308A0121A940194208D190477B685B45BDD1DAF8002C
S3180800309D30BB42CCD0B8E7D7F88C31194204D14846D4F894
S318080030B080109047EEE7D4F880009047EAE73B68BA461F0D
S318080030C346002FACD1CEE700BF1C64000800000000026993
S318080030D60B69934200F38F802DE9F04F03F1FF3801F11408
S318080030E90700F1140B57F828205BF828304FEA880483B075
S318080030FC0132B3FBF2F90BEB0403009407EB040A0193B909
S3180800310FF1000F3BD000263246BC46DE4634465CF8046B93
S31808003122DEF80050B3B2360C03FB094406FB09F606EB146F
S3180800313546A3B2D31AB4B213FA85F3C4EB154404EB2344A8
S318080031489BB243EA0443E2454FEA24424EF8043B4FEA160B
S3180800315B44DFD2009B5BF8033093B9019C231F9B450CD254
S3180800316E54F8043C4BB9A4F1080302E01A68043B1AB99BFF
S318080031814508F1FF38F8D3C0F81080044601F003FD002842
S318080031942EDB09F101095D46002357F8041B28688AB29A73
S318080031A71A090C12FA80F2C1EB104303EB224391B241EA9A
S318080031BA0341BA4545F8041B4FEA2343EAD25BF828200B54
S318080031CDEB880382B91A1F93450BD253F8042C42B9083B89
S318080031E002E01A68043B1AB99B4508F1FF38F8D3C4F810B1
S318080031F380484603B0BDE8F08F002070472DE9F04F99B061
S3180800320604460391016C229D049392468DED000B41B14275
S318080032196C4A60012393408B6001F089FA00232364DDE9B8
S3180800322C0023002B994636DB00232B60A54B1A4609EA034F
S3180800323F03934217D0DDE900670022002330463946FDF754
S31808003252A6FF804600282BD0049A01231360239B002B00AF
S31808003265F0CC809A481860013819B0BDE8F08F049A42F2BA
S318080032780F731360009B002B00F0A7809448239B002BF0AE
S3180800328BD0C378002B00F0B88000F10803239A136019B0CF
S3180800329EBDE8F08F019A012322F000492B60CDF80490C22B
S318080032B1E7204647EC106B17A916AA01F084FD5FEA195558
S318080032C4834640F08D80DDF85880179D6FF4826345449D14
S318080032D742C0F29E827F4A521B09FA02F9009A05F21243A8
S318080032EA22FA03F049EA0000FDF777FC0123013DA1F1F82E
S318080032FD710F930022774BFDF730FB6BA3D3E90023FDF7B9
S31808003310DFFC6BA3D3E90023FDF728FB064628460F46FDB1
S31808003323F76FFC68A3D3E90023FDF7D0FC02460B4630466E
S318080033363946FDF718FB06460F46FDF760FF3946059000E8
S318080033492230460023FDF731FF002840F0AB81059B162B1F
S3180800335C00F2A481059A604B03EBC203D3E90001DDE900B9
S3180800336F23FDF73EFF002800F05582059B013B0593002363
S318080033820D93C5EB08056B1E069300F1A6810023079305D1
S318080033959B002BC0F29781069A0C931146194400230691DA
S318080033A80A93039B092B2BD8052B40F37386043B03930061
S318080033BB27039B023B032B00F25186DFE813F0D103C40393
S318080033CEB6026606414B444AC9F31300002814BF18461068
S318080033E14650E7C7F3130343F07F51CDF83C803046A5F2ED
S318080033F4FF3541F44011DDF858807FE73A4834E7C31C4728
S31808003407E70021616420468A46039101F06BF94FF0FF3347
S3180800341A08930E930123099020640B93179B002BC0F2D314
S3180800342D80059A0E2A00F3CF802B4BBAF1000F03EBC20302
S31808003440D3E90089C0F29583DDE9006742464B4630463967
S3180800345346FDF766FDFDF7D4FE8246FDF7D1FB42464B4654
S31808003466FDF733FC0B46024639463046FDF779FA099D0A7D
S31808003479F130032B70089B012B06460F4605F1010563D0D4
S3180800348C0022184BFDF71EFC0022002306460F46FDF78032
S3180800349FFE002840F08480CDF800B00394DDF824B0089C59
S318080034B22AE0AFF3008061436F63A787D23FB3C8608B288A
S318080034C58AC63FFB799F501344D33F0000F07F816400082F
S318080034D8906400080EFCFFFF0000F83FA0640008846400A4
S318080034EB088064000800002440FDF7ECFB002200230646FC
S318080034FE0F46FDF74EFE002840F0E48342464B4630463991
S3180800351146FDF707FDFDF775FE8246FDF772FB42464B46B2
S31808003524FDF7D4FB02460B4630463946FDF71AFA0AF13002
S318080035370E05F801EBCBEB050E744506460F464FF0000218
S3180800354AB74BD2D1DDF800B0039C32463B4630463946FDAC
S3180800355DF706FA06460F464046494632463B46FDF722FE93
S3180800357048B94046494632463B46FDF711FEB0B11AF001BC
S318080035830F13D015F8018C09996B1E04E08B4200F0488403
S3180800359613F8018DB8F1390F03F101051A46F4D008F10172
S318080035A903DBB213702046594601F0C1F80022059B2A70E3
S318080035BC049A01331360239B002B00F04B8309981D6019CB
S318080035CFB0BDE8F08F0B9A002A00F08580039A012A40F348
S318080035E20A83089B5F1E0A9BBB42C0F2A683DF1B089B0001
S318080035F52BC0F2A484079D089B079A1A440792069A2046CB
S318080036081A440121069201F079F9064665B1069900290BF1
S3180800361B4608DDA942079AA8BF2B46D21AED1ACB1A07928E
S3180800362E06930A9B002B1ADD0B9B002B00F07883002F1020
S31808003641DD31463A46204601F000FA06465A46314620467A
S3180800365401F060F959468046204601F06BF8C3460A9BDA64
S318080036671B40F0A5822046012101F048F90C9B002B80467E
S3180800367A38DD01461A46204601F0E3F9039B012B80464070
S3180800368DF399824FF00009D8F8103008EB8303186901F0CB
S318080036A0E3F8C0F120002CE001230D936AE60598FDF7A804
S318080036B3FA32463B46FDF772FD00287FF44BAE059B013B30
S318080036C6059346E6079A059BD21A5B420A93002307920CF0
S318080036D99366E65B4207930023069356E60A9F079D0B9ECC
S318080036EC92E7039B012B40F3B8824FF000090C9B002BC92A
S318080036FFD10120069B184410F01F0000F08380C0F12003D5
S31808003712042B40F3B984C0F11C00079B03440793069B0303
S318080037254405440693079B002B05DD59461A46204601F058
S31808003738D9F98346069B002B05DD41461A46204601F0D019
S3180800374BF980460D9B002B40F06A82089B002B40F3978295
S3180800375E0B9B002B71D1DDF82490089F4D4602E000F0EDB5
S31808003771FF834641465846FFF7ACFC00F1300C05F801CBB6
S31808003784C9EB0503BB42204659464FF00A024FF00003EAEF
S31808003797DB099B089A012AACBF9B1801331D464FF0000AC7
S318080037AA594601222046CDF800C001F09AF941468346017C
S318080037BDF0ECF90028DDF800C040F3EF8215F8012C0999D9
S318080037D06B1E04E08B4200F0758213F8012D392A03F10126
S318080037E305F6D001321A704146204600F0A3FF002E3FF45D
S318080037F6DBAEBAF1000F05D0B24503D05146204600F0974C
S31808003809FF3146204600F093FFCCE61C2081E7044B009A01
S3180800381C5B1B02FA03F066E50D90ADE500002440EEFBFF60
S3180800382FFF3146002320460A2200F088FF0E9B002B0646B6
S3180800384240F30B840893002D05DD31462A46204601F04B70
S31808003855F90646B9F1000F40F0ED82B146089B099A013B3C
S31808003868D3180893009B03F001030A93174641465846FF09
S3180800387BF72BFC31460546584601F088F94A46824641465D
S3180800388E204601F0A6F9C268034605F1300C002A40F0BA6A
S318080038A18119465846CDF81CC0069301F074F9069B0090BF
S318080038B41946204600F03EFF009ADDF81CC02AB9039B1B1A
S318080038C7B90A9B002B00F0AA83BAF1000FC0F24A8205D12C
S318080038DA039B1BB90A9B002B00F04382002A00F3BB820874
S318080038ED9B87F800C007F1010A9F42554600F0BE82594692
S318080039000A220023204600F021FF4E458346314620464F59
S31808003913F00A024FF0000300F0768100F015FF494606468F
S318080039260A222046002300F00EFF574681469FE701230BB5
S3180800393993BAF1000F40F30C8256465546CDF838A0CDF8C6
S3180800394C20A00021172E61640AD9012204235B0003F114DF
S3180800395F008642114602F10102F7D26164204600F0BDFE93
S318080039720E2D099020643FF655AD002F3FF452AD9DED00BA
S318080039857B059900298DED107B40F32382B74B01F00F02FE
S318080039980D1103EBC203E906D3E9006740F1D281B24B5159
S318080039ABEC170BD3E90823FDF7B7FACDE9000105F00F05A1
S318080039BE4FF003088DB1DFF8AC9230463946EA0705D5D9B2
S318080039D1E90023FDF77CF908F101086D1009F10809F3D112
S318080039E406460F46DDE9000132463B46FDF798FACDE90025
S318080039F7010D9B43B1DDE9000100229D4BFDF7D6FB002854
S31808003A0A40F0AE824046FDF7F8F8DDE90023FDF75AF9970A
S31808003A1D4B0022FCF7A4FF089B0646A1F15077002B00F022
S31808003A306281059BDDF8209014930B9B002B00F023828BD5
S31808003A434B8E4903EBC90353E902230020FDF768FA324637
S31808003A563B46FCF786FFDDE90067CDE9120139463046FD6E
S31808003A69F7CCFB0546FDF7C9F8303502460B46304639468B
S31808003A7CFCF774FF5FFA85F8099DDDE9122385F800800649
S31808003A8F460F460135FDF78EFB002840F0A78232463B464E
S31808003AA200207449FCF75FFF02460B46DDE91201FDF79DD2
S31808003AB5FB002840F0AD82B9F1010F40F38481099BCDF813
S31808003AC800B0CDF854A09944A046DDE912AB0DE0002067BA
S31808003ADB49FCF744FF52465B46FDF766FB002840F08F8254
S31808003AEE4D4500F06781504659460022624BFDF7E8F80075
S31808003B0122604B82468B4630463946FDF7E0F80F460646DB
S31808003B14FDF776FB0446FDF773F802460B4630463946FCF8
S31808003B27F71FFF3034E4B252465B4605F8014B06460F464B
S31808003B3AFDF73BFB32463B460028C8D0149BDDF800B0054E
S31808003B4D9344462DE500230B93059B53440E930133002B30
S31808003B60089340F30181089D2E46F0E600230B93E3E60873
S31808003B739B002B3FF767AC40F0D48040460022414B4946DB
S31808003B86FDF7A3F8DDE90023FDF725FBDDF8208046460091
S31808003B992800F08B806FEA0A03099D05934146204600F067
S31808003BACC5FD002E7FF42BAEFBE45946204600F047FF831F
S31808003BBF4654E5009B002B7FF463AD019BC3F31303002B8A
S31808003BD27FF490AD019B23F000473F0D3F05002F00F01C61
S31808003BE582079B01330793069B013306934FF0010980E5B1
S31808003BF80F9A002A00F0A78103F233430A9F079DF9E4002C
S31808003C0BF09FFD5746064681462FE601462046CDF800C015
S31808003C1E00F08BFD0122DDF800C052E65846414600F0B355
S31808003C31FF0028BFF68FAD059F5946002320460A22013F22
S31808003C44059700F081FD0B9B8346002B7FF4EEAD0E9B0004
S31808003C572B40F3F581089381E50998FFF704BB009B002B5B
S31808003C6A7FF444ADACE7A0640008786500080000F03F0022
S31808003C7D001C400000E03F0000244000001440039B022B28
S31808003C907FF765AD089B002B81D141460522204600F05413
S31808003CA3FD80464146584600F075FF00287FF775AF059A53
S31808003CB609993123013205920B704D1C70E7059A0132051B
S31808003CC992099A312313708BE5DDF800B0039C69E4404667
S31808003CDCFCF792FFDDE90023FCF7F4FF0022C24BFCF73E14
S31808003CEFFE0646A1F150770022BF4BDDE90001FCF733FEFA
S31808003D0232463B4680468946FDF771FA002840F0B68032F3
S31808003D154607F1004340464946FDF749FA002852D04FF037
S31808003D280008464637E759460A9A204600F08AFE83469747
S31808003D3BE40A9B0C9A0A97FB1A1A440C92002752E49DED9F
S31808003D4E107B4FF002088DED007B33E601250E950895AA62
S31808003D61460021616401E61D46FAE7002A15DD594601220C
S31808003D742046CDF800C000F0B7FE4146834600F009FF0056
S31808003D8728DDF800C040F35481BCF1390F00F011810CF1E2
S31808003D9A010CB24687F800C07D1C4E4620E504D11CF001B0
S31808003DAD0F01D00BE5154615F8013C302B05F1FF32F8D036
S31808003DC013E5DDF800B0DDF854A04446DDE91023CDE90063
S31808003DD323FFF727BB059B5D42002D00F0BD80864B05F075
S31808003DE60F0203EBC203D3E90023DDE91001FCF76CFF2DB7
S31808003DF911CDE9000100F027817F4E4FF00208EB0705D567
S31808003E0CD6E90023FCF75EFF08F101086D1006F10806F3EC
S31808003E1FD1CDE90001E8E5059A01320592099A302313704B
S31808003E3231231370FFF7BABB7168204600F055FC33699A77
S31808003E451C0546920006F10C010C30FCF76EFB20462946F2
S31808003E58012200F047FE8146FFE4BCF1390F00F0A8800C2E
S31808003E6BF1010CB24687F800C07D1C4E46B7E4B2464E46AD
S31808003E7E94E44FF00008464615E75C4909F1FF3301EBC35C
S31808003E910132461593D1E900013B46FCF718FFDDE900677C
S31808003EA4CDE9120139463046FDF7AAF90546FCF7A7FE02C3
S31808003EB7460B4630463946FCF753FD099A3035B9F1010F59
S31808003ECA157006460F4602F1010523D0099BCDF800B04B61
S31808003EDD449846A946AB460022474BFCF7F2FE0F4606468A
S31808003EF0FDF788F90546FCF785FE303502460B46304639CE
S31808003F0346FCF730FD09F8015BC145E9D1159B5D46DDF8F2
S31808003F1600B006460F461D440022394BDDE91201FCF72145
S31808003F29FD32463B46FDF741F9002847D0149B059315F8C0
S31808003F3C018CFFF724BB079B089A9D1A0023FFF758BB16C5
S31808003F4F9B0A9F079DC3F13603FFF751BB9DED107B4FF026
S31808003F6202088DED007B46E5089B002B3FF4B4AE0E9D0006
S31808003F752D7FF729AF0022214BDDE90001FCF7A5FE064679
S31808003F880F4608F10100CDE90067FCF737FE02460B4630BB
S31808003F9B463946FCF797FE144B0022FCF7E1FC059B013B8B
S31808003FAE0646A1F150771493A9463FE53922B2463A704E48
S31808003FC1467D1C03E4DDE9122300200E49FCF7CBFC324675
S31808003FD43B46FDF70BF908B9F6E6154615F8013C302B05B1
S31808003FE7F1FF32F8D0149B0593FFF7DDBA00001C4000009F
S31808003FFA1440A064000878650008000024400000E03F439B
S3180800400D46DDF800B0A0461C46149B0593FFF7B6BAB946D3
S31808004020FFF76BBBBCF1390FC7D0BAF1000F7FF7B5AE053F
S31808004033F1310CB1E67FF4B0AE1CF0010F3FF4ACAEA4E6A3
S31808004046039B022B04DC0E9B05E64FF00208D0E40E9B086C
S31808004059931BE6039B022BF9DC0E9BFFF7EFBB00256564DB
S3180800406C2946204600F03CFB4FF0FF3308930E930123095D
S3180800407F90AA4620640B93FFF7CEB93FF44EABC0F13C00E8
S31808004092FFF743BB01230B935CE50127FFF78DB900BFAF44
S318080040A5F30080C2B110B510460C491446FCF7E9FA08B9B3
S318080040B80A4810BD20460949FCF7E2FA0028F7D0204607E5
S318080040CB49FCF7DCFA044B00280CBF1846002010BD0148EC
S318080040DE7047946400081864000860640008004870479C1F
S318080040F1040020014B1868704700BFBC0400200048704769
S3180800410444040020002070470048704764040020024B0A7D
S318080041174601461868FFF7C4BF4004002000487047640436
S3180800412A00202DE9F04F01F10B05162D83B0064627D93506
S3180800413DF0070500F1B680A94200F2B38000F0CBFAB5F5CF
S31808004150FC7F22D2C24FE80807EBC003DC689C4200F0C84F
S31808004163816368E168A56823F00303234430465A68E96098
S3180800417642F001028D605A6000F0B3FA0834204603B0BD9D
S31808004189E8F08F102900F28F8000F0A7FA1025DCE7680A79
S3180800419C00F08F80042800F25481A80938304100AC4F07B4
S318080041AFEB8101CC68A14206D10CE0002A80F28280E468BE
S318080041C2A14206D0636823F003035A1B0F2AF3DD01380187
S318080041D530A2493C6901F1080E744500F07D81636823F07C
S318080041E803035A1B0F2A00F36381002AC1F814E0C1F8108B
S318080041FBE073DAB3F5007F80F03981DB0801EBC3084FEA52
S3180800420EA30C4A68D8F80890C4F80890012303FA0CF3133F
S3180800422143C4F80C804B60C8F80840C9F80C40821001247A
S3180800423494409C4262D8234206D120F00300640023420065
S31808004247F10400FAD007EBC008C4468146DCF80C309C451B
S3180800425A07D141E1002980F25181DB689C4500F03B815AB2
S3180800426D6822F00302511B0F29F2DD1C46D3F80CC054F8F9
S31808004280088F5A1945F0010941F00105C3F804903046C810
S31808004293F80CC0CCF808807A613A61C2F80CE0C2F808E03C
S318080042A65560515000F01DFA69E700240C232046336003FB
S318080042B9B0BDE8F08F7E213F2073E72344E1685A68A56839
S318080042CC42F00102E96030468D605A6000F006FA083420EA
S318080042DF4603B0BDE8F08F234430465A6842F001025A6013
S318080042F200F0F9F90834204603B0BDE8F08FBC686368233E
S31808004305F00308454504D8C5EB08030F2B00F38C80534BA4
S31808004318DFF858A11A68DAF8003001332A4404EB080B008C
S3180800432BF0508102F580520F3222F47F6222F00F02114635
S3180800433E3046019200F06DFEB0F1FF3F8146019A00F04782
S3180800435181834500F2EE80434B1968CB451144196000F0C5
S318080043644281DAF80000DFF808E101301BBFCBEB090B59B5
S3180800437744CEF80090196019F0070100F00781C1F10800CF
S3180800438AC1F58051814408314A44C2F30B02C2EB010A5134
S3180800439D463046019300F03DFE431C019B00F02C81C9EB38
S318080043B00002524442F001021968C7F808905144BC42C9EB
S318080043C3F804201960DFF89CA016D0B8F10F0F40F2EE80E4
S318080043D66268A8F10C0323F00703E01802F001024FF00506
S318080043E90E1A430F2B6260C0F804E0C0F808E000F2098194
S318080043FC1B4BBC681A68914288BF1960194B1A68914262E6
S3180800440F6888BF196022F003029542A2EB050301D80F2BCE
S3180800442204DC304600F05FF90024AAE6621943F001034530
S31808004435F0010565603046BA60536000F052F9083420468B
S3180800444803B0BDE8F08F142868D9542800F29780280B6ED9
S3180800445B304100A5E6C004002014090020180900201009C9
S3180800446E00200C090020CC0800205A0A042A55D9142A00E6
S31808004481F2A7805B324FEA420C07EB8C0CDFF8BC81DCF87B
S31808004494081061457FD04A6822F00302934202D289688C0B
S318080044A745F7D1CA687B68E260A1609460CC60BBE6631952
S318080044BA42F0010745F00105656030464B610B61C3F80C52
S318080044CDE0C3F808E05F609A50083400F006F952E64B688C
S318080044E0A6E609F1010919F0030F0CF1080C7FF4B1AE2C01
S318080044F3E004F108036469A34208BF02303FF469AE2EE6BF
S318080045061A441C465168DB6854F8085F41F0010151603011
S3180800451946EB609D6000F0E3F82FE65B30410040E69A097E
S3180800452C38324FEA420CAAE7BC42454B3FF40EAF9C686208
S3180800453F6822F0030268E7D8F8008098457CD110F0030F01
S31808004552A8F1080300F1FF30F4D17B6823EA04037B606489
S31808004565009C423FF6CAAE002C3FF4C7AE234248467FF470
S3180800457869AE6400234200F10400FAD062E6B0F5AA7F1855
S3180800458BD8E80B773041000BE64FF48051FBE6D8F8043072
S3180800459E92104FF0010C0CFA02F21343C8F804300A467DFD
S318080045B1E70123C9F804304C4600222CE740F2545398426F
S318080045C41CD8A80C7C304100EEE51032B4E6542A23D81AFF
S318080045D70B6E324FEA420C54E7BC68626822F0030216E754
S318080045EACBF30B0000287FF4B9AE4244BB6842F001025AAD
S318080045FD60FDE6FC217E20D2E501224FF0000AD4E604F1CD
S318080046100801304601F066FBDAF80010EEE6B2F5AA7F042E
S31808004623D8DA0B77324FEA420C2DE740F254518A4204D8F6
S318080046369A0C7C324FEA420C24E74FF0FC0C7E2220E77B14
S31808004649688BE7C0040020830770B4C9B240D0541E002ABD
S3180800465C3FD003788B4218BF431C06D11DE0F4B102788A33
S3180800466F4204F1FF3417D013F0030F184603F10103F3D1AA
S31808004682032C14D884B103788B420BD00519431C02E00243
S31808004695788A4205D0AB42184603F10103F7D1002070BC94
S318080046A87047204670BC704741EA0126024646EA064610CB
S318080046BB46043203687340A3F1013525EA030313F0803FA3
S318080046CEDAD1043C032C1046F0D8D5E71446D1E71046E18E
S318080046E1E700BF704700BF704700BFC36C70B505460C4635
S318080046F44BB153F8240080B1026843F8242000230361C3D6
S318080047076070BD0421212201F06BFAE86403460028EDD1CB
S3180800471A002070BD012101FA04F6721D2846920001F05D3D
S3180800472DFA0028F3D044608660E4E731B1C36C4A6853F823
S318080047402200086043F82210704700BFF0B50C6983B00D91
S3180800475346064601F1140E0027DEF8001088B2090C02FB46
S31808004766003302FB01F101EB134101379BB203EB0143BC5D
S31808004779424EF8043B4FEA1143EBDC3BB1AA68944207DA4F
S3180800478C05EB8402013453612C61284603B0F0BD69680180
S3180800479F9301313046FFF7A2FF2A69023205F10C01074610
S318080047B292000C30FBF7BBFEF26C6968019B52F82100280F
S318080047C56042F821503D46DEE700BF2DE9F843234C089E5B
S318080047D81F46083384FB034EDB17C3EB6E0EBEF1010F0570
S318080047EB460C46904635DD012300215B009E4501F10101B6
S318080047FEFADC2846FFF773FF0123B8F1090F4661036121DD
S31808004811DD04F109094E46444416F8013B0146303B28461C
S318080048240A22FFF791FFA642F5D109EB0804083C47450C37
S31808004837DDC8EB0707274414F8013B0146303B28460A22C3
S3180800484AFFF77FFFBC42F5D1BDE8F8830A344FF00908EA7D
S3180800485DE70021CEE700BF398EE338030C1B04B3B900043E
S31808004870102310F07F4F04BF0002083310F0704F04BF00A4
S3180800488301043310F0404F04BF80000233002807DB420089
S3180800489603D4202070470023E8E7581C70471846704703FE
S318080048A96813F0070207D0D90720D49A0720D49B08036034
S318080048BC0220704799B209B91B0C102213F0FF0F04BF1BAD
S318080048CF0A0832190704BF1B090432990704BF9B0802320D
S318080048E2D90704D45B0801D1202070470132036010467075
S318080048F547002070475B0803600120704700BF10B50C4610
S318080049080121FFF7EFFE01224461026110BD00BF2DE9F0CC
S3180800491B4F0F691669B74283B00D461446C0F28D80334624
S3180800492E3E461F46AB68696806EB07089845C8BF0131FF06
S31808004941F7D4FE00F1140C0CEB8809CC45009005D26346D2
S31808004954002143F8041B9945FBD804F1140202EB870A0588
S31808004967F11403524503EB860E54D2CDF80490994652F866
S3180800497A043B1FFA83FBBBF1000F20D000204F4666460535
S3180800498D4600E01E4657F8044B3068A1B283B20BFB013189
S318080049A0240C000C4B190BFB040000EB134099B233464109
S318080049B3EA0041BE454FEA104543F8041BE6D8756052F8F0
S318080049C6043C5FEA134B20D0DCF80030674618464D460057
S318080049D92100E037462C88000C0BFB040001449CB23E465E
S318080049EC44EA014346F8043B786855F8044B83B2240C0BCF
S318080049FFFB043404EB1143AE454FEA1341E6D87B60924531
S31808004A120CF1040CAFD8DDF80490B8F1000F0BDD59F80491
S31808004A253CA9F104091BB105E059F8043D13B9B8F10108CC
S31808004A38F9D10098C0F8108003B0BDE8F08F15460C4672BD
S31808004A4BE712F003032DE9F041144607460E462DD1A41067
S31808004A5E1CD0BD6C95B3E3074FF0000806D4641014D0284F
S31808004A7168A8B10546E307F8D5384631462A46FFF74AFFBD
S31808004A84B6B17268FB6C641053F82210316043F822600624
S31808004A9746EAD13046BDE8F08129462A463846FFF737FFE8
S31808004AAA2860C0F800800546E0E70646D9E75A1E0B4D003D
S31808004ABD2355F82220FFF743FE0646C8E701213846FFF75E
S31808004AD00DFE40F2712101220023416102610546B8640341
S31808004AE360BEE700BF686500082DE9F0470F698B684FEA28
S31808004AF662194F447D1C9D420E4614464968804604DD5BB8
S31808004B09009D4201F10101FADC4046FFF7EAFDB9F1000FC6
S31808004B1C00F1140109DD00239E460A4601334B4542F80433
S31808004B2FEBFAD101EB8301326906F1140314F01F0C03EB79
S31808004B42820E1FD0CCF1200900221C6804FA0CF414438A68
S31808004B554641F8044B53F8044B9E4524FA09F2F2D8CAF84F
S31808004B68042002B1BD1CD8F84C307268013D53F822100596
S31808004B7B61316043F82260BDE8F087043953F8042B41F85E
S31808004B8E042F9E45F9D8EBE700BF02690B69D21A13D19B44
S31808004BA10014301431194410B4034401E098420CD253F81E
S31808004BB4044D51F8042D9442F7D009D301205DF8044B7067
S31808004BC7471046704700205DF8044B70474FF0FF305DF83B
S31808004BDA044B704700BF2DE9F0410E46054611463046142E
S31808004BED46FFF7D3FF071E54D04DDB4FF00008716828469A
S31808004C00FFF774FD37692369C0F80C80143604F114020265
S31808004C13EB830C00F1140506EB870E002356F8048B52F82C
S31808004C26044B13FA88F3A1B2240C591AC4EB184303EB2187
S31808004C394389B241EA0341944545F8041B4FEA234334461F
S31808004C4CE8D8B645AC4615D954F8042B13FA82F1130C038F
S31808004C5FEB214389B241EA0341A64545F8041B4FEA234355
S31808004C72EFD8F643764426F0030504356544043D21B955F7
S31808004C85F8043D013F002BFAD00761BDE8F08133464FF06A
S31808004C98010826461C46ADE728463946FFF722FD01234723
S31808004CAB610361BDE8F08100BF124B10EE902A1A40A2F14C
S31808004CBE5073002B04DD0020194641EC100B70475B421BD0
S31808004CD115132B0CDD322BDDBFC3F13303012202FA03F38E
S31808004CE401230021184641EC100B70474FF4002200204246
S31808004CF7FA03F141EC100B70470000F07FF8B5046900F135
S31808004D0A140707EB84040D4654F8046C3046FFF7A6FDC015
S31808004D1DF120030A282B60A4F1040116DC8F42C0F10B0586
S31808004D3038BF54F8081C26FA05FE00F115004EF07F53348E
S31808004D43BFE9400021864043F4401341EA060243EC102B59
S31808004D56F8BD8F4220D2B0F10B0EA4F1080C54F8081C26CB
S31808004D69D0C0F12B05674521FA05F306FA0EF646EA03067C
S31808004D7C38BF54F80C0C46F07F5343F4401334BFE840000E
S31808004D8F2001FA0EF141EA000243EC102BF8BDB0F10B0EE3
S31808004DA208D006FA0EF646F07F53002043F440130146EC2F
S31808004DB5E7714646F07F5343F440130A4643EC102BF8BD3E
S31808004DC82DE9F04357EC106B83B0884601213C46C7F30A5A
S31808004DDB551746FFF785FCC4F3130481460DB144F480146F
S31808004DEE01941EB302A840F8086DFFF756FD002834D19DD4
S31808004E01E80C00C9F81420002B14BF02240124C9F8183055
S31808004E14C9F81040DDB909EB8403A0F23240C8F80000187F
S31808004E2769FFF71EFDC0EB44103860484603B0BDE8F08300
S31808004E3A01A8FFF734FD0124019BC9F814302030C9F810A0
S31808004E4D40002DE3D0A5F233450544C0F13500C8F80050D6
S31808004E603860484603B0BDE8F0839DE80C00C0F1200103DA
S31808004E73FA01F10A43C3400193C9F81420C2E700BF2DE9DB
S31808004E86F04383B0884669468146FFF738FF404601A955AF
S31808004E99EC104BFFF732FF9DE80A00D9F81020D8F810001A
S31808004EACC91A121A01EB4213002B57EC106B0DDD05EB03CF
S31808004EBF510D462046294632463B46FCF72BF841EC100B02
S31808004ED203B0BDE8F083A7EB035910EE106A4F46EEE7170D
S31808004EE52810B504460ADD084900200022084BFBF7ECFECC
S31808004EF8013CF9D141EC100B10BD054B03EBC00494ED00FA
S31808004F0B0B10BD00BF0000F03F00002440A064000870B42B
S31808004F1E146902F1140301394E1103EB84040136A34200C0
S31808004F31EB86060CD2011F53F8045B41F8045F9C42F9D8F5
S31808004F44A31A153B23F0030304331844864204D90023408B
S31808004F57F8043B8642FBD870BC704700BF03694A11934229
S31808004F6A10B400F1140410DA04EB83039C4221D253F804DA
S31808004F7D0C043B18B115E053F8042D92B99C42FAD35DF843
S31808004F90044B704710DD11F01F010DD054F8220020FA0186
S31808004FA3F303FA01F1814204EB8203E2D001205DF8044B5D
S31808004FB6704704EB8203DBE70020E5E700BF53EC102B10B8
S31808004FC9B433F0004408D01149A3F58010884208D8042084
S31808004FDC5DF8044B70471AB902205DF8044B704703F1FF16
S31808004FEF43094903F5E0038B42EFD9B4F5801F01D203205E
S31808005002EBE7054B9C4201D00020E6E7B2FA82F04009E286
S31808005015E700BFFFFFDF7F0000F07F38B5074C002305465B
S318080050280846236001F0DEF9431C00D038BD2368002BFBF9
S3180800503BD02B6038BD480900202DE9F04F9368D2F80080F9
S3180800504E83B09146002B72D007464FF0000B08688B680DC3
S31808005061465C46002C45D09C421E469A4648D3AB8913F48D
S31808005074906F2DD06E69296906EB4606C1EB000A06EBD6FC
S3180800508776601C76105044864232463CBF064632465B059D
S3180800509A35D511463846FFF744F8002839D0524629690188
S318080050AD90FBF73FFAAA89019B22F4906242F08002AA8171
S318080050C0CAEB060203EB0A006E612B612860AA602646A21F
S318080050D3465246594600F0DCFED9F80820AB6828689B1B23
S318080050E65044141BAB602860C9F808401CB3D8F800B0D823
S318080050F9F8044008F10808B0E72646A246E5E7384600F02C
S3180800510C27FF03460028D5D13846296900F0E4FD0C233BFA
S3180800511F60AB89002243F040034FF0FF30AB81C9F80820C0
S31808005132C9F8042003B0BDE8F08F0020C9F8040003B0BD4B
S31808005145E8F08F2DE9F04F91468A89ADB012068A460693C5
S31808005158049003D50B69002B00F0148500230DF170080AFF
S3180800516B93119310930393CDF83C80444699F80030002BBC
S3180800517E00F08783252B00F084834A4601E0252B03D01229
S31808005191F8013F002BF9D1C9EB020615467EB1109B119A34
S318080051A4C4F8009001333244072B66601192109300F300C3
S318080051B7840834039B334403932B78002B00F08983002181
S318080051CA4FF000034FF0FF328DF83730681C6B780091012D
S318080051DD920D4600F10109A3F12002582A00F28882DFE8D6
S318080051F012F0E30186028602DB0186028602860286028626
S31808005203028602560251028602B8006902860249023B029A
S318080052163B023B023B023B023B023B023B023B0286028681
S3180800522902860286028602860286028602860286021F0201
S3180800523C8602860286028602860286028602860286028603
S3180800524F02030286028602860286028602C60186028602B8
S31808005262A2018602860286028602860286028602860286C2
S3180800527502860245012901860286028602210129018602B2
S318080052888602160186020001A700EB00E3008602C000869A
S3180800529B02590086028602EB01009B05959A0640F17181A3
S318080052AE069B073323F0070303F10802D3E900670692012D
S318080052C1234FF000028DF83720019A02924FF0000B019A78
S318080052D4002A03DB009A22F08002009256EA070240F0D6A2
S318080052E782019A002A00F05283012B00F0B383022B00F02B
S318080052FA73834146F20842EA4772F80806F00703074616D4
S3180800530D46303356EA070201F8013DF1D1009A0991D00789
S3180800532040F19883302B099B00F0D382013B1A460993C2E2
S31808005333EB08023023029201F8013C2FE3009B059513F0FD
S31808005346200300F06081069B073323F0070303F10802D389
S31808005359E9006706920023AFE74846009B43F0040300939C
S3180800536C99F8003036E7069A0595136809934FF00001169B
S3180800537F1D019A8DF837100292002B00F0F483019B002B9C
S31808005392C0F2E683099D1A4628460021FFF757F9002800DC
S318080053A5F00384431B0293002306969DF837B00193F3E2D9
S318080053B8009B43F02003009399F8003048460BE706980071
S318080053CB990595302302468DF83830782341F00201043201
S318080053DE8DF83930B54B0A930668009106920027022367D9
S318080053F1E7009B8DF837109D0600F18083009BD80600F14C
S318080054049583009B590640F19183069A136804320692BD8A
S31808005417F80C201A80ACE699F800306C2B484600F0768355
S3180800542A009A42F010020092D5E6009B43F04003009399F9
S3180800543DF800304846CDE6009B05959B068DF8371040F112
S31808005450FA800699073121F00701D1E9002308310691160E
S31808005463461F46002A73F10003C0F22683019B02939DF8CB
S3180800547637B001232AE7069A059513688DF84830134604EA
S318080054893301264FF00001069312AB8DF837100296099312
S3180800549C00230193009B13F002030793009B18BF0236133E
S318080054AFF08403089340F03681059B9D1B002D40F3318179
S318080054C2102D1199109ADFF8F4B127DD0B9610275E46AB91
S318080054D546049D06E0ABF1100BBBF1100F04F1080417DD72
S318080054E801321031072A1191109284E8C000F0DD28465102
S318080054FB460FAAFFF7A1FD002840F0F081ABF1100BBBF1D1
S3180800550E100F1199109A4446E7DC5D46B3460B9EC4F800BB
S31808005521B001322944072A11911092656000F381820834AD
S31808005534F8E0614A0A92009A059597068DF8371048D50677
S318080055479A073222F00702D2E9006702F108010691009A06
S3180800555AD50740F1E08056EA070200F0DC808DF839300040
S3180800556D9B302243F0020300938DF838200223A1E6009B41
S31808005580059543F010030093009B9A063FF58FAE009BDB75
S318080055930640F1A582069A134604321E6806920123002701
S318080055A68CE6009B43F00103009399F80030484613E6992C
S318080055B9F80030484600297FF40EAE20210BE63B4A0A9270
S318080055CC009A059597068DF83710B6D4009AD60600F17AB6
S318080055DF82009A069912F0400F0A4600F0B58204320E885C
S318080055F206920027AFE7009B059543F010030093009B1387
S31808005605F020037FF4A0AE009A12F0100240F03F82009B76
S3180800561813F0400300F03A82069913460A4604320E880665
S3180800562B92002748E6009B059543F010030093009B8DF849
S3180800563E37109B063FF506AF009BDF0600F12A82009B5E64
S318080056510640F126820699B1F900600431F71732463B4674
S318080056640691FEE6A3F13002002519F8013B05EB850502F6
S31808005677EB4505A3F13002092AF5D9AFE5009B43F0800331
S3180800568A009399F800304846A5E599F8003048462B21A058
S3180800569DE5069A15681346002D03F10403C0F23D8206935F
S318080056B099F80030484693E56464000850640008C8650059
S318080056C30899F800302A2B09F1010000F07382A3F1300202
S318080056D6092A814698BF002000F2628219F8013B00EB80B4
S318080056E90002EB4000A3F13002092AF5D940EAE07201929D
S318080056FC72E505958DF83710002B00F0E8808DF848304F01
S3180800570FF0000301268DF8373012AB02960993BDE60223BA
S31808005722CEE51199109A9DF8373063B1013201310DF137B5
S31808005735000123072A1191109284E8090000F35F81083436
S31808005748079B5BB1013202310EA80223072A119110928458
S3180800575BE8090000F35D810834089B802B00F0CA80019B0B
S3180800576E02981D1A002D31DD102DB44F24DD01964FF010E7
S318080057810B3E462F46049D04E0103F102F04F1080415DDFD
S3180800579401321031072A1191109284E84008F2DD284651C9
S318080057A7460FAAFFF74BFC002840F09A80103F102F1199FB
S318080057BA109A4446E9DC3D463746019E2760013229440708
S318080057CD2A11911092656000F3FA8008340298099B23601E
S318080057E001320144072A11911092606000F3BF800834008D
S318080057F39B5B0739D5059B9D1B002D35DD102D109ADFF835
S3180800580648B226DD009610275E46AB46049D06E0ABF110EF
S318080058190BBBF1100F04F1080416DD01321031072A11915D
S3180800582C109284E8C000F0DD284651460FAAFFF703FC000D
S3180800583F2852D1ABF1100BBBF1100F1199109A4446E8DCD9
S318080058525D46B346009EC4F800B001322944072A1191100C
S3180800586592656000F30181039B059A9642ACBF9B199B186F
S318080058780393002940F081800023109399F800304446000E
S3180800588B2B7FF479AC4D4695E4012B7FF42EAD002F08BFBD
S3180800589E0A2EC0F0DC804546304639460A220023FBF7D113
S318080058B1FC30323046394605F8012D00230A22FBF7C8FC53
S318080058C406460F4656EA0703EBD12B460995C3EB08030252
S318080058D79362E0119B23B1049851460FAAFFF7AEFBBAF81E
S318080058EA0C3013F0400F039B18BF4FF0FF3318462DB0BD31
S318080058FDE8F08F059B9D1B002D7FF731AF102D4F4F23DD6D
S3180800591007964FF0100B3E462F46049D04E0103F102F046F
S31808005923F1080414DD01321031072A1191109284E84008D8
S31808005936F2DD284651460FAAFFF781FB0028D0D1103F1029
S318080059492F1199109A4446EADC3D463746079E276001320B
S3180800595C2944072A11911092656000F3EB800834FEE60401
S3180800596F9851460FAAFFF766FB0028B5D11199444637E7D8
