:020000040800F2
:100000000000022089010008B5010008B5010008C0
:10001000B5010008B5010008B501000800000000A6
:10002000000000000000000000000000B501000812
:10003000B501000800000000B5010008B501000886
:10004000B5010008B5010008B5010008B5010008B8
:10005000B5010008B5010008B5010008B5010008A8
:10006000B5010008B5010008B5010008B501000898
:10007000B5010008B5010008B5010008B501000888
:10008000B5010008B5010008B5010008B501000878
:10009000B5010008B5010008B5010008B501000868
:1000A000B5010008B5010008B5010008B501000858
:1000B000B5010008B5010008B5010008B501000848
:1000C000B5010008B5010008B5010008B501000838
:1000D000B5010008B5010008B5010008B501000828
:1000E000B5010008B5010008B5010008B501000818
:1000F000B5010008B5010008B5010008B501000808
:10010000B5010008B5010008B5010008B5010008F7
:10011000B5010008B5010008B5010008B5010008E7
:10012000B5010008B5010008B5010008B5010008D7
:10013000B5010008B5010008B5010008B5010008C7
:10014000B5010008B5010008B5010008B5010008B7
:10015000B5010008B5010008B5010008B5010008A7
:10016000B5010008B5010008B5010008B501000897
:10017000B5010008B5010008B5010008B501000887
:10018000B5010008B501000880B483B000AF41F2AA
:1001900034237B6000233B607B6801337B60FBE79B
:1001A000B601000800000020040000200400002028
:0601B00008000020FEE73C
:0401B60034120000FF
:040000050800018965
:00000001FF
