:020000040800F2
:1000000000000220C5120008D9020008E50200081D
:10001000ED020008F5020008FD02000800000000E3
:1000200000000000000000000000000005030008C0
:1000300011030008000000001D0300082903000848
:1000400019130008191300081913000819130008E0
:1000500019130008191300081913000819130008D0
:1000600019130008191300081913000819130008C0
:1000700019130008191300081913000819130008B0
:1000800019130008191300081913000819130008A0
:100090001913000819130008191300081913000890
:1000A0001913000819130008191300081913000880
:1000B0001913000819130008191300081913000870
:1000C0001913000819130008191300081913000860
:1000D0001913000819130008191300081913000850
:1000E0001913000819130008191300081913000840
:1000F0001913000819130008191300081913000830
:10010000191300081913000819130008191300081F
:10011000191300081913000819130008191300080F
:1001200019130008191300081913000819130008FF
:1001300019130008191300081913000819130008EF
:1001400019130008191300081913000819130008DF
:1001500019130008191300081913000819130008CF
:1001600019130008191300081913000819130008BF
:1001700019130008191300081913000819130008AF
:10018000191300081913000880B500AF124A124B6A
:100190001B6843F0010313600F4B00229A600E4A64
:1001A0000D4B1B6823F0847323F4803313600A4BD8
:1001B0000A4A5A60084A084B1B6823F480231360DC
:1001C000054B0022DA6000F00DF8054B4FF000629D
:1001D0009A6000BF80BD00BF00380240103000248C
:1001E00000ED00E080B483B000AF00237B6000230B
:1001F0003B60354A344B1B6843F480331360324B09
:100200001B6803F400333B607B6801337B603B6811
:10021000002B03D17B68B3F5A06FF0D12A4B1B688C
:1002200003F40033002B02D001233B6001E00023E4
:100230003B603B68012B42D1234A234B1B6C43F0AC
:1002400080531364214A214B1B6843F4804313609D
:100250001D4A1D4B9B6893601B4A1B4B9B6843F4D4
:1002600000439360184A184B9B6843F4A053936073
:10027000154B174A5A60144A134B1B6843F080739E
:10028000136000BF104B1B6803F00073002BF9D004
:10029000104B40F205621A600B4A0B4B9B6823F02F
:1002A00003039360084A084B9B6843F00203936082
:1002B00000BF054B9B6803F00C03082BF9D100BF6E
:1002C0000C37BD4680BC70470038024000700040CB
:1002D00008544007003C024080B400AF00BFBD4658
:1002E00080BC704780B400AFFEE700BF80B400AFB1
:1002F000FEE700BF80B400AFFEE700BF80B400AFF0
:10030000FEE700BF80B400AF00BFBD4680BC7047B1
:1003100080B400AF00BFBD4680BC704780B400AF62
:1003200000BFBD4680BC704780B400AF044B1B6863
:100330000133034A136000BFBD4680BC704700BF55
:100340001409002080B582B000AF00237B6004490F
:10035000044801F00BF87B6801337B60FBE700BFCA
:100360000C6200081809002090B585B000AF7860D5
:10037000144B1B68002B02D1124B134A1A60114B0D
:100380001B68FB60EFF308831C462346BB600D4BE4
:100390001A687B681A44BB689A4207D900F0BEFF0E
:1003A00002460C2313604FF0FF3306E0054B1A683A
:1003B0007B681344034A1360FB6818461437BD4634
:1003C00090BD00BFD0080020800900200064000814
:1003D00000000020D0080020D00800208009002064
:1003E00001F0FF01102A2BDB10F0070F08D010F8E6
:1003F000013B013A8B422DD010F0070F42B3F6D1EA
:10040000F0B441EA012141EA014122F007047FF002
:1004100000070023F0E80256083C85EA010586EA59
:10042000010685FA47F5A3FA87F586FA47F6A5FA95
:1004300087F68EB9EED1F0BC01F0FF0102F00702A1
:1004400032B110F8013B013A83EA010313B1F8D14C
:100450000020704701387047002D06BF354603382D
:10046000073815F0010F07D1013015F4807F02BF66
:10047000013015F4C03F0130F0BC0138704700BFB7
:10048000844641EA000313F003036DD1403A41D39F
:1004900051F8043B40F8043B51F8043B40F8043B5E
:1004A00051F8043B40F8043B51F8043B40F8043B4E
:1004B00051F8043B40F8043B51F8043B40F8043B3E
:1004C00051F8043B40F8043B51F8043B40F8043B2E
:1004D00051F8043B40F8043B51F8043B40F8043B1E
:1004E00051F8043B40F8043B51F8043B40F8043B0E
:1004F00051F8043B40F8043B51F8043B40F8043BFE
:1005000051F8043B40F8043B51F8043B40F8043BED
:10051000403ABDD2303211D351F8043B40F8043B8D
:1005200051F8043B40F8043B51F8043B40F8043BCD
:1005300051F8043B40F8043B103AEDD20C3205D39D
:1005400051F8043B40F8043B043AF9D2043208D095
:10055000D2071CBF11F8013B00F8013B01D30B8807
:1005600003806046704700BF082A13D38B078DD0E5
:1005700010F003038AD0C3F10403D21ADB071CBFB7
:1005800011F8013B00F8013B80D331F8023B20F821
:10059000023B7BE7043AD9D3013A11F8013B00F85A
:1005A000013BF9D20B7803704B7843708B788370E2
:1005B00060467047000000000000000000000000DE
:1005C000A2EB0300704700BF02780B78012A28BF16
:1005D0009A42F5D16DE9044540EA0104CDE902678C
:1005E0006FF0000C4FEA447212B380EA010414F079
:1005F000070F6AD100F0070420F0070004F003059C
:1006000021F007014FEAC505F0E8042314F0040FB8
:10061000F1E804670CFA05F462EA040266EA0406EB
:100620000AD063EA0403624667EA0407664603E009
:10063000F0E80423F1E8046782FA4CF582EA060444
:10064000A4FA8CF46CBB83FA4CF583EA0705A5FA8F
:100650008CF595B950E9022351E9026782FA4CF50D
:1006600082EA0604A4FA8CF483FA4CF583EA0705BF
:10067000A5FA8CF52543DBD09CB92DBAB5FA85F4E3
:1006800024F0070427FA04F1DDE9026723FA04F3F2
:1006900003F0FF0001F0FF01FDE80445A0EB0100BD
:1006A000704724BAB4FA84F424F0070426FA04F15B
:1006B000DDE9026722FA04F202F0FF0001F0FF0117
:1006C000FDE80445A0EB0100704714F0030F3CD196
:1006D00010F0030428D150F8082B51F8083B82FA97
:1006E0004CF582EA0305A5FA8CF55DB950F8042CA7
:1006F00051F8043C82FA4CF582EA0305A5FA8CF520
:10070000002DE8D02DBAB5FA85F424F0070423FAB9
:1007100004F122FA04F202F0FF0001F0FF01FDE80B
:100720000445A0EB010070474FEAC40420F0030029
:1007300050F8082B21F0030151F8083B0CFA04F49F
:1007400062EA040263EA0403C9E710F003041AD062
:10075000A1EB040120F00300E40750F8042B06D0BD
:100760000FD28B785FFAA2F4E41A06D12BB1CB78C2
:100770005FFAB2F4E41A00D11BB920465DF8104BC1
:10078000704701F1040150F8042BCC0721F003015C
:1007900051F8043B48D824D222F07F4482FA4CF529
:1007A00094EA1325A5FA8CF50AD165B951F8043BF2
:1007B00084EA0204B4EB036F0ED150F8042BEBE78C
:1007C0004FEA132355E035F07F454DD10878FDE819
:1007D0000445C0F1000070474FEA126203F0FF03C6
:1007E00047E002EA1C4482FA4CF594EA1345A5FA64
:1007F0008CF50AD165B951F8043B84EA0204B4EBE4
:10080000034F0CD150F8042BEBE74FEA134330E0D1
:1008100015EA1C4528D10B884FEA124229E04FEA1D
:10082000124203EA1C4324E002F0FF0482FA4CF572
:1008300094EA1365A5FA8CF50AD165B951F8043B21
:1008400084EA0204B4EB032F09D150F8042BEBE740
:100850004FEA13630DE015F0FF0F05D10B684FEA67
:10086000122223F07F4304E04FF00000FDE804452E
:10087000704712BA1BBA82FA4CF482EA0304A4FA53
:100880008CF5B5FA85F402FA04F203FA04F34FEAA0
:100890001260FDE80445A0EB136070470000000003
:1008A0000000000000000000000000000000000048
:1008B0000000000000000000000000000000000038
:1008C00090F800F06DE9024520F007016FF0000C90
:1008D00010F0070491F820F040F049804FF0000438
:1008E0006FF00700D1E9002391F840F000F1080013
:1008F00082FA4CF2A4FA8CF283FA4CF3A2FA8CF34B
:100900004BBBD1E9022382FA4CF200F10800A4FAB1
:100910008CF283FA4CF3A2FA8CF3E3B9D1E9042305
:1009200082FA4CF200F10800A4FA8CF283FA4CF33C
:10093000A2FA8CF37BB9D1E9062301F1200182FAF6
:100940004CF200F10800A4FA8CF283FA4CF3A2FAFC
:100950008CF3002BC6D0002A04BF04301A4612BA0A
:10096000B2FA82F2FDE8024500EBD2007047D1E90D
:10097000002304F00305C4F100004FEAC50514F09C
:10098000040F91F840F00CFA05F562EA05021CBF6D
:1009900063EA050362464FF00004A9E781F00041D5
:1009A00002E000BF83F0004330B54FEA41044FEA54
:1009B000430594EA050F08BF90EA020F1FBF54EAEF
:1009C000000C55EA020C7FEA645C7FEA655C00F08B
:1009D000E2804FEA5454D4EB5555B8BF6D420CDD5C
:1009E0002C4480EA020281EA030382EA000083EADF
:1009F000010180EA020281EA0303362D88BF30BD7F
:100A000011F0004F4FEA01314FF4801C4CEA1131D4
:100A100002D0404261EB410113F0004F4FEA033333
:100A20004CEA133302D0524263EB430394EA050FBE
:100A300000F0A780A4F10104D5F1200E0DDB02FA2D
:100A40000EFC22FA05F2801841F1000103FA0EF2C1
:100A5000801843FA05F359410EE0A5F120050EF187
:100A6000200E012A03FA0EFC28BF4CF0020C43FAB8
:100A700005F3C01851EBE37101F0004507D54FF0C5
:100A8000000EDCF1000C7EEB00006EEB0101B1F515
:100A9000801F1BD3B1F5001F0CD349085FEA30005B
:100AA0004FEA3C0C04F101044FEA445212F5800F66
:100AB00080F09A80BCF1004F08BF5FEA500C50F103
:100AC000000041EB045141EA050130BD5FEA4C0CE6
:100AD000404141EB010111F4801FA4F10104E9D16F
:100AE00091F0000F04BF01460020B1FA81F308BF66
:100AF0002033A3F10B03B3F120020CDA0C3208DD32
:100B000002F1140CC2F10C0201FA0CF021FA02F10C
:100B10000CE002F11402D8BFC2F1200C01FA02F17C
:100B200020FA0CFCDCBF41EA0C019040E41AA2BFA1
:100B300001EB0451294330BD6FEA04041F3C1CDA69
:100B40000C340EDC04F11404C4F1200220FA04F089
:100B500001FA02F340EA030021FA04F345EA030133
:100B600030BDC4F10C04C4F1200220FA02F001FAF5
:100B700004F340EA0300294630BD21FA04F0294677
:100B800030BD94F0000F83F4801306BF81F4801110
:100B90000134013D4EE77FEA645C18BF7FEA655C83
:100BA00029D094EA050F08BF90EA020F05D054EA55
:100BB000000C04BF1946104630BD91EA030F1EBF5A
:100BC0000021002030BD5FEA545C05D1400049415E
:100BD00028BF41F0004130BD14F580043CBF01F551
:100BE000801130BD01F0004545F0FE4141F4700137
:100BF0004FF0000030BD7FEA645C1ABF1946104612
:100C00007FEA655C1CBF0B46024650EA013406BF12
:100C100052EA033591EA030F41F4002130BD00BFD1
:100C200090F0000F04BF0021704730B54FF480648E
:100C300004F132044FF000054FF0000150E700BF0F
:100C400090F0000F04BF0021704730B54FF480646E
:100C500004F1320410F0004548BF40424FF000015B
:100C60003EE700BF42004FEAE2014FEA31014FEA9E
:100C700002701FBF12F07F4393F07F4F81F06051ED
:100C8000704792F0000F14BF93F07F4F704730B55C
:100C90004FF4607401F0004521F0004120E700BFEF
:100CA00050EA010208BF704730B54FF000050AE076
:100CB00050EA010208BF704730B511F0004502D577
:100CC000404261EB41014FF4806404F132045FEA79
:100CD000915C3FF4DCAE4FF003025FEADC0C18BF1E
:100CE00003325FEADC0C18BF033202EBDC02C2F114
:100CF000200300FA03FC20FA02F001FA03FE40EAA6
:100D00000E0021FA02F11444C1E600BF70B54FF0A5
:100D1000FF0C4CF4E06C1CEA11541DBF1CEA135587
:100D200094EA0C0F95EA0C0F00F0DEF82C4481EAEF
:100D3000030621EA4C5123EA4C5350EA013518BF0F
:100D400052EA033541F4801143F4801338D0A0FBFC
:100D500002CE4FF00005E1FB02E506F00042E0FBA9
:100D600003E54FF00006E1FB03569CF0000F18BFAF
:100D70004EF0010EA4F1FF04B6F5007F64F5407457
:100D800004D25FEA4E0E6D4146EB060642EAC621EA
:100D900041EA55514FEAC52040EA5E504FEACE2E57
:100DA000B4F1FD0C88BFBCF5E06F1ED8BEF1004F5A
:100DB00008BF5FEA500E50F1000041EB045170BDD6
:100DC00006F0004646EA010140EA020081EA03011A
:100DD000B4EB5C04C2BFD4EB0C0541EA045170BD16
:100DE00041F480114FF0000E013C00F3AB8014F190
:100DF000360FDEBF002001F0004170BDC4F10004D9
:100E0000203C35DA0C341BDC04F11404C4F1200559
:100E100000FA05F320FA04F001FA05F240EA0200B4
:100E200001F0004221F0004110EBD37021FA04F6EA
:100E300042EB06015EEA430E08BF20EAD37070BDA4
:100E4000C4F10C04C4F1200500FA04F320FA05F003
:100E500001FA04F240EA020001F0004110EBD37005
:100E600041F100015EEA430E08BF20EAD37070BD75
:100E7000C4F1200500FA05F24EEA020E20FA04F34E
:100E800001FA05F243EA020321FA04F001F00041FD
:100E900021FA04F220EA020000EBD3705EEA430E6E
:100EA00008BF20EAD37070BD94F0000F0FD101F09D
:100EB0000046400041EB010111F4801F08BF013CD6
:100EC000F7D041EA060195F0000F18BF704703F014
:100ED0000046520043EB030313F4801F08BF013D9B
:100EE000F7D043EA0603704794EA0C0F0CEA135557
:100EF00018BF95EA0C0F0CD050EA410618BF52EA11
:100F00004306D1D181EA030101F000414FF0000016
:100F100070BD50EA410606BF1046194652EA430624
:100F200019D094EA0C0F02D150EA013613D195EA98
:100F30000C0F05D152EA03361CBF104619460AD1E0
:100F400081EA030101F0004141F0FE4141F47001EA
:100F50004FF0000070BD41F0FE4141F4780170BDDA
:100F600070B54FF0FF0C4CF4E06C1CEA11541DBF3F
:100F70001CEA135594EA0C0F95EA0C0F00F0A7F841
:100F8000A4EB050481EA030E52EA03354FEA01316E
:100F900000F088804FEA03334FF0805545EA131381
:100FA00043EA12634FEA022245EA111545EA106549
:100FB0004FEA00260EF000419D4208BF964244F1E0
:100FC000FD0404F5407402D25B084FEA3202B61AFF
:100FD00065EB03055B084FEA32024FF480104FF4D3
:100FE000002CB6EB020E75EB030E22BFB61A754647
:100FF00040EA0C005B084FEA3202B6EB020E75EBDA
:10100000030E22BFB61A754640EA5C005B084FEA41
:101010003202B6EB020E75EB030E22BFB61A75460E
:1010200040EA9C005B084FEA3202B6EB020E75EB19
:10103000030E22BFB61A754640EADC0055EA060EDA
:1010400018D04FEA051545EA16754FEA06164FEA1D
:10105000C30343EA52734FEAC2025FEA1C1CC0D1C9
:1010600011F4801F0BD141EA00014FF000004FF056
:10107000004CB6E711F4801F04BF01430020B4F117
:10108000FD0C88BFBCF5E06F3FF6AFAEB5EB030CCF
:1010900004BFB6EB020C5FEA500C50F1000041EBCC
:1010A000045170BD0EF0004E4EEA113114EB5C0499
:1010B000C2BFD4EB0C0541EA045170BD41F480116C
:1010C0004FF0000E013C90E645EA060E8DE60CEA74
:1010D000135594EA0C0F08BF95EA0C0F3FF43BAF91
:1010E00094EA0C0F0AD150EA01347FF434AF95EA48
:1010F0000C0F7FF425AF104619462CE795EA0C0F2C
:1011000006D152EA03353FF4FDAE1046194622E7F8
:1011100050EA410618BF52EA43067FF4C5AE50EAD2
:1011200041047FF40DAF52EA43057FF4EBAE12E7C2
:101130004FF0FF3C06E000BF4FF0010C02E000BFA3
:101140004FF0010C4DF804CD4FEA410C7FEA6C5C86
:101150004FEA430C18BF7FEA6C5C1BD001B050EA29
:10116000410C0CBF52EA430C91EA030F02BF90EA14
:10117000020F0020704710F1000F91EA030F58BFD3
:10118000994208BF90422CBFD8176FEAE37040F035
:10119000010070474FEA410C7FEA6C5C02D150EAD3
:1011A000013C07D14FEA430C7FEA6C5CD6D152EA8E
:1011B000033CD3D05DF8040B704700BF8446104653
:1011C00062468C461946634600E000BF01B5FFF752
:1011D000B7FF002848BF10F1000F01BD4DF808ED22
:1011E000FFF7F4FF0CBF012000205DF808FB00BFF3
:1011F0004DF808EDFFF7EAFF34BF012000205DF84D
:1012000008FB00BF4DF808EDFFF7E0FF94BF012099
:1012100000205DF808FB00BF4DF808EDFFF7CEFF9A
:1012200094BF012000205DF808FB00BF4DF808EDD9
:10123000FFF7C4FF34BF012000205DF808FB00BFAA
:101240004FEA410212F5001215D211D56FF47873EE
:10125000B3EB625212D94FEAC12343F0004343EA91
:10126000505311F0004F23FA02F018BF404270476C
:101270004FF00000704750EA013005D111F00040F6
:1012800008BF6FF0004070474FF00000704700BF8C
:1012900053B94AB9002908BF00281CBF4FF0FF31DD
:1012A0004FF0FF3000F00CB8ADF1080C6DE904CE42
:1012B00004F046FEDDF804E0DDE9022304B07047E7
:1012C000704700BF002103E00D4B5B5843500431D1
:1012D0000C480D4B42189A42F6D30C4A02E0002308
:1012E00042F8043B0A4B9A42F9D30A48016841F498
:1012F00070010160FEF748FFFFF724F8704700DF38
:101300000064000800000020D0080020D008002061
:101310008009002088ED00E0FEE70000014B18681E
:10132000704700BF400400200CB4F0B59DB022AC63
:10133000029154F8042B069123466FF000454FF4B8
:1013400002774FF6FF7602A90194ADF81470049568
:101350000795ADF8166000F02FF8029B00221A7076
:101360001DB0BDE8F04002B0704700BF0EB4F0B54C
:101370009CB021AB0F4953F8042B019305466FF045
:101380000044086802954FF402774FF6FF7602A9F1
:101390000695ADF8147004940794ADF8166000F04B
:1013A0000BF8029B00221A701CB0BDE8F04003B09D
:1013B000704700BF400400202DE9F04FBFB00C463D
:1013C000079192460D93099002F02EFB0368159346
:1013D0001846FFF775FAA38914901D0603D52369F3
:1013E000002B01F0278100231A46119323932293A7
:1013F00016930A932EAB21939946129213929AF860
:1014000000305446EBB1252B02D11AE0252B03D036
:1014100014F8013F002BF9D1CAEB04058DB1229BD2
:10142000239AC9F800A001332A44072BC9F80450B5
:101430002392229300F3A68009F108090A9B2B440A
:101440000A932378002B00F0A68000231A468DF81B
:10145000673019460B9306934FF0FF3B637804F116
:10146000010A5D460AF1010AA3F12000582800F2A2
:101470001884DFE810F07C031604160484031604B5
:10148000160416041604160416048B039903160496
:101490005D00E2001604FE000501050105010501DD
:1014A00005010501050105010501160416041604D0
:1014B0001604160416041604160416041604150160
:1014C0008402160484021604160416041604BA02D2
:1014D00016041604C1021604160416041604160493
:1014E000EB02160416041903160416041604160457
:1014F0001604160416041604160416045A036D0383
:1015000084028402840275036D0316041604C40366
:101510001604CE03A3006400E1031604E8031604D6
:101520009E0316041604AF030B980D9340420B90D4
:10153000069B43F0040306939AF8003092E70D9857
:10154000AB46002104688DF86710071D069830230C
:1015500078228B458DF868304FF000058DF86920B2
:1015600040F00203C0F2BA8320F0800343F002038C
:10157000069354EA05030D9700F086830F460F92F9
:10158000B248C2E221AA0799099803F0D1F948B9F3
:101590000DF1B80952E7239B23B10998079921AAB5
:1015A00003F0C6F9079B9B8913F0400F0A9B18BFF5
:1015B0004FF0FF3318463FB0BDE8F08F0F93AB46B6
:1015C000002A41F02D82069A12F0200300F02282B8
:1015D0000D9F073727F00703002703F10801BB45DC
:1015E0000D91D3E900458DF86770C0F2A68622F010
:1015F0008003069354EA050300F068832EAEE208E8
:1016000042EA4572E90804F007030D4614463033F8
:1016100054EA050206F8013DF1D1069AD10740F1DE
:101620008480302B00F081803022731E06F8012C5C
:101630002EAAD21A0C921E467AE09AF800302A2B73
:101640000AF1010401F0B581A3F13000092898BF27
:10165000002501F2EB8014F8013B05EB850500EB5A
:101660004505A3F130000928F5D945EAE575A246FC
:10167000FAE6069B43F0800306939AF80030F1E601
:10168000A3F1300000231C461AF8013B04EB84044C
:1016900000EB4404A3F130000928F5D90B94E3E6EC
:1016A0000F93AB46002A41F0B781069B43F010032D
:1016B0000693069B980640F120850D9F073727F07B
:1016C0000707D7E9002307F108010D9114461D46CD
:1016D000002A73F10003C0F24D85BBF1000F9DF8A5
:1016E0006770C0F23585069B23F08003069354EAA9
:1016F000050300F0CF81002D08BF0A2CC0F0CF8178
:101700002EAE204629460A220023FFF7C1FD3032C3
:1017100006F8012D2046294600230A22FFF7B8FDCE
:1017200004460D4654EA0503EBD12EAB9B1B0C93EC
:101730000C9B5B45B8BF5B4608930023109317B121
:10174000089B01330893069B13F002030E9302D00B
:10175000089B02330893069B13F0840840F0CB8269
:101760000B9B089A9D1A002D40F3C582102D2399DA
:10177000229A374F23DD48461024C146B046099EC1
:1017800004E0103D102D00F1080015DD013210318C
:10179000072A2391229207604460F2DD21AA07996B
:1017A000304603F0C5F800287FF4FCAE103D102D44
:1017B0002399229A2EA8E9DC4646C8468146013282
:1017C0006C18072A23942292C9F80070C9F80450B3
:1017D00000F31F849DF8677009F1080977B1229B17
:1017E000013301340DF167010122072B2394229369
:1017F00089E8060000F3968309F108090E9B6BB196
:10180000229B013302341AA90222072B239422932C
:1018100089E8060000F3928309F10809B8F1800F06
:1018200000F0CD820C9BC3EB0B07002F41DD102F86
:10183000229BDFF820802FDD41462246B0464FF044
:10184000100B099D079C0E460BE000BF706200085C
:101850003C6200082C620008103F102F09F10809B3
:1018600016DD01331032072B2392229389E84008BA
:10187000F2DD21AA2146284603F05AF800287FF419
:1018800091AE103F102F239A229B0DF1B809E8DC8E
:10189000144632464646904601333C44072B239477
:1018A0002293C9F80080C9F8047000F32F8309F16E
:1018B0000809069BDA0500F12082229B0C99C9F8E1
:1018C000006001330C44072B2394C9F804102293C1
:1018D00000F3068309F10809069B59073FD50B9BC6
:1018E000089A9D1A002D3ADD102D229BB54F23DD5D
:1018F0001026DDF82480DDF81CB004E0103D102D2A
:1019000009F1080918DD01331034072B23942293C1
:10191000C9F80070C9F80460F0DD21AA59464046B4
:1019200003F006F800287FF43DAE103D102D239CF7
:10193000229B0DF1B809E6DC01332C44072B2394DC
:101940002293C9F80070C9F8045008DD21AA07994C
:10195000099802F0EDFF00287FF424AE239C0A9B37
:101960000B9A08998A42ACBF9B185B180A93002C0B
:1019700040F0C282002322930DF1B8093FE50F9396
:10198000AB46002A41F044800D9F073727F007033C
:1019900003F108020D921A6812925B681393129D6C
:1019A000139C2846214602F087FF012840F09984C5
:1019B0002846214600220023FFF71AFC002840F0A9
:1019C000C7869DF8677006997F4E804B21F0800195
:1019D00006910F9903224FF0000B08924729D8BFB8
:1019E0001E460C92CDF840B0A9E6069B43F00803D2
:1019F00006939AF8003035E50F93AB46002A41F084
:101A00001E80069B43F010030693069A12F02003F3
:101A10007FF4DEAD069911F0100200F07C840D9881
:101A20008DF86730BBF1000F046800F104074FF038
:101A30000005C0F281840A4622F08002069254EA30
:101A400005020D9700F042811F46D7E50F93AB4684
:101A5000002A40F0CC87069B43F010030693069AB9
:101A600012F0200300F02E830D9F073727F00703A5
:101A7000002703F10801BB450D91D3E900458DF81E
:101A80006770C0F2658322F08003069354EA050371
:101A90007FF431AEBBF1000F00F0FD8000243EAEBC
:101AA000303406F8414D40E60F93AB46002A40F033
:101AB0009A87069B46489D0640F196800D9F073702
:101AC00027F00703D3E9004503F108020D92069AB7
:101AD00012F0010700F03E8254EA050300F0718421
:101AE0009DF83C208DF869200027069A8DF86770D4
:101AF0003023BB458DF8683042F00203C0F22586E2
:101B000022F0800343F0020306932EAE230904F073
:101B10000F0143EA05732A091C461546435C06F883
:101B2000013D54EA0503F1D1FFE50D990F930A68D1
:101B30008DF8902000230A461F468DF86730043246
:101B400001230893BB4610970D920C9324AEFAE53F
:101B50000F93AB46002A3FF4ACAD8DF86710A8E5B3
:101B6000069B43F0400306939AF800307AE49AF813
:101B7000003000297FF476AC0122202172E4069B1C
:101B800043F0010306939AF800306BE40D9C236840
:101B90000B9318460028234603F10403FFF6C4AC58
:101BA0000D939AF800305DE49AF8003001222B2161
:101BB00058E40F93AB46002A3FF451AF8DF86710FD
:101BC0004DE700BF3C620008506200084C6200080C
:101BD0005C6200080F93AB46002A40F00F87069B1B
:101BE00098489D063FF56AAF069BDC0640F1BF832F
:101BF0000D9A1346043314680D93002567E79AF88D
:101C000000306C2B00F06D84069840F010000690B8
:101C100028E4002A40F0F886069B9B0640F190835A
:101C20000D9A0A991368CD170846043229460D9279
:101C3000C3E90001FFF7E3BB069B43F020030693D3
:101C40009AF800300EE40D9A0F93166800248DF870
:101C50006740171D002E00F06985002DC0F2258514
:101C60002A4621463046FEF7BBFB002800F0998546
:101C7000831B0C93A34623EAE3730D970893CDF8D7
:101C800040B09DF867705AE56E480F92BBF1000FA7
:101C900040F071815F464FF0000BCDF830B02EAEB2
:101CA00046E50F93002A40F09A860F9A002A3FF4E7
:101CB00072AC002301211F4608918DF890208DF809
:101CC00067309B4610930C9124AE3CE5BBF1000FAE
:101CD00000F058860027002400258FE45948069319
:101CE0000F9254EA05030D974FF000077FF40DAFF4
:101CF0000024002509E7239C70E50F9B652B40F32A
:101D0000A7801298139900220023FFF767FA002892
:101D100000F03381229B4C4AC9F800200133013482
:101D20000122072B23942293C9F8042000F3668331
:101D300009F108091B9B119A934203DB069BDB0701
:101D40007FF5CAAD229B1499159AC9F8002001337A
:101D50000C44072B2394C9F80410229300F3CB837F
:101D600009F10809119B5D1E002D7FF7B5AD102DFF
:101D7000229BDFF8D88040F3D1811026099FDDF83F
:101D80001CB005E009F10809103D102D40F3C68193
:101D900001331034072B23942293C9F80080C9F82B
:101DA0000460EFDD21AA5946384602F0C1FD002843
:101DB0007FF4F8AB239C229B0DF1B809E4E70B9B61
:101DC000089A9F1A002F7FF72DAD102F229BDFF866
:101DD0007C8029DD40464A462146B0461025099CB4
:101DE000DDF81C90064604E0103F102F02F10802B7
:101DF00015DD01331031072B2391229316605560B6
:101E0000F2DD21AA4946204602F092FD00287FF427
:101E1000C9AB103F102F2399229B2EAAE9DC9146D3
:101E200032460C464646904601333C44072B2394E9
:101E30002293C9F80080C9F8047000F3458209F1C3
:101E40000809EFE4706200088C6200082C62000848
:101E5000119B229D012B40F30C820135013401239B
:101E6000072D23942295C9F80060C9F8043000F3C7
:101E7000118209F10809149A159BC9F8003001353F
:101E80001444072D23942295C9F8042000F30F82EF
:101E900009F108090023129813990022FFF79EF90F
:101EA000119B002840F0C480013B013501361C44E1
:101EB000072D22952394C9F80060C9F8043000F377
:101EC000F48009F10809169AC9F804200135144470
:101ED0001DAB072D23942295C9F800307FF7FAAC8B
:101EE00021AA0799099802F023FD00287FF45AAB34
:101EF000239C0DF1B809EFE421AA0799099802F093
:101F000017FD00283FF436ADFFF74CBB21AA079917
:101F1000099802F00DFD00287FF444AB239C0DF1DD
:101F2000B809C6E421AA0799099802F001FD002822
:101F30007FF438AB239C0DF1B8095FE421AA07991F
:101F4000099802F0F5FC00287FF42CAB239C0DF1DE
:101F5000B80963E4BBF1000F8DF86770C0F25A82D4
:101F600022F08003069354EA05037FF4CEADBBF163
:101F7000000F3FF48FAE0027BAE61B9D002D40F303
:101F80004B82109B119A9342A8BF1346002B1D460B
:101F90000DDD229BC9F8006001332C44072B2394EC
:101FA000C9F80450229300F3888309F10809109BB3
:101FB000002DA8BF5B1B002B1D4640F3F780102DA2
:101FC000229BDFF8588540F30B8241462246B046FB
:101FD0001027DDF824B0079C0E4605E009F108093A
:101FE000103D102D40F3F88101331032072B23925E
:101FF000229389E8C000F1DD21AA2146584602F06B
:1020000097FC00287FF4CEAA239A229B0DF1B809F1
:10201000E6E721AA0799099802F08AFC00287FF4D4
:10202000C1AA9DF86770239C0DF1B809FFF7D6BBD4
:102030005E1E002E7FF747AF102EDFF8E08429DD0B
:10204000CDF830A01027C246DDF824B0DDF81C80A2
:1020500004E0103E102E09F1080918DD0135103496
:10206000072D23942295C9F800A0C9F80470F0DD6B
:1020700021AA4146584602F05BFC00287FF492AA50
:10208000103E102E239C229D0DF1B809E6DCD046AF
:10209000DDF830A0C9F8008001353444072D2394C1
:1020A0002295C9F804607FF70CAF21AA0799099817
:1020B00002F03EFC00287FF475AA239C229D0DF1BE
:1020C000B80900E7069911F0100200F05E810D9842
:1020D0008DF86730BBF1000F046800F104074FF082
:1020E000000533DB0A4622F08002069254EA05021C
:1020F0000D971F467FF4FFAACCE4069BD9062CD48B
:10210000069B5A0629D50D99B1F900400431E5170F
:1021100022462B460D91FFF7DBBAB84601332C441B
:10212000072B23942293C9F80080C9F804507FF745
:10213000D1ABD5E60D998DF86730BBF1000F0C6877
:1021400001F104074FF0000580F2BA810D971F4698
:1021500054EA05037FF4CFAAA1E40D9A146813464C
:102160000433E51722460D93002A2B4673F1000332
:10217000BFF6B3AA64424FF02D0765EB4505BBF1EE
:10218000000F8DF86770FFF6B6AA069B23F0800358
:102190000693FFF7B0BA21AA0799099802F0C8FB85
:1021A00000287FF4FFA9239C0DF1B809109A1B9B0E
:1021B00032441746119A93424ADB069AD50747D410
:1021C00011990E44F51BCB1A9D42A8BF1D46002D48
:1021D0002E460DDD229AC9F8007001322C44072AE0
:1021E0002394C9F80450229200F3918209F108095E
:1021F000002EACBF9D1B1D46002D7FF76DAB102D33
:10220000229BDFF8188389DD47461026DDF81CB0D5
:10221000DDF8248005E009F10809103D102D7FF755
:102220007CAF01331034072B23942293C9F800703C
:10223000C9F80460EFDD21AA5946404602F078FB58
:1022400000287FF4AFA9239C229B0DF1B809E4E795
:10225000229A14981599C9F8001001320444072AEB
:102260002394C9F80400229200F3338209F108098B
:10227000A6E7069BD8073FF5F0AD013501340123F1
:10228000072D23942295C9F80060C9F804307FF720
:1022900018AE0AE721AA0799099802F049FB00281D
:1022A0007FF480A9239C229D0DF1B809E3E521AAC2
:1022B0000799099802F03CFB00287FF473A9239C3E
:1022C000229D0DF1B809E5E521AA0799099802F0C8
:1022D0002FFB00287FF466A9239C0DF1B809FFF7B6
:1022E000A1BA1298139902F0E7FA002840F0188179
:1022F0000699874E874B9DF86770109021F08001FA
:1023000006910F990322834608924729D8BF1E469B
:102310000C92FFF714BA069911F0400300F0D28036
:102320000D988DF86720BBF1000F048800F10407B9
:102330004FF0000580F273810D970027FFF75EB91B
:10234000069BDF060BD4069B5E0608D50D9A136824
:1023500004320D92BDF828201A80FFF750B80D9A6C
:10236000136804320D920A9A1A60FFF748B80D9A62
:10237000069B13F0400F134603F104030CBF1468CF
:1023800014880D930025FFF7A2BB069911F04003B6
:102390003FF4D0AE0D988DF86720BBF1000F048894
:1023A00000F104074FF00005C0F2638121F08003C3
:1023B000069354EA05030D9717467FF49CA9FFF78F
:1023C00069BB0027BB458DF86770FFF691AC069B93
:1023D00023F08003069359E414463246464690465D
:1023E00001332C44072B23942293C9F80080C9F8A9
:1023F00004503FF7D0AE09F10809D7E621AA0799A2
:10240000099802F095FA00287FF4CCA8239C0DF1DE
:10241000B8098FE40D9F64E4229B3F4AC9F800206D
:10242000013301340122072B23942293C9F804209D
:1024300000F30F8109F108092DB9119B1BB9069B07
:10244000DF077FF549AA229B1499159AC9F8002045
:1024500001330C44072B2394C9F80410229300F392
:10246000D78109F108096D42002D40F31181102D2B
:10247000DFF8A88040F33E8141462246B04610274F
:10248000DDF824B0079C0E4605E009F10809103D6F
:10249000102D40F32B8101331032072B239222930E
:1024A00089E8C000F1DD21AA2146584602F040FA31
:1024B00000287FF477A8239A229B0DF1B809E6E75C
:1024C000069A10E60D998DF86730BBF1000F0C6885
:1024D00001F104074FF00005FFF62EAF069AFFF753
:1024E000ABBA069B43F0200306930AF1010A9AF85F
:1024F0000030FEF7B7BF21AA0799099802F018FA31
:1025000000287FF44FA8239C0DF1B8092AE400BFEE
:1025100058620008546200088C6200082C620008AF
:102520000F9BBBF1FF3F23F02003089300F09E8038
:10253000472B04D1BBF1000F08BF4FF0010B069BE6
:10254000DDF8488043F480730E93139B1F1EB6BFC3
:1025500003F1004700232D2317930F9B662B00F0F8
:102560007681462B00F0C581089B1FA8452B1CA92E
:102570000CBF0BF101055D46049003911BA80221DD
:102580003B460290424601950091099800F0F0FA0E
:102590000F9B672B064600F0E0800F9B472B00F057
:1025A000EC8074194046394600220023FEF716FEDF
:1025B000002840F0F4801F9B9C4206D930215A1C11
:1025C0001F9219701F9B9C42F9D89B1B1193089B6B
:1025D000472B00F0DD800F9B652B40F313820F9B90
:1025E000662B1B9B109300F04B81109A11998A4225
:1025F000C0F22081069BD90700F1928122EAE273A2
:102600000C9267220F92179A002A40F0AC80089330
:102610000E9B069393469DF86770FFF790B821F0E4
:102620008003069354EA05030D973FF44FAB17461A
:10263000FEF7E4BF4021099801F006FA079A1060FE
:102640001061002800F0F481079A40235361FEF7DF
:10265000CABE21AA0799099802F06AF900287EF4F7
:10266000A1AF1B9D239C0DF1B809E5E64FF0060BC9
:1026700065E70D9717466BE521AA0799099802F0BF
:1026800057F900287EF48EAF239C229B0DF1B809E8
:102690001199C9F8006001330C44072B239422934D
:1026A000C9F804107FF716A91AE43046FEF708F9B6
:1026B000A34603460C90FFF7DEBA21AA07990998B2
:1026C00002F036F900287EF46DAF239C0DF1B809B5
:1026D0006DE421AA0799099802F02AF900287EF4EE
:1026E00061AF1B9B239C0DF1B80969E51446324686
:1026F0004646904601332C44072B23942293C9F875
:102700000080C9F80450B7DC09F10809C0E721AA24
:102710000799099802F00CF900287EF443AF1B9B3F
:10272000119A239CD31A0DF1B80961E5062D2B46A9
:1027300028BF06230C9323EAE373B3460D97109644
:1027400037460893B84EFEF7FABF0693FFF7DDB998
:102750002D278DF86770FFF736B9069BDA073FF52E
:1027600020AF1F9B31E72D2708930E9B06938DF812
:1027700067704FF0000BFEF7E3BF069BDB0700F12D
:10278000C9801F9B9B1B1193089B472B40F03A81EC
:102790001B9BDD1C10DB9B450EDB109325E72346BE
:1027A00013E725EAE5730D9708930C95834610907F
:1027B0009DF86770FEF7C3BF0F9A023A0F92013B74
:1027C000002B9DF83C201B93B8BF5B428DF8742012
:1027D000B4BF2D222B22092B8DF875205DDC303300
:1027E00030228DF877308DF876201EAB1DAA9B1A0B
:1027F000119A1693012A13440C9340F3B0800C9B5A
:10280000149A134400220C93109223EAE373FAE61D
:1028100021AA0799099802F08BF800287EF4C2AE2D
:102820001B9D239C229B0DF1B8091CE6A2460025A6
:10283000FEF71ABE149A119B1344109A0C93002AA7
:1028400040F3AF80672223EAE3730F92DBE61FA811
:102850001CA9049003911BA80321029042463B4609
:10286000CDF804B00091099800F082F95D46064663
:1028700000EB0B043378302B5BD01B9D2C4491E68E
:10288000002B76DDBBF1000F60D1069AD4075DD432
:102890001A460C9223EAE373B5E60DF18304204651
:1028A000624A82FB0321DA17C2EBA10202EB82012A
:1028B000A3EB410303F13001092A134600F8011D7F
:1028C000EEDC02463033DBB202F8013D944240F2C6
:1028D00092800DF17601024601E012F8013B01F809
:1028E000013B9442F9D1631C1B1A0DF1760213448B
:1028F0007CE71FA81CA9049003911BA80321029048
:1029000042463B46CDF804B00091099800F030F9FA
:102910005D4606460F9B462B06EB0504AAD041E612
:10292000149A109B134467220C930F9223EAE373CB
:1029300069E64046394600220023FEF74FFC002896
:102940009BD1C5F101051B952C442BE6109B149AD5
:102950009D1805EB0B030C9323EAE37353E6069BE8
:1029600013F001037FF44BAF10930C9B23EAE37346
:1029700049E6BBF1000F2AD1069BD80727D40123D3
:102980000C9340E6069BDB075F4605D53EAE302341
:1029900006F8413DFEF7C9BECDF830B02EAEFEF7C9
:1029A000C7BE109B0C9AC3F101031A4413460C9244
:1029B00048E70D989AF8013005680430002D0D9015
:1029C000A246BEF64FAD4FF0FF35FEF74BBD149B50
:1029D0005D1C05EB0B030C9323EAE37313E68DF800
:1029E0006710FFF762B98DF86710FFF762B88DF8CE
:1029F0006710FFF730B80DF17603F7E68DF8671032
:102A0000FFF7EDB81B9BDAE68DF86710FFF704B906
:102A10008DF86710FEF7B8BF8DF86710FEF745BE5A
:102A20008DF86710FEF7CFBD8462000867666666A2
:102A3000099A0C2313604FF0FF30FEF7BCBD8DF8F0
:102A40006710FEF7DEBF00BF02690B69934200F317
:102A50008D802DE9F04F03F1FF3801F1140700F1EB
:102A6000140B57F828205BF828304FEA880483B00D
:102A70000132B3FBF2F90BEB0403009407EB040AF9
:102A80000193B9F1000F39D00025BC46DE462B4634
:102A90005CF8046BDEF80020B4B209FB0455360C78
:102AA0002C0C09FB0644ADB25B1BA6B213FA82F3F1
:102AB000C6EB124606EB23469BB243EA0643E245C9
:102AC0004EF8043B4FEA14454FEA2643E0D2009B00
:102AD0005BF8033093B9019C231F9B450CD254F83B
:102AE000043C4BB9A4F1080302E01A68043B1AB98C
:102AF0009B4508F1FF38F8D3C0F81080044601F078
:102B0000B3FC00282EDB09F101095D46002357F8CC
:102B1000041B28688AB29A1A090C12FA80F2C1EBD7
:102B2000104303EB224391B241EA0341BA4545F811
:102B3000041B4FEA2343EAD25BF828200BEB8803FF
:102B400082B91A1F93450BD253F8042C42B9083BA3
:102B500002E01A68043B1AB99B4508F1FF38F8D324
:102B6000C4F81080484603B0BDE8F08F00207047DD
:102B70002DE9F04F016C97B08146239C92469B460D
:102B800049B1426C4A60012393408B6001F03EFAE8
:102B90000023C9F84030BBF1000FD84633DB0023D7
:102BA0002360A54B1A4608EA0303934214D050460B
:102BB000594600220023FEF711FB054648B3229A2E
:102BC00001231360249B002B00F0C5809B481860F4
:102BD000013817B0BDE8F08F229A42F20F731360EC
:102BE000BAF1000F00F0A2809548249B002BF0D092
:102BF000C378002B00F0B18000F10803249A136021
:102C000017B0BDE8F08F01232BF000482360C346C6
:102C1000C7E714AA15AB0192009352465B4648469B
:102C200001F058FD5FEA1854089040F08880149D28
:102C3000159C2C4404F23243202B40F39182C3F1C3
:102C4000400304F2124008FA03F82AFA00F040EABE
:102C50000800FDF7E5FF0123013CA1F1F871109395
:102C60000022784BFDF79EFE6DA3D3E90023FEF70B
:102C70004DF86DA3D3E90023FDF796FE06462046E6
:102C80000F46FDF7DDFF6AA3D3E90023FEF73EF808
:102C900002460B4630463946FDF786FE06460F468D
:102CA000FEF7CEFA00220490002330463946FEF7A4
:102CB0009FFA002840F03082049E162E00F22982EE
:102CC000614B03EBC603D3E9000152465B46FEF7B6
:102CD000ADFA002800F04982731E049300230C9380
:102CE0002C1B631E029300F1328200230593049B88
:102CF000002BC0F22382029A0B9311461944002341
:102D000002910A93209B092B29D8052B40F3588662
:102D1000043B20930025209B023B032B00F23586C9
:102D2000DFE813F02C03280237035904444B474AC9
:102D3000C8F31300002814BF1846104655E7CBF31C
:102D4000130343F07F5110955046A4F2FF3441F431
:102D50004011149D84E73E483BE7C31C4EE7002129
:102D6000C9F844104846209101F02AF94FF0FF338A
:102D70000693209A0D93012307902192C9F84000F1
:102D80000993159B002BC0F2D180049A0E2A00F300
:102D9000CD802D4B03EBC203D3E90034CDE90234DF
:102DA000219B002BC0F2008356465F465046594691
:102DB000DDE902AB52465B46FEF7D2F8FEF740FA79
:102DC0000446FDF73DFF52465B46FDF79FFF0B466D
:102DD000024639463046FDF7E5FD079D04F1300314
:102DE0002B70069B012B06460F4605F1010562D0AC
:102DF0000022184BFDF78AFF0022002306460F46EB
:102E0000FEF7ECF900287ED1CDF81490DDF818A07B
:102E1000DDF81CB0DDE9028929E000BFAFF30080D6
:102E200061436F63A787D23FB3C8608B288AC63FD0
:102E3000FB799F501344D33F0000F07F8D62000860
:102E40009C6200080000F83FB06200089062000831
:102E50008C62000800002440FDF758FF0022002388
:102E600006460F46FEF7BAF9002840F0B7834246FF
:102E70004B4630463946FEF773F8FEF7E1F9044653
:102E8000FDF7DEFE42464B46FDF740FF02460B468D
:102E900030463946FDF786FD04F1300E05F801EBAA
:102EA000CBEB050ED64506460F464FF00002B04B61
:102EB000D2D1DDF8149032463B4630463946FDF714
:102EC00073FD06460F4602460B46DDE90201FEF79A
:102ED0008FF940B932463B46DDE90201FEF77EF943
:102EE00088B1E3070FD515F8014C079A6B1E04E073
:102EF0009A4200F02C8413F8014D392C03F101059E
:102F0000F6D001341C700899484601F07FF8002281
:102F1000049B2A70229A01331360249B002B00F03B
:102F2000A78307981D6017B0BDE8F08F099A002AA3
:102F300000F01281209A012A40F35882069B0A9AD7
:102F40005F1EBA42C0F29783D71B069B002BC0F2CC
:102F50008A84059D069B059A1A440592029A0121CE
:102F60001A444846029201F035F9064665B10299C5
:102F700000290B4608DDA942059AA8BF2B46D21AA4
:102F8000ED1ACB1A059202930A9B002B40F3FC82A8
:102F9000099A002A00F00182002F00F0FE813146DC
:102FA0003A46484601F0B8F9DDF82080014642462D
:102FB0000646484601F018F941460446484601F0E5
:102FC00025F80A9BDB1B0A9340F0E6810121484665
:102FD00001F000F90B9B8046002B00F0198201469E
:102FE0001A46484601F098F9209B012B804640F391
:102FF000F8820027D8F8103008EB8303186901F035
:103000009BF8C0F12000029A104410F01F0000F05D
:10301000F681C0F12003042B40F3CA84059BC0F164
:103020001C00034405931346034405440293059B87
:10303000002B05DD21461A46484601F0BDF904463D
:10304000029B002B05DD41461A46484601F0B4F9C3
:1030500080460C9B002B40F07C82069B002B40F3AB
:103060009582099B002B40F0F581DDF81CB0069F8E
:103070005D4602E000F0D4FF044641462046FFF7DB
:10308000E3FC00F1300A05F801ABCBEB0503BB42D2
:103090004FF00A024FF0000321464846EADB079B47
:1030A000069A012AACBF9B1801331D464FF0000B56
:1030B00021460122484601F07FF94146089001F07F
:1030C000D3F9002840F30D8315F8012C07996B1EE6
:1030D00004E08B4200F0788213F8012D392A03F1C5
:1030E0000105F6D001321A704146484600F08EFFC5
:1030F000002E3FF408AFBBF1000F05D0B34503D05D
:103100005946484600F082FF3146484600F07EFFAF
:10311000F9E601230C93E3E5DDF810804046FDF766
:103120008FFD02460B4630463946FEF757F8002819
:103130007FF4C2AD08F1FF330493BDE5059A049B0B
:10314000D21A5B420A93002305920B93DAE55B42A5
:10315000059300230293CAE50A9F059D099E05E792
:10316000C3F120080AFA08F073E50C90B8E500BF37
:103170000000244000230993049B219A13440D93DB
:103180000133002B069340F38382069C26460021E0
:10319000172EC9F844100BD9012204235B0003F158
:1031A0001400B042114602F10102F7D9C9F84410E7
:1031B000484600F005FF0E2C0790C9F840003FF686
:1031C000E0AD002D3FF4DDAD04995746D846002907
:1031D000CDE90E7840F39282914B01F00F020E116F
:1031E00003EBC203F006D3E9004540F14C828D4B5E
:1031F00050465946D3E90823FDF7B2FE06F00F0604
:1032000082468B464FF0030886B1864FF10709D5F9
:1032100020462946D7E90023FDF778FD08F101088B
:1032200004460D46761007F10807EFD122462B46DB
:1032300050465946FDF794FE06460F460C9B43B197
:103240000022794B30463946FDF7D2FF002840F086
:1032500020834046FDF7F4FC32463B46FDF756FD21
:10326000724B0022FDF7A0FB069B0446A1F15075AE
:10327000002B00F0DF81049BDDF818801193099B7F
:10328000002B00F09782664B694903EBC80353E9B2
:1032900002230020FDF764FE22462B46FDF782FB49
:1032A00082468B4630463946FDF7CAFF0446FDF795
:1032B000C7FC02460B4630463946FDF773FB3034F7
:1032C000079DE4B206460F462C7002460B46504658
:1032D00059460135FDF7AAFF00284CD132463B463E
:1032E00000205149FDF75EFB02460B465046594609
:1032F000FDF79CFF002840F00D83B8F1010F40F36B
:10330000B381079B98440DE000204749FDF74AFB35
:1033100052465B46FDF76CFF002840F0FB824545B6
:1033200000F0A281504659460022424BFDF7EEFCC8
:103330000022404B82468B4630463946FDF7E6FC7C
:103340000F460646FDF77CFF0446FDF779FC024672
:103350000B4630463946FDF725FB3034E4B2524681
:103360005B4605F8014B06460F46FDF741FF324626
:103370003B460028C8D0119B0493C4E50023099361
:10338000219B002B40F389811E461C460D9306931A
:10339000FDE601230993F3E708940A9A0899484641
:1033A00000F0BAFF044611E6069B002B3FF7FCAC89
:1033B00040F0DA820022204BDDE90201FDF7A6FC95
:1033C00052465B46FDF728FFDDF818804646002888
:1033D00000F0F280219B079DDB4304934146484661
:1033E00000F014FE002E3FF48EAD8DE6109A002AF8
:1033F00000F0418203F233430A9F059DABE51C2098
:10340000059B03440593029B0344054402930EE687
:10341000209B012B40F382820B9F0120F3E500BF2C
:10342000B0620008786300080000F03F00001C4014
:103430000000E03F0000244000001440314600231B
:103440000A22484600F0ECFD0D9B002B064640F397
:1034500097820693002D05DD31462A46484600F046
:10346000ABFF0646002F40F07C810596069B079A2D
:10347000DDF814B0013BD31808930AF00103099357
:103480001746C24651462046FFF7DEFA314605464A
:10349000204600F0E9FF5A4602905146484601F0A6
:1034A00003F8C268804605F13003002A49D101467D
:1034B0002046069300F0D8FF41460590484600F0AC
:1034C000A5FD059A069B2AB9209919B909990029E1
:1034D00000F0368202990029C0F2E48005D12099DB
:1034E00019B90999002900F0DD80002A00F34D8107
:1034F000089A3B7007F101089742454600F0548155
:10350000214600230A22484600F08AFD5E45044613
:1035100031464FF000034FF00A0248460BD000F04E
:103520007FFD5946064600230A22484600F078FDF2
:1035300047468346A6E700F073FD474606468346A6
:10354000A0E701464846059300F060FD0122059B77
:10355000C0E74146204600F087FF0028BFF67DAD5A
:103560002146049C0023013C0A224846049400F0B2
:1035700057FD099B0446002B7FF460AF0D9B002B89
:1035800040F3F681069370E5089C1FE5209B022B13
:103590007FF767AD069B002B40F0798141460522FD
:1035A000484600F03DFD01468046204600F05CFFA5
:1035B000002808947FF70EAF049A0799312301324F
:1035C00004920B704D1C09E7049A01320492079A89
:1035D0003123137088E501230993CDE5DDF81490BC
:1035E00091E4BAF1000F7FF404ADCBF31303002B89
:1035F00040F03F812BF000473F0D3F0537B1059B61
:1036000001330593029B0133029301270B9B012099
:10361000002B3FF4F8ACEDE44046FDF711FB3246D9
:103620003B46FDF773FB0022BF4BFDF7BDF9044697
:10363000A1F15075304639460022BC4BFDF7B2F976
:1036400022462B4606460F46FDF7F0FD8046002831
:1036500040F00581224605F1004330463946FDF72A
:10366000C7FD08B14646B5E6DDE90EABFFF789BBFD
:103670000798FFF7AEBA0A9B0B9A0A97FB1A1A44EF
:103680000B92002761E4DDE90EAB4FF00208BBE5C9
:103690001C460021C9F844108AE5012421940D94A8
:1036A0000694F6E7002AD046CDF814B09A4611DD0C
:1036B00021460122484600F07FFE4146044600F0C4
:1036C000D3FE002840F34981BAF1390F00F006819A
:1036D00005F1310AB34687F800A07D1C059E0894C9
:1036E00002E504D11AF0010F01D0EDE4154615F8FA
:1036F000013C302B05F1FF32F8D0F5E4049B5C422D
:10370000002C00F0BF808A4B04F00F0203EBC203D1
:10371000D3E90023DDE90E01FDF7F8FA241106468E
:103720000F4600F02A81834D4FF00208E20709D5C9
:1037300030463946D5E90023FDF7E8FA08F10108DB
:1037400006460F46641005F10805EFD176E50799A6
:1037500030220A70049A15F8014C01320492FFF7E6
:10376000D0BB7168484600F02BFC33699A1C0546B3
:10377000920006F10C010C30FCF782FE2946012272
:10378000484600F019FE059070E6392BCDF814B0CC
:10379000D04600F0A38003F1010AB34687F800A0E9
:1037A0007D1C059E08949FE45A46D046B3469A462F
:1037B00016467DE45E4908F1FF3A01EBCA01224654
:1037C0002B46D1E90001FDF7A1FACDE912013946F6
:1037D0003046FDF735FD0446FDF732FA02460B464A
:1037E00030463946FDF7DEF8079A3034B8F1010F5C
:1037F00006460F46147002F101051ED0079B03EB2D
:10380000080BA84600224C4B30463946FDF77EFA9D
:103810000F460646FDF714FD0446FDF711FA303455
:1038200002460B4630463946FDF7BCF808F8014B16
:10383000C34506460F46E5D1554400223F4BDDE91E
:103840001201FDF7B1F832463B46FDF7D1FC0028E6
:103850004CD0119B049315F8014CFFF746BB4FF079
:1038600000084646A8E6059B069A9D1A0023FFF726
:1038700072BB0027CAE6149B0A9F059DC3F136035D
:10388000FFF769BBDDE90E674FF00208D6E4089444
:10389000A0E5069B002B3FF4BFAE0D9B002B7FF7EE
:1038A000E3AE0022244B30463946FDF72FFA064698
:1038B0000F4608F10100FDF7C3F932463B46FDF71C
:1038C00025FA0022184BFDF76FF8049ADDF83480D2
:1038D000013A0446A1F150751192D0E43922B34661
:1038E0000894059E3A707D1CFFF7F0BBDDE91223BA
:1038F00000201249FDF756F832463B46FDF796FC8C
:1039000008B9B1E6154615F8013C302B05F1FF3238
:10391000F8D030E5119B0493FFF7E7BABAF1000F36
:103920007FF47AAD61E600BF00001C400000144047
:10393000B062000878630008000024400000E03F07
:10394000392BCDF814B0D046DDF808B09A46C5D072
:10395000BBF1000F3FF7BCAEBCE67FF4BBAE1AF084
:10396000010F3FF4B7AEAFE64FF00008464631E531
:10397000209B022B21DC0D9B04E64FF002085DE446
:10398000209B022B19DC0D9B63E50024C9F8444001
:103990002146484600F014FB4FF0FF3306930D9389
:1039A000012307902194C9F840000993FFF7E9B972
:1039B0003FF43DABC0F13C0022E50D9B0693E9E5E9
:1039C0000125FFF7A8B900BFB2B110B50B491046E9
:1039D0001446FCF7F9FD08B9094810BD084920460E
:1039E000FCF7F2FD0028F7D020460649FCF7ECFD75
:1039F0000028F1D0002010BD01487047A0620008E7
:103A0000246200086C620008004870479C04002093
:103A1000014B1868704700BFBC0400200048704785
:103A200044040020002070470048704764040020D0
:103A3000024B0A4601461868FFF7C6BF4004002043
:103A400000487047640400202DE9F04F01F10B0598
:103A5000162D83B0064640F29F8035F0070500F131
:103A6000BF80A94200F2BC8000F0A6FAB5F5FC7F49
:103A7000C0F09C826B0A00F0BA80042B00F28381B4
:103A8000A80900F1390E4FEA4E033830C44F07EB56
:103A90008303A3F108015C68A14207D1ACE0002ACE
:103AA00080F2AC80E468A14200F0A680636823F055
:103AB00003035A1B0F2AF2DDB9493C6901F1080ED4
:103AC000744500F0B381636823F003035A1B0F2A87
:103AD00000F39981002AC1F814E0C1F810E080F2E7
:103AE0009E80B3F5007F80F06781DB0803F1010C55
:103AF00001229B1002FA03F34A6851F83C80C4F893
:103B0000088001EBCC091A43A9F10803E3604A607D
:103B100041F83C40C8F80C40831001249C4094427A
:103B200000F28A80144206D120F00300640014429F
:103B300000F10400FAD007EBC009CC468046DCF85F
:103B40000C108C4507D173E1002A80F28181C9688D
:103B50008C4500F06D814B6823F003035A1B0F2A3C
:103B6000F2DD0C46D1F80CC054F8088F4B1945F023
:103B700001054D6042F00101C8F80CC03046CCF898
:103B800008807B613B61C3F80CE0C3F808E0596032
:103B90009A5000F013FA1FE0102921D800F00CFA17
:103BA0001025062302207E4F07EB8303A3F10802B2
:103BB0005C68944200F045816368E168A56823F081
:103BC0000303234430465A68E96042F001028D60E5
:103BD0005A6000F0F3F90834204603B0BDE8F08FD6
:103BE00000240C232046336003B0BDE8F08F80230F
:103BF0004FF0400E3F2049E770465DE72344E168FF
:103C00005A68A56842F00102E96030468D605A604A
:103C100000F0D4F90834204603B0BDE8F08F234407
:103C200030465A6842F001025A6000F0C7F9083481
:103C3000204603B0BDE8F08FBC68636823F003083A
:103C4000A84504D3C5EB08030F2B00F38C80554B1C
:103C5000DFF860911A68D9F8003001332A4404EB88
:103C6000080A00F0608102F580520F3222F47F6270
:103C700022F00F0211463046019200F047FEB0F1EB
:103C8000FF3F8346019A00F05881824500F2FC8094
:103C9000454B1968DA451144196000F05381D9F891
:103CA0000000DFF810E101301BBFCAEB0B0A5144E2
:103CB000CEF800B019601BF0070100F01781C1F1C8
:103CC0000800C1F58051834408315A44C2F30B0205
:103CD000C2EB010949463046019300F017FE431C30
:103CE000019B00F03F81CBEB00024A4442F001020D
:103CF0001968C7F808B04944BC42CBF804201960E1
:103D0000DFF8A49016D0B8F10F0F40F2FD80626882
:103D1000A8F10C0323F00703E01802F001024FF0B2
:103D2000050E1A430F2B6260C0F804E0C0F808E0EB
:103D300000F21C811D4BBC681A68914288BF196053
:103D40001B4B1A689142626888BF196022F0030217
:103D50009542A2EB050301D80F2B04DC304600F09E
:103D60002DF9002438E7621943F0010345F00105FD
:103D700065603046BA60536000F020F90834204690
:103D800003B0BDE8F08F142B71D9542B00F2A4803E
:103D9000280B00F16F0E4FEA4E036E3076E600BF3F
:103DA000C0040020E8080020EC080020E4080020FF
:103DB000E0080020CC0800205A0A042A5ED9142A00
:103DC00000F2B38002F15C0149005B3207EB810C29
:103DD00057F82110DFF8DC81ACF1080C8C4500F0BD
:103DE00088804A6822F00302934202D289688C4597
:103DF000F7D1D1F80CC07A68C4F80CC0A160CCF837
:103E00000840CC6088E6631942F0010745F00105DF
:103E1000656030464B610B61C3F80CE0C3F808E005
:103E20005F609A50083400F0C9F8D5E64A6873E636
:103E300008F1010818F0030F0CF1080C7FF47FAEB5
:103E400030E0DC68A34208BF02303FF435AEB3E691
:103E50000B440C465A68C96854F8085F42F00102E6
:103E60005A603046E9608D6000F0A8F8B4E603F1CE
:103E70005C0E03F15B004FEA4E0307E69A0902F17C
:103E8000390149003832A1E7BC424A4B3FF400AF48
:103E90009C68626822F003025AE759F8083999458C
:103EA00040F0828010F0030F00F1FF30F5D17B6805
:103EB00023EA04037B6064009C423FF6BDAE002C05
:103EC0003FF4BAAE1C4240467FF435AE64001C425B
:103ED00000F10400FAD02EE6B3F5AA7F18D8E80B5B
:103EE00000F1780E4FEA4E037730CFE54FF4805162
:103EF000EBE60121D8F80430921001FA02F21A43DD
:103F0000C8F80420614677E70123CBF8043025E7A1
:103F100040F25452934220D8A80C00F17D0E4FEA93
:103F20004E037C30B2E51032A4E6542A26D81A0B90
:103F300002F16F0149006E3248E7BC68626822F006
:103F4000030205E7CAF30B0000287FF4A8AE424441
:103F5000BB6842F001025A60ECE6FE234FF07F0E90
:103F60007E2093E501224FF00009C1E604F108012B
:103F7000304601F009FCD9F80010DBE6B2F5AA7F63
:103F800005D8DA0B02F17801490077321EE740F2DA
:103F900054518A4205D89A0C02F17D0149007C32C5
:103FA00014E7FE217E2211E77B6884E7E808431CC2
:103FB0005B00F8E5C0040020704700BF704700BFF9
:103FC000C36C70B505460C464BB153F8240080B164
:103FD000026843F8242000230361C36070BD2122DE
:103FE000042101F053FBE86403460028EDD10020D2
:103FF00070BD012101FA04F6721D2846920001F0FD
:1040000045FB0028F3D044608660E4E731B1C36C1F
:104010004A6853F82200086043F82210704700BF36
:10402000F0B50C6983B00D46064601F1140E002769
:10403000DEF8000081B202FB01310B0C000C02FB28
:10404000003389B2013701EB0341BC424EF8041B37
:104050004FEA1343ECDC3BB1AA68944207DA05EB64
:104060008402013453612C61284603B0F0BD6968B5
:10407000019301313046FFF7A3FF2A69023205F1AF
:104080000C01074692000C30FCF7FAF9F26C6968F3
:10409000019B52F82100286042F821503D46DEE79E
:1040A0002DE9F843234C089D1F46083384FB034E3B
:1040B000DB17C3EB6E0EBEF1010F06460C469046B1
:1040C00035DD012300215B009E4501F10101FADC91
:1040D0003046FFF775FF0123B8F1090F4561036111
:1040E00021DD04F109094D46444415F8013B014620
:1040F000303B0A223046FFF793FFA542F5D109EB8A
:104100000804083C47450CDDC8EB0707274414F8B2
:10411000013B0146303B0A223046FFF781FFA742B0
:10412000F5D1BDE8F8830A344FF00908EAE7002129
:10413000CEE700BF398EE338030C1B04B3B900048B
:10414000102310F07F4F04BF0002083310F0704FAF
:1041500004BF0001043310F0404F04BF800002335D
:10416000002807DB420003D4202070470023E8E743
:10417000581C704718467047036813F0070207D0B1
:10418000D90720D49A0720D49B08036002207047E7
:1041900099B209B91B0C102213F0FF0F04BF1B0AC0
:1041A0000832190704BF1B090432990704BF9B0892
:1041B0000232D90704D45B0801D1202070470132B4
:1041C000036010467047002070475B0803600120C1
:1041D000704700BF10B50C460121FFF7F1FE012228
:1041E0004461026110BD00BF2DE9F04F0D691769F0
:1041F000BD4283B00C46164604DA2A4634463D4694
:104200000E461746A368616805EB07089845C8BFC6
:104210000131FFF7D5FE00F1140C0CEB8809CC45F9
:10422000009005D26346002143F8041B9945FBD852
:1042300006F1140202EB870A04F11403524503EB62
:10424000850E54D2CDF80490994652F8043B1FFADB
:1042500083FBBBF1000F20D000204F466646054689
:1042600000E01E4657F8044B3068A1B283B20BFB46
:104270000131240C000C4B190BFB040000EB134024
:1042800099B2334641EA0041BE454FEA104543F832
:10429000041BE6D8756052F8043C5FEA134B20D04B
:1042A000DCF80030674618464D46002100E03746EE
:1042B0002C88000C0BFB040001449CB23E4644EAEF
:1042C000014346F8043B786855F8044B83B2240C4C
:1042D0000BFB043404EB1143AE454FEA1341E6D81F
:1042E0007B6092450CF1040CAFD8DDF80490B8F176
:1042F000000F0BDD59F8043CA9F104091BB105E0DE
:1043000059F8043D13B9B8F10108F9D10098C0F883
:10431000108003B0BDE8F08F12F003032DE9F041E7
:10432000144607462ED10E46A4101CD0BD6C95B382
:10433000E3074FF0000806D4641014D02868A8B131
:104340000546E307F8D52A4631463846FFF74CFFC5
:10435000B6B17268FB6C641053F82210316043F8F8
:1043600022600646EAD13046BDE8F0812A46294659
:104370003846FFF739FF2860C0F800800546E0E7BF
:104380000646D9E75A1E0B4D002355F82220FFF7A9
:1043900047FE0646C8E701213846FFF711FE40F206
:1043A000712101220023416102610546B864036066
:1043B000BEE700BFA06300082DE9F04791460A69F7
:1043C0008B684FEA691404EB020808F101059D426D
:1043D0000E468246496804DD5B009D4201F1010101
:1043E000FADC5046FFF7ECFD002C00F1140238DD3A
:1043F00002EB8403002142F8041B9342FBD1346991
:1044000006F1140119F01F0901EB840E21D0C9F146
:10441000200200240F6807FA09FC4CEA04049C46B9
:1044200043F8044B51F8044B8E4524FA02F4F1D8BA
:10443000CCF804400CB108F10205DAF84C3072688F
:10444000013D53F822100561316043F82260BDE858
:10445000F087043B51F8042B43F8042F8E45F9D81C
:10446000EBE71346CBE700BF02690B69D21A12D102
:104470009B0014301431194410B4034401E09842F5
:104480000BD253F8044D51F8042D9442F7D007D3C2
:10449000012010BC704710467047002010BC7047C8
:1044A0004FF0FF30F5E700BF2DE9F8430B690F46E9
:1044B00011695B1A002B904617D1890007F114028D
:1044C00008F114055318294401E09A425ED253F8CA
:1044D000046D51F8044DA642F7D060D23B46144615
:1044E00047464FF00109984606E05DDB07F11405E9
:1044F00002F114044FF000097968FFF761FDD8F864
:1045000010303E69C0F80C9004EB830CA64605EB16
:10451000860700F1140400235EF8041B55F8048B91
:104520008AB213FA88F3090C9A1AC1EB184303EB09
:10453000224392B242EA0342F44544F8042B4FEA84
:104540002343E9D8AF4217D9A446294651F804EBD2
:1045500013FA8EF2131403EB1E4392B242EA0342A3
:104560008F424CF8042B4FEA2343EFD8ED433D44F0
:1045700025F0030504352C44043C22B954F8043DCD
:10458000013E002BFAD00661BDE8F8830021FFF759
:1045900017FD0122002302614361BDE8F8832C4628
:1045A0004FF000091546A7E73B4607F1140408F150
:1045B000140547464FF0010998469DE70F4B0B4005
:1045C000A3F15073002B02DD0020194670475B42B7
:1045D0001B15132B0BDD143B1E2BDDBFC3F11F037B
:1045E000012202FA03F301230021184670474FF419
:1045F0000022002042FA03F1704700BF0000F07F64
:104600002DE9F041066900F1140808EB860656F81A
:10461000047C3846FFF790FDC0F120030A280B60A8
:10462000A6F104031ADC984538BF56F8083CC0F1DF
:104630000B0227FA02F138BF23FA02F200F1150348
:1046400041F07F5528BF002207FA03F345F44015D7
:1046500043EA020420462946BDE8F081984520D26D
:10466000B0F10B0256F8081C1ED007FA02F040F019
:104670007F50C2F12007A6F1080340F4401021FA50
:1046800007FE984540EA0E0520D256F80C3C01FA88
:1046900002F023FA07F20243144620462946BDE8F9
:1046A000F0810B3809D1014647F07F550C4645F49F
:1046B000401520462946BDE8F08107FA00F040F099
:1046C0007F55002245F440151446E6E701FA02F250
:1046D0001446E2E72DE9F04182B001211C46C3F304
:1046E0000A571546089EFFF76BFCC4F31304804677
:1046F0000FB144F4801401941DB302A840F8085D82
:10470000FFF73AFD002834D19DE80C00C8F81420CA
:10471000002B0CBF01210221C8F81830C8F8101076
:10472000DFB908EB8103A0F2324030601869FFF76F
:1047300003FD099BC0EB41101860404602B0BDE884
:10474000F08101A8FFF718FD019BC8F81430012182
:104750002030C8F81010002FE3D0099BA7F2334790
:104760000744C0F1350037601860404602B0BDE82C
:10477000F0819DE80C00C0F1200103FA01F10A4329
:10478000C3400193C8F81420C2E700BF2DE9F043ED
:1047900083B00E4669460746FFF732FF04460D46D2
:1047A000304601A9FFF72CFF89469DE80A003A69C7
:1047B0003669C91A961B01EB4613002B80460BDDA8
:1047C00005EB03510D4642464B4620462946FCF771
:1047D000C7FB03B0BDE8F083A9EB0357B946F2E786
:1047E000172810B5044608DD074900200022074BB2
:1047F000FCF78CFA013CF9D110BD054B03EBC0046A
:10480000D4E9000110BD00BF0000F03F00002440CB
:10481000B062000870B4146902F1140301394E113A
:1048200003EB84040136A34200EB86060CD2011F81
:1048300053F8045B41F8045F9C42F9D8A31A153B76
:1048400023F0030304331844864204D9002340F8BC
:10485000043B8642FBD870BC704700BF03694A1115
:10486000934210B400F114040FDA04EB83039C426A
:104870001FD253F8040C043B18B114E053F8042D74
:104880008AB99C42FAD310BC70470FDD11F01F01AA
:104890000CD054F8220020FA01F303FA01F1884207
:1048A00004EB8203E3D0012010BC704704EB8203C9
:1048B000DDE70020E7E700BF31F0004310B407D088
:1048C000104AA1F58014944206D8042010BC704709
:1048D00010B9022010BC704701F1FF41094A01F5EF
:1048E000E0019142F1D9B3F5801F01D20320EDE739
:1048F000054A934201D00020E8E7B0FA80F0400971
:10490000E4E700BFFFFFDF7F0000F07F38B5074C12
:104910000023054608462360FBF726FD431C00D014
:1049200038BD2368002BFBD02B6038BD7C090020EC
:104930002DE9F04F936883B09046002B72D08346E8
:104940004FF00009166808688B680D464C46002C2D
:1049500045D09C421F469A4646D3AB8913F4906FCC
:104960002DD06F69296907EB4707C1EB000A07EBF8
:10497000D777601C7F105044B8423A4684BF074640
:104980003A465B0533D511465846FFF75DF80028D7
:1049900037D0524629690190FBF772FDAA89019B25
:1049A00022F4906242F08002AA81CAEB070203EB74
:1049B0000A006F612B612860AA602746A246524612
:1049C000494600F0C9FFD8F80820AB682868DB1B0F
:1049D0005044141BAB602860C8F8084014B3D6F8E4
:1049E000009074680836B2E72746A246E7E75846C3
:1049F00001F064F803460028D7D12969584600F031
:104A0000C3FE0C23CBF80030AB89002243F04003F7
:104A10004FF0FF30AB81C8F80820C8F8042003B07D
:104A2000BDE8F08F0020C8F8040003B0BDE8F08FA7
:104A30002DE9F04F93468A89ADB01506039108938E
:104A4000069003D50B69002B00F09F8500230DF124
:104A50007008049311931093CDF83C80C2469BF8E4
:104A600000305C46EBB1252B02D11AE0252B03D098
:104A700014F8013F002BF9D1CBEB04058DB1109B4D
:104A8000119ACAF800B001332A44072BCAF804501F
:104A90001192109300F352840AF1080A049B2B44EC
:104AA00004932378002B00F0E48300214FF00003EF
:104AB0004FF0FF328DF8373004F1010B637801922B
:104AC00008460F460C460BF1010BA3F12002582AB1
:104AD00000F2E582DFE812F04501E302E302DB00C9
:104AE000E302E302E302E302E302E30259004D01C1
:104AF000E3026300C602E302C102B302B302B302DF
:104B0000B302B302B302B302B302B302E302E3029D
:104B1000E302E302E302E302E302E302E302E3026D
:104B20009B02E302E302E302E302E302E302E302A5
:104B3000E302E302E3027802E302E302E302E302B8
:104B4000E3025402E302E3023F02E302E302E30270
:104B5000E302E302E302E302E302E302E302DC0135
:104B60009C01E302E302E30297019C01E302E302FA
:104B70008A01E30276019F0068007101E30252019D
:104B8000E3020F01E302E302E000089A146813460F
:104B9000002C03F1040380F22A846442089347F056
:104BA00004079BF800308EE7302108988DF8381004
:104BB000019907944FF0000378228DF837300029CF
:104BC00003468DF83920046803F104034FF0000513
:104BD00047F00202C0F2B18427F0800242F00207DF
:104BE00054EA0502089300F01184C2484FF000090E
:104BF0004646230904F00F0143EA05732A091C46BF
:104C00001546435C06F8013D54EA0503F1D1C6EBB5
:104C10000803059398E00794002940F0148517F0E5
:104C2000200300F0DB81089B073323F007034FF0DC
:104C300000028DF83720D3E9004503F10802019BFB
:104C40000892002B05DB54EA050327F0800700F0EB
:104C50004C824FF000094646E20842EA4572E908F4
:104C600004F007030D461446303354EA050206F8F3
:104C7000013DF1D1F907CAD5302BC8D03022731EBF
:104C800006F8012CC3EB080205921E465CE047F0D3
:104C900001079BF8003016E70794002940F0E484F0
:104CA000BE06944840F15F81089A073222F007025D
:104CB000D2E9004502F10801089117F0010900F05E
:104CC000698354EA050200F0CC8330228DF8382045
:104CD000019A8DF83930002A4FF000038DF83730F3
:104CE00047F00203C0F2858427F0800343F00207F7
:104CF0004FF000097CE70794002940F0B98417F0D1
:104D0000200300F04781089B073323F007034FF08F
:104D100000028DF83720D3E9004503F10802019B1A
:104D20000892002BC0F2E78354EA050327F08007BE
:104D30004FF0000940F08E80019B002B40F0E6838D
:104D40000023019305934646019B059A9342B8BF01
:104D500013460293B9F1000F00F0AC8001330293C7
:104D6000A8E09BF8003000287FF4ADAE01212020A0
:104D7000A9E69BF8003001212B20A4E6089A0794AD
:104D800016684FF000038DF83730141D019B002E7C
:104D900000F00884002BC0F2ED831A460021304653
:104DA000FBF71EFB002800F02984831B05930023DA
:104DB00008949DF837900193C6E747F020079BF8C9
:104DC000003080E6002940F04584BA0600F1878370
:104DD000FB0600F193837F0640F19083089A1368E5
:104DE00004320892BDF810201A8038E69BF8003093
:104DF0006C2B03BF9BF8013047F020070BF1010B30
:104E000047F010075FE647F040079BF800305AE68E
:104E10000794002940F03084BC0640F101810899D4
:104E2000073121F00701D1E9002308310891144628
:104E30001D46002A73F10003C0F2FB82019B9DF81E
:104E40003790002BC0F2C78254EA050327F0800791
:104E50003FF472AF002D08BF0A2CC0F0C082464656
:104E6000204629460A220023FCF712FA303206F8BF
:104E7000012D2046294600230A22FCF709FA0446A0
:104E80000D4654EA0503EBD1C6EB080305935BE737
:104E9000089A079413688DF848304FF000011346C4
:104EA0008DF837100433012102910893059112AE59
:104EB0000023019317F00203099302D0029B0233EF
:104EC000029317F084030A9340F01881079B029A1B
:104ED0009C1A002C40F31281102C1199109A064D47
:104EE0002BDD0B9650464FF01009BA46039E2F4615
:104EF000069D08E070620008E8630008103C102C72
:104F000000F1080015DD01321031072A11911092CD
:104F100080E88002F2DD0FAA31462846FFF708FD3F
:104F2000002840F0AD81103C102C1199109A404699
:104F3000E9DC0B9E3D4657468246531C2144072B15
:104F400011911093CAF80050CAF8044000F3368259
:104F50000AF1080AD4E00794002940F09183BE06C4
:104F6000A7483FF5A1AE0899FD060A4600F17482F4
:104F70007C0640F1718204320C88089200259CE680
:104F80000794002940F06A8347F0100717F02003C8
:104F90007FF4B9AE17F0100200F0888208998DF8FE
:104FA00037300A460C680199002902F104024FF0DB
:104FB0000005C0F21B8354EA050127F08007089220
:104FC00099467FF447AFB7E60794002940F049833C
:104FD00047F0100717F020037FF425AE17F01002FA
:104FE00000F0498208998DF837300A460C6801991B
:104FF000002902F104024FF00005C0F2F48254EAE5
:10500000050127F0800708926FD0994623E60794A0
:10501000002940F0158347F01007BC063FF5FFAEAE
:10502000F80600F1F981790640F1F6810899B1F9A5
:1050300000400431E51722462B460891F9E6A3F11A
:10504000300200241BF8013B04EB840402EB44040F
:10505000A3F13002092AF5D937E547F080079BF81C
:10506000003030E59BF800302A2B0BF1010500F0F1
:10507000D182A3F13002092AAB4698BF002500F285
:10508000C5821BF8013B05EB850502EB4505A3F145
:105090003002092AF5D945EAE572019215E507942F
:1050A000002940F0D482002B00F0E38001228DF82B
:1050B00048304FF0000302928DF83730059212AE5F
:1050C000F6E6089A8DF8379013461468019A002A7C
:1050D00003F104034FF00005C0F27A8254EA05029E
:1050E00027F0800708937FF4B6AD019B002B00F0FA
:1050F00063824FF0000900240025ACE51199109B54
:105100009DF837206AB1013301310DF137000122DA
:10511000072B119110938AE8050000F324810AF10E
:10512000080A099A62B1013302310EA80222072B44
:10513000119110938AE8050000F320810AF1080A12
:105140000A9A802A00F0A880019A0598141A002C67
:1051500038DD102C2B4D28DD019650464FF01009FC
:10516000BA461A462F46039E069D04E0103C102CBA
:1051700000F1080014DD01321031072A119110925C
:1051800080E88002F2DD0FAA31462846FFF7D0FB07
:10519000002875D1103C102C1199109A4046EADC79
:1051A000019E3D4613465746824601332144072B54
:1051B00011911093CAF80050CAF8044000F3C88057
:1051C0000AF1080A0598CAF8006001330144072B68
:1051D00011911093CAF8040000F39E800AF1080AA6
:1051E0007A0737D5079B029A9C1A002C32DD102CC7
:1051F000109B054D23DD1026069FDDF80C900AE07C
:105200005C620008D8630008E8630008103C102CBA
:105210000AF1080A13DD01331031072B11911093A5
:105220008AE86000F2DD0FAA49463846FFF780FBA6
:1052300030BB103C102C1199109BC246EBDC0133A3
:105240002144072B11911093CAF80050CAF804406A
:1052500000F3D280049B079A02988242ACBF9B184D
:105260001B180493002961D100231093C246FFF755
:10527000F6BB119B23B1069803990FAAFFF758FBC1
:10528000039B9B8913F0400F049B18BF4FF0FF3323
:1052900018462DB0BDE8F08F079A0298141A002C1A
:1052A0007FF752AF102CB14D28DD099650464FF0D4
:1052B0001009BA461A462F46039E069D04E0103C8C
:1052C000102C00F1080014DD01321031072A119171
:1052D000109280E88002F2DD0FAA31462846FFF7DF
:1052E00027FB0028CCD1103C102C1199109A404675
:1052F000EADC099E3D461346574682460133214467
:10530000072B11911093CAF80050CAF8044000F31B
:10531000FF800AF1080A17E70FAA03990698FFF71A
:1053200007FB0028ACD11199C24659E70FAA03998F
:105330000698FFF7FDFA002896D0A1E70FAA039977
:105340000698FFF7F5FA00289AD1C246FFF7A6BBE8
:105350000FAA03990698FFF7EBFA002890D111994C
:10536000109BC2462EE70FAA03990698FFF7E0FAB2
:10537000002885D11199109BC246D2E60FAA039945
:105380000698FFF7D5FA00287FF47AAF1199109BA1
:10539000C246D5E6019B8DF83790002BC0F2C48041
:1053A00054EA050327F080077FF422AC019B002B11
:1053B00030D04FF000090024002519E40FAA03990A
:1053C0000698FFF7B5FA00287FF45AAF1199109BA1
:1053D000C24695E6089354EA05037FF43BAD2CAE34
:1053E000303406F8414DC6EB08030593ACE408934E
:1053F0009BF80030FFF767BB0FAA03990698FFF7E9
:1054000097FA00287FF43CAF119923E7019B584895
:10541000002BCED1994693E4089A146813460433BE
:10542000E51722460893002A2B4673F10003BFF6C6
:1054300005AD019B64424FF02D0965EB4505002B3E
:105440008DF83790FFF606AD002D08BF0A2C27F027
:105450008007BFF404ADC2E7146804320892002547
:105460002BE44FF000038DF83730019B002BA0DBBD
:1054700027F080079AE717F040093FF422AE089919
:105480008DF837200B460C880199002903F104039D
:105490004FF00005C0F29C8054EA050127F0800718
:1054A00008933FF422AE9146FFF7D5BB17F04009B1
:1054B00046D008998DF837200B460C8801990029B1
:1054C00003F104034FF00005C0F2858054EA0501A2
:1054D00027F08007089391467FF4BCAC2CE4089A2F
:1054E00004991368CD170846043229460892C3E987
:1054F0000001FFF7B4BA4FF000096CE7089A13688F
:1055000004320892049A1A60FFF7A9BA002466E7E9
:105510000FAA03990698FFF70BFA00287FF4B0AEA4
:105520001199109BC2460FE6089B089354EA0502A6
:105530004FF000097FF45CAB3DE717460C48F4E7F9
:10554000089A8DF8379013461468019A002A03F1DF
:1055500004034FF00005FFF63DAF54EA050227F0C3
:10556000800708937FF476ACFFF7E6BBD8630008AA
:105570007062000830460894FBF7A2F900230590FA
:105580009DF837900193FFF7DFBB4021FEF75CFAEF
:10559000039A1060106100284CD0039A4023536195
:1055A000FFF754BA062B28BF0623059323EAE373BB
:1055B00008940293344E7BE49946FB070ED52CAE3B
:1055C000302306F8413DC6EB08030593FFF7BCBB4B
:1055D0000893FFF73EBB08939146FCE6019B0593B9
:1055E0004646FFF7B1BB0892FFF733BB08929946D6
:1055F000F1E61F464FF00009FFF7FABA019B9DF84C
:105600003790059308940190FFF79EBB002201920A
:10561000FFF75BBA089A136801930432002B0892D3
:105620009BF80130AB46BFF64EAA4FF0FF32019215
:10563000FFF749BA069A0C2313604FF0FF3028E6B3
:105640008DF83700E7E48DF83700FFF7E8BA8DF8FA
:10565000370028E58DF83700FFF7B7BB8DF8370026
:1056600092E48DF83700B3E48DF83700FFF718BBEC
:105670008DF83700FFF743BB8DF83700FFF7CCBB41
:105680008DF837006BE400BF8462000810B502FBA0
:1056900001F1FEF7D9F90446D8B150F8042C22F0F4
:1056A0000302043A242A18D8132A14D900231B2AE7
:1056B0000360436016D9242A8360C36011BF00F1E0
:1056C00010020361436100F118020023136053606C
:1056D0009360204610BD0246F7E7002100F0A0F9D4
:1056E000204610BD00F10802EFE700BFF8B5234FD8
:1056F0000C460646FEF760FCBB685D6825F00305B6
:10570000291B01F6EF7121F47F6121F00F01A1F552
:105710008054B4F5805F07DB00213046FFF7F6F8D0
:10572000BB682B44984204D03046FEF747FC00206B
:10573000F8BD61423046FFF7E9F801300DD0104B5B
:10574000BA6819682D1B45F001053046091B5560E4
:105750001960FEF733FC0120F8BD00213046FFF749
:10576000D5F8BA68831A0F2BDEDD064C044924688D
:1057700043F00103001B53600860D5E7C00400201C
:10578000EC080020CC080020002945D02DE9F0418C
:105790000D468046FEF710FC55F8047C6A4927F058
:1057A0000103A5F10804E2188E685068B24220F0A7
:1057B000030062D0FE0750600BD455F8087CE41B50
:1057C00001F1080EA56875453B446FD0E768EF60AE
:1057D000BD6015186D68ED0742D543F001026260A7
:1057E000E350B3F5007F18D2DB085A1C4D6851F81E
:1057F0003270A76001209B1000FA03F301EBC20096
:105800001D430838E0604D6041F83240FC6040467E
:10581000BDE8F041FEF7D2BB70475A0A042A53D8BC
:105820009A0902F139077F0002F1380501EB870080
:1058300051F827204449083890424DD0516821F052
:1058400003018B4202D292689042F7D1D068E060A7
:10585000A2608460D4604046BDE8F041FEF7AEBB74
:1058600095683A4FBD4203443FD0D068E86043F0AA
:10587000010285606260E350B3E7FF07034407D489
:1058800055F8082CA41A1344A068E268C26090601E
:105890002F4A126843F00100934260608C60B6D3D7
:1058A0002C4B40461968FFF721FFB0E711184968F3
:1058B000C90744D49168D268CA60034443F0010028
:1058C00091606060E350A2E7142A17D802F15C07E8
:1058D0007F0002F15B05A9E7AA104B68012505FAD4
:1058E00002F213434B600246B1E743F001024C6100
:1058F0000C61E560A5606260E35088E7542A06D831
:105900001A0B02F16F077F0002F16E058EE7B2F508
:10591000AA7F06D8DA0B02F178077F0002F177053B
:1059200084E740F25450824206D89A0C02F17D0777
:105930007F0002F17C0579E7FE277E2576E743F0BC
:1059400001026260E35062E7C0040020C804002046
:10595000C8080020E80800208842F0B50DD98B184F
:1059600098420AD28118002A51D09A1A13F8014D90
:1059700001F8014D9342F9D1F0BD0F2A48D941EA0F
:1059800000039B0746D100F1100401F110031546F6
:1059900053F8106C44F8106C53F80C6C44F80C6C11
:1059A00053F8086C44F8086C103D53F8046C44F844
:1059B000046C0F2D03F1100304F11004E8D8A2F1D8
:1059C000100323F00F0302F00F0E1033BEF1030F8C
:1059D0001944034421D91E1F0D467446043C55F852
:1059E000047B46F8047F032CF8D8AEF1040424F0BD
:1059F000030404342344214402F0030262B1013B56
:105A00000A4411F8014B03F8014F8A42F9D1F0BD65
:105A10000346F3E70346F2E7F0BD7246EEE700BF48
:105A200070B4840746D0541E002A41D0CDB203463C
:105A300002E0621EE4B3144603F8015B9A07F8D152
:105A4000032C2ED9CDB245EA05250F2C45EA054594
:105A500019D903F110022646103E0F2E42F8105CB1
:105A600042F80C5C42F8085C42F8045C02F1100257
:105A7000F2D8A4F1100222F00F0204F00F04103249
:105A8000032C13440DD91E462246043A032A46F835
:105A9000045BFAD8221F22F003020432134404F0FC
:105AA00003042CB1C9B21C4403F8011BA342FBD16F
:105AB00070BC704714460346C2E700BF2DE9F04FA3
:105AC000174683B0002900F0C1800E46814607F1D9
:105AD0000B05FEF771FA56F804EC162D2EF00304B0
